{"contracts/ClawgerManager.sol":{"ClawgerManagerV4":{"abi":[{"inputs":[{"internalType":"address","name":"_clgr","type":"address"},{"internalType":"address","name":"_registry","type":"address"},{"internalType":"address","name":"_clawger","type":"address"}],"stateMutability":"nonpayable","type":"constructor"},{"inputs":[],"name":"ECDSAInvalidSignature","type":"error"},{"inputs":[{"internalType":"uint256","name":"length","type":"uint256"}],"name":"ECDSAInvalidSignatureLength","type":"error"},{"inputs":[{"internalType":"bytes32","name":"s","type":"bytes32"}],"name":"ECDSAInvalidSignatureS","type":"error"},{"inputs":[],"name":"EnforcedPause","type":"error"},{"inputs":[],"name":"ExpectedPause","type":"error"},{"inputs":[],"name":"InvalidShortString","type":"error"},{"inputs":[],"name":"ReentrancyGuardReentrantCall","type":"error"},{"inputs":[{"internalType":"address","name":"token","type":"address"}],"name":"SafeERC20FailedOperation","type":"error"},{"inputs":[{"internalType":"string","name":"str","type":"string"}],"name":"StringTooLong","type":"error"},{"anonymous":false,"inputs":[],"name":"EIP712DomainChanged","type":"event"},{"anonymous":false,"inputs":[{"indexed":false,"internalType":"address","name":"account","type":"address"}],"name":"Paused","type":"event"},{"anonymous":false,"inputs":[{"indexed":true,"internalType":"uint256","name":"proposalId","type":"uint256"},{"indexed":true,"internalType":"uint256","name":"taskId","type":"uint256"},{"indexed":true,"internalType":"address","name":"worker","type":"address"},{"indexed":false,"internalType":"address","name":"verifier","type":"address"}],"name":"ProposalAccepted","type":"event"},{"anonymous":false,"inputs":[{"indexed":true,"internalType":"uint256","name":"proposalId","type":"uint256"},{"indexed":false,"internalType":"string","name":"reason","type":"string"}],"name":"ProposalRejected","type":"event"},{"anonymous":false,"inputs":[{"indexed":true,"internalType":"uint256","name":"proposalId","type":"uint256"},{"indexed":true,"internalType":"address","name":"proposer","type":"address"},{"indexed":false,"internalType":"uint256","name":"escrow","type":"uint256"},{"indexed":false,"internalType":"uint256","name":"deadline","type":"uint256"}],"name":"ProposalSubmitted","type":"event"},{"anonymous":false,"inputs":[{"indexed":true,"internalType":"uint256","name":"taskId","type":"uint256"}],"name":"TaskCompleted","type":"event"},{"anonymous":false,"inputs":[{"indexed":true,"internalType":"uint256","name":"taskId","type":"uint256"}],"name":"TaskExpired","type":"event"},{"anonymous":false,"inputs":[{"indexed":true,"internalType":"uint256","name":"taskId","type":"uint256"},{"indexed":false,"internalType":"bool","name":"success","type":"bool"},{"indexed":false,"internalType":"uint256","name":"payout","type":"uint256"}],"name":"TaskSettled","type":"event"},{"anonymous":false,"inputs":[{"indexed":true,"internalType":"uint256","name":"taskId","type":"uint256"}],"name":"TaskStarted","type":"event"},{"anonymous":false,"inputs":[{"indexed":false,"internalType":"address","name":"account","type":"address"}],"name":"Unpaused","type":"event"},{"anonymous":false,"inputs":[{"indexed":true,"internalType":"uint256","name":"taskId","type":"uint256"},{"indexed":true,"internalType":"address","name":"worker","type":"address"},{"indexed":false,"internalType":"uint256","name":"amount","type":"uint256"}],"name":"WorkerBondPosted","type":"event"},{"inputs":[],"name":"ACCEPT_PROPOSAL_TYPEHASH","outputs":[{"internalType":"bytes32","name":"","type":"bytes32"}],"stateMutability":"view","type":"function"},{"inputs":[],"name":"BOND_BURN_PERCENT","outputs":[{"internalType":"uint256","name":"","type":"uint256"}],"stateMutability":"view","type":"function"},{"inputs":[],"name":"BURN_ADDRESS","outputs":[{"internalType":"address","name":"","type":"address"}],"stateMutability":"view","type":"function"},{"inputs":[],"name":"CLGR","outputs":[{"internalType":"contract IERC20","name":"","type":"address"}],"stateMutability":"view","type":"function"},{"inputs":[],"name":"MAX_ESCROW","outputs":[{"internalType":"uint256","name":"","type":"uint256"}],"stateMutability":"view","type":"function"},{"inputs":[],"name":"MAX_OBJECTIVE_LENGTH","outputs":[{"internalType":"uint256","name":"","type":"uint256"}],"stateMutability":"view","type":"function"},{"inputs":[],"name":"MIN_WORKER_BOND","outputs":[{"internalType":"uint256","name":"","type":"uint256"}],"stateMutability":"view","type":"function"},{"inputs":[],"name":"PROPOSAL_BOND","outputs":[{"internalType":"uint256","name":"","type":"uint256"}],"stateMutability":"view","type":"function"},{"inputs":[],"name":"REJECT_PROPOSAL_TYPEHASH","outputs":[{"internalType":"bytes32","name":"","type":"bytes32"}],"stateMutability":"view","type":"function"},{"inputs":[],"name":"TASK_EXPIRY_DURATION","outputs":[{"internalType":"uint256","name":"","type":"uint256"}],"stateMutability":"view","type":"function"},{"inputs":[{"internalType":"uint256","name":"proposalId","type":"uint256"},{"internalType":"address","name":"worker","type":"address"},{"internalType":"address","name":"verifier","type":"address"},{"internalType":"uint256","name":"workerBond","type":"uint256"},{"internalType":"uint256","name":"deadline","type":"uint256"},{"internalType":"bytes","name":"signature","type":"bytes"}],"name":"acceptProposalWithSignature","outputs":[{"internalType":"uint256","name":"","type":"uint256"}],"stateMutability":"nonpayable","type":"function"},{"inputs":[],"name":"clawger","outputs":[{"internalType":"address","name":"","type":"address"}],"stateMutability":"view","type":"function"},{"inputs":[],"name":"eip712Domain","outputs":[{"internalType":"bytes1","name":"fields","type":"bytes1"},{"internalType":"string","name":"name","type":"string"},{"internalType":"string","name":"version","type":"string"},{"internalType":"uint256","name":"chainId","type":"uint256"},{"internalType":"address","name":"verifyingContract","type":"address"},{"internalType":"bytes32","name":"salt","type":"bytes32"},{"internalType":"uint256[]","name":"extensions","type":"uint256[]"}],"stateMutability":"view","type":"function"},{"inputs":[{"internalType":"uint256","name":"taskId","type":"uint256"}],"name":"expireTask","outputs":[],"stateMutability":"nonpayable","type":"function"},{"inputs":[{"internalType":"uint256","name":"proposalId","type":"uint256"},{"internalType":"address","name":"worker","type":"address"},{"internalType":"address","name":"verifier","type":"address"},{"internalType":"uint256","name":"workerBond","type":"uint256"},{"internalType":"uint256","name":"deadline","type":"uint256"}],"name":"getAcceptProposalHash","outputs":[{"internalType":"bytes32","name":"","type":"bytes32"}],"stateMutability":"view","type":"function"},{"inputs":[],"name":"getDomainSeparator","outputs":[{"internalType":"bytes32","name":"","type":"bytes32"}],"stateMutability":"view","type":"function"},{"inputs":[{"internalType":"uint256","name":"proposalId","type":"uint256"},{"internalType":"string","name":"reason","type":"string"},{"internalType":"uint256","name":"deadline","type":"uint256"}],"name":"getRejectProposalHash","outputs":[{"internalType":"bytes32","name":"","type":"bytes32"}],"stateMutability":"view","type":"function"},{"inputs":[{"internalType":"uint256","name":"","type":"uint256"}],"name":"lockedWorkerBond","outputs":[{"internalType":"uint256","name":"","type":"uint256"}],"stateMutability":"view","type":"function"},{"inputs":[],"name":"owner","outputs":[{"internalType":"address","name":"","type":"address"}],"stateMutability":"view","type":"function"},{"inputs":[],"name":"pause","outputs":[],"stateMutability":"nonpayable","type":"function"},{"inputs":[],"name":"paused","outputs":[{"internalType":"bool","name":"","type":"bool"}],"stateMutability":"view","type":"function"},{"inputs":[{"internalType":"uint256","name":"taskId","type":"uint256"}],"name":"postWorkerBond","outputs":[],"stateMutability":"nonpayable","type":"function"},{"inputs":[],"name":"proposalCounter","outputs":[{"internalType":"uint256","name":"","type":"uint256"}],"stateMutability":"view","type":"function"},{"inputs":[{"internalType":"uint256","name":"","type":"uint256"}],"name":"proposalProcessed","outputs":[{"internalType":"bool","name":"","type":"bool"}],"stateMutability":"view","type":"function"},{"inputs":[{"internalType":"uint256","name":"","type":"uint256"}],"name":"proposals","outputs":[{"internalType":"uint256","name":"id","type":"uint256"},{"internalType":"address","name":"proposer","type":"address"},{"internalType":"string","name":"objective","type":"string"},{"internalType":"uint256","name":"escrow","type":"uint256"},{"internalType":"uint256","name":"deadline","type":"uint256"},{"internalType":"enum ClawgerManagerV4.ProposalStatus","name":"status","type":"uint8"},{"internalType":"uint256","name":"createdAt","type":"uint256"}],"stateMutability":"view","type":"function"},{"inputs":[],"name":"registry","outputs":[{"internalType":"contract IAgentRegistry","name":"","type":"address"}],"stateMutability":"view","type":"function"},{"inputs":[{"internalType":"uint256","name":"proposalId","type":"uint256"},{"internalType":"string","name":"reason","type":"string"},{"internalType":"uint256","name":"deadline","type":"uint256"},{"internalType":"bytes","name":"signature","type":"bytes"}],"name":"rejectProposalWithSignature","outputs":[],"stateMutability":"nonpayable","type":"function"},{"inputs":[{"internalType":"uint256","name":"taskId","type":"uint256"}],"name":"startTask","outputs":[],"stateMutability":"nonpayable","type":"function"},{"inputs":[{"internalType":"string","name":"objective","type":"string"},{"internalType":"uint256","name":"escrowAmount","type":"uint256"},{"internalType":"uint256","name":"deadline","type":"uint256"}],"name":"submitProposal","outputs":[{"internalType":"uint256","name":"","type":"uint256"}],"stateMutability":"nonpayable","type":"function"},{"inputs":[{"internalType":"uint256","name":"taskId","type":"uint256"}],"name":"submitWork","outputs":[],"stateMutability":"nonpayable","type":"function"},{"inputs":[],"name":"taskCounter","outputs":[{"internalType":"uint256","name":"","type":"uint256"}],"stateMutability":"view","type":"function"},{"inputs":[{"internalType":"uint256","name":"","type":"uint256"}],"name":"tasks","outputs":[{"internalType":"uint256","name":"id","type":"uint256"},{"internalType":"uint256","name":"proposalId","type":"uint256"},{"internalType":"address","name":"worker","type":"address"},{"internalType":"address","name":"verifier","type":"address"},{"internalType":"uint256","name":"escrow","type":"uint256"},{"internalType":"uint256","name":"workerBond","type":"uint256"},{"internalType":"enum ClawgerManagerV4.TaskStatus","name":"status","type":"uint8"},{"internalType":"bool","name":"settled","type":"bool"},{"internalType":"uint256","name":"createdAt","type":"uint256"},{"internalType":"uint256","name":"completedAt","type":"uint256"}],"stateMutability":"view","type":"function"},{"inputs":[],"name":"unpause","outputs":[],"stateMutability":"nonpayable","type":"function"},{"inputs":[{"internalType":"uint256","name":"taskId","type":"uint256"},{"internalType":"bool","name":"success","type":"bool"}],"name":"verifyTask","outputs":[],"stateMutability":"nonpayable","type":"function"}],"evm":{"bytecode":{"linkReferences":{},"object":"6101c06040523480156200001257600080fd5b50604051620033cd380380620033cd8339810160408190526200003591620002dd565b604080518082018252601081526f10db185dd9d95c93585b9859d95c958d60821b60208083019190915282518084019093526001808452603160f81b91840191909152600055906200008982600262000244565b610120526200009a81600362000244565b61014052815160208084019190912060e052815190820120610100524660a0526200012860e05161010051604080517f8b73c3c69bb8fe3d512ecc4cf759cc79239f7b179b0ffacaa9a75d522b39400f60208201529081019290925260608201524660808201523060a082015260009060c00160405160208183030381529060405280519060200120905090565b60805250503060c0526001600160a01b0383166200017c5760405162461bcd60e51b815260206004820152600c60248201526b24b73b30b634b21021a623a960a11b60448201526064015b60405180910390fd5b6001600160a01b038216620001c75760405162461bcd60e51b815260206004820152601060248201526f496e76616c696420726567697374727960801b604482015260640162000173565b6001600160a01b038116620002115760405162461bcd60e51b815260206004820152600f60248201526e24b73b30b634b21031b630bbb3b2b960891b604482015260640162000173565b6001600160a01b03928316610160529082166101a0521661018052600a80546001600160a01b031916331790556200050d565b600060208351101562000264576200025c836200027d565b905062000277565b81620002718482620003cc565b5060ff90505b92915050565b600080829050601f81511115620002ab578260405163305a27a960e01b815260040162000173919062000498565b8051620002b882620004e8565b179392505050565b80516001600160a01b0381168114620002d857600080fd5b919050565b600080600060608486031215620002f357600080fd5b620002fe84620002c0565b92506200030e60208501620002c0565b91506200031e60408501620002c0565b90509250925092565b634e487b7160e01b600052604160045260246000fd5b600181811c908216806200035257607f821691505b6020821081036200037357634e487b7160e01b600052602260045260246000fd5b50919050565b601f821115620003c757600081815260208120601f850160051c81016020861015620003a25750805b601f850160051c820191505b81811015620003c357828155600101620003ae565b5050505b505050565b81516001600160401b03811115620003e857620003e862000327565b6200040081620003f984546200033d565b8462000379565b602080601f8311600181146200043857600084156200041f5750858301515b600019600386901b1c1916600185901b178555620003c3565b600085815260208120601f198616915b82811015620004695788860151825594840194600190910190840162000448565b5085821015620004885787850151600019600388901b60f8161c191681555b5050505050600190811b01905550565b600060208083528351808285015260005b81811015620004c757858101830151858201604001528201620004a9565b506000604082860101526040601f19601f8301168501019250505092915050565b80516020808301519190811015620003735760001960209190910360031b1b16919050565b60805160a05160c05160e05161010051610120516101405161016051610180516101a051612db862000615600039600081816103c101528181610bce01528181610ca701528181610e280152610f020152600081816102f30152818161084c015281816109ff01528181610d8701528181611a010152611c3b01526000818161033a01528181610b7e01528181610d5d01528181610dd7015281816111de01528181611232015281816113640152818161160a01528181611be301528181611c1901528181611c78015261215701526000611e7201526000611e4501526000611f7201526000611f4a01526000611ea501526000611ecf01526000611ef90152612db86000f3fe608060405234801561001057600080fd5b50600436106102065760003560e01c80637b1039991161011a578063a639a574116100ad578063df297e301161007c578063df297e301461050a578063e008779d14610531578063ed24911d14610551578063fb7f2dd814610559578063fccc28131461056c57600080fd5b8063a639a574146104c4578063a6b39cdd146104d3578063c4c11523146104e6578063c7895646146104f957600080fd5b80638d977672116100e95780638d977672146104165780638da5cb5b1461049e578063922509b7146104b15780639f26af12146104ba57600080fd5b80637b103999146103bc5780637e3681bd146103e35780638456cb59146103f357806384b0196e146103fb57600080fd5b80633a04bdb81161019d578063586717301161016c578063586717301461036f5780635c975abb146103785780635f9443261461038357806362ecc47a146103965780636517a7a1146103a957600080fd5b80633a04bdb8146102ee5780633f4ba83a1461032d578063480bacd1146103355780634b46e63e1461035c57600080fd5b80630c53627f116101d95780630c53627f146102795780630edddbc41461028157806313733774146102a85780632c200094146102bb57600080fd5b8063013cf08b1461020b5780630ab686741461023a5780630b08f6c41461025b5780630c0512e914610270575b600080fd5b61021e6102193660046126b3565b610575565b6040516102319796959493929190612728565b60405180910390f35b61024d6102483660046127ce565b610649565b604051908152602001610231565b61026e610269366004612821565b6106d8565b005b61024d60045481565b61024d603281565b61024d7f8aed9d06d0db0bf100f5d081c48f72de90d54bf6bf382178a5eb81da1c50ee1e81565b61024d6102b63660046128c0565b6108ee565b6102de6102c93660046126b3565b60096020526000908152604090205460ff1681565b6040519015158152602001610231565b6103157f000000000000000000000000000000000000000000000000000000000000000081565b6040516001600160a01b039091168152602001610231565b61026e610977565b6103157f000000000000000000000000000000000000000000000000000000000000000081565b61026e61036a36600461290e565b6109c7565b61024d60055481565b60015460ff166102de565b61026e6103913660046126b3565b610fc4565b61026e6103a43660046126b3565b6110a1565b61026e6103b73660046126b3565b6112ab565b6103157f000000000000000000000000000000000000000000000000000000000000000081565b61024d68056bc75e2d6310000081565b61026e6113f7565b610403611445565b6040516102319796959493929190612943565b6104886104243660046126b3565b6007602081905260009182526040909120805460018201546002830154600384015460048501546005860154600687015497870154600890970154959794966001600160a01b039485169694909316949193909260ff80841693610100900416918a565b6040516102319a999897969594939291906129d9565b600a54610315906001600160a01b031681565b61024d6103e881565b61024d62093a8081565b61024d670de0b6b3a764000081565b61024d6104e1366004612a47565b61148b565b61026e6104f43660046126b3565b6117a1565b61024d69d3c21bcecceda100000081565b61024d7faa9fb1b6b19c39367e5d85e18e63c1354df3d995985de53d25a9119bbdeac29d81565b61024d61053f3660046126b3565b60086020526000908152604090205481565b61024d611889565b61024d610567366004612a98565b611898565b61031561dead81565b60066020526000908152604090208054600182015460028301805492936001600160a01b03909216926105a790612b1a565b80601f01602080910402602001604051908101604052809291908181526020018280546105d390612b1a565b80156106205780601f106105f557610100808354040283529160200191610620565b820191906000526020600020905b81548152906001019060200180831161060357829003601f168201915b5050506003840154600485015460058601546006909601549495919490935060ff909116915087565b6000807f8aed9d06d0db0bf100f5d081c48f72de90d54bf6bf382178a5eb81da1c50ee1e86868660405161067e929190612b54565b6040519081900381206106ad939291879060200193845260208401929092526040830152606082015260800190565b6040516020818303038152906040528051906020012090506106ce81611aa8565b9695505050505050565b6106e0611adb565b824211156107295760405162461bcd60e51b815260206004820152601160248201527014da59db985d1d5c9948195e1c1a5c9959607a1b60448201526064015b60405180910390fd5b60008681526009602052604090205460ff161561077c5760405162461bcd60e51b8152602060048201526011602482015270105b1c9958591e481c1c9bd8d95cdcd959607a1b6044820152606401610720565b60007f8aed9d06d0db0bf100f5d081c48f72de90d54bf6bf382178a5eb81da1c50ee1e8787876040516107b0929190612b54565b6040519081900381206107df939291889060200193845260208401929092526040830152606082015260800190565b604051602081830303815290604052805190602001209050600061080282611aa8565b9050600061084885858080601f0160208091040260200160405190810160405280939291908181526020018383808284376000920191909152508693925050611aff9050565b90507f00000000000000000000000000000000000000000000000000000000000000006001600160a01b0316816001600160a01b0316146108bf5760405162461bcd60e51b8152602060048201526011602482015270496e76616c6964207369676e617475726560781b6044820152606401610720565b6000898152600960205260409020805460ff191660011790556108e3898989611b29565b505050505050505050565b604080517faa9fb1b6b19c39367e5d85e18e63c1354df3d995985de53d25a9119bbdeac29d60208201529081018690526001600160a01b0380861660608301528416608082015260a0810183905260c08101829052600090819060e00160405160208183030381529060405280519060200120905061096c81611aa8565b979650505050505050565b600a546001600160a01b031633146109bd5760405162461bcd60e51b81526020600482015260096024820152682737ba1037bbb732b960b91b6044820152606401610720565b6109c5611ce4565b565b6109cf611d36565b60008281526007602052604090206003015482906001600160a01b0316331480610a215750336001600160a01b037f000000000000000000000000000000000000000000000000000000000000000016145b610a6d5760405162461bcd60e51b815260206004820152601760248201527f4e6f74207665726966696572206f7220434c41574745520000000000000000006044820152606401610720565b60008381526007602052604090206003600682015460ff166005811115610a9657610a96612712565b14610ad35760405162461bcd60e51b815260206004820152600d60248201526c139bdd0818dbdb5c1b195d1959609a1b6044820152606401610720565b6006810154610100900460ff1615610b1f5760405162461bcd60e51b815260206004820152600f60248201526e105b1c9958591e481cd95d1d1b1959608a1b6044820152606401610720565b60068101805461ff0019166101001790556000848152600860205260409020548315610d495760068201805460ff19166004908117909155820154600090610b68908390612b7a565b6002840154909150610ba7906001600160a01b037f00000000000000000000000000000000000000000000000000000000000000008116911683611d60565b6002830154604051634e44d07160e11b81526001600160a01b0391821660048201526000917f00000000000000000000000000000000000000000000000000000000000000001690639c89a0e290602401602060405180830381865afa158015610c15573d6000803e3d6000fd5b505050506040513d601f19601f82011682018060405250810190610c399190612b8d565b90506000610c48826005612b7a565b90506064811115610c57575060645b600285015460405163bdd6f7a760e01b81526001600160a01b0391821660048201526024810183905260606044820152600e60648201526d15185cdac818dbdb5c1b195d195960921b60848201527f00000000000000000000000000000000000000000000000000000000000000009091169063bdd6f7a79060a401600060405180830381600087803b158015610ced57600080fd5b505af1158015610d01573d6000803e3d6000fd5b50506040805160018152602081018790528b93507fb5503bb8c034cb719b271a0cb88aeedcdc29408a5dbce32fc630086a3ddedd3c92500160405180910390a2505050610f9d565b60068201805460ff19166005179055610dac7f00000000000000000000000000000000000000000000000000000000000000006001600160a01b03167f000000000000000000000000000000000000000000000000000000000000000083611d60565b6001828101546000908152600660205260409020908101546004840154610e01916001600160a01b037f0000000000000000000000000000000000000000000000000000000000000000811692911690611d60565b6002830154604051634e44d07160e11b81526001600160a01b0391821660048201526000917f00000000000000000000000000000000000000000000000000000000000000001690639c89a0e290602401602060405180830381865afa158015610e6f573d6000803e3d6000fd5b505050506040513d601f19601f82011682018060405250810190610e939190612b8d565b90506000600f821015610ea7576000610eb2565b610eb2600f83612ba6565b600286015460405163bdd6f7a760e01b81526001600160a01b0391821660048201526024810183905260606044820152600b60648201526a15185cdac819985a5b195960aa1b60848201529192507f0000000000000000000000000000000000000000000000000000000000000000169063bdd6f7a79060a401600060405180830381600087803b158015610f4657600080fd5b505af1158015610f5a573d6000803e3d6000fd5b505060408051600080825260208201528b93507fb5503bb8c034cb719b271a0cb88aeedcdc29408a5dbce32fc630086a3ddedd3c92500160405180910390a25050505b50600084815260086020526040812081905560049091015550610fc06001600055565b5050565b60008181526007602052604090206002015481906001600160a01b03163314610fff5760405162461bcd60e51b815260040161072090612bb9565b60008281526007602052604090206001600682015460ff16600581111561102857611028612712565b146110625760405162461bcd60e51b815260206004820152600a602482015269139bdd08189bdb99195960b21b6044820152606401610720565b60068101805460ff1916600217905560405183907fa20ac7f16cfb4313b156d64f380ccd1f8276f438d0b621eb33db07cfc639da4790600090a2505050565b6110a9611d36565b60008181526007602052604090206003600682015460ff1660058111156110d2576110d2612712565b1461110f5760405162461bcd60e51b815260206004820152600d60248201526c139bdd0818dbdb5c1b195d1959609a1b6044820152606401610720565b6006810154610100900460ff161561115b5760405162461bcd60e51b815260206004820152600f60248201526e105b1c9958591e481cd95d1d1b1959608a1b6044820152606401610720565b62093a80816008015461116e9190612b7a565b4210156111ab5760405162461bcd60e51b815260206004820152600b60248201526a139bdd08195e1c1a5c995960aa1b6044820152606401610720565b60068101805461ffff19166101051790556000828152600860205260409020546002820154611207906001600160a01b037f00000000000000000000000000000000000000000000000000000000000000008116911683611d60565b600182810154600090815260066020526040902090810154600484015461125c916001600160a01b037f0000000000000000000000000000000000000000000000000000000000000000811692911690611d60565b600084815260086020526040808220829055600485018290555185917f7c2ecd5e2b7188ac57f3a370681639cb447c9cbfbbbace0c070adea6c73eaa5491a25050506112a86001600055565b50565b6112b3611d36565b60008181526007602052604090206002015481906001600160a01b031633146112ee5760405162461bcd60e51b815260040161072090612bb9565b600082815260076020526040812090600682015460ff16600581111561131657611316612712565b146113515760405162461bcd60e51b815260206004820152600b60248201526a139bdd0818dc99585d195960aa1b6044820152606401610720565b600581015461138e906001600160a01b037f0000000000000000000000000000000000000000000000000000000000000000169033903090611dc4565b600581015460008481526008602090815260409182902083905560068401805460ff191660011790559051918252339185917f03f700e483bf4492660028538534d4577a894d4d355068ee29433ab3fc23ab47910160405180910390a350506112a86001600055565b600a546001600160a01b0316331461143d5760405162461bcd60e51b81526020600482015260096024820152682737ba1037bbb732b960b91b6044820152606401610720565b6109c5611e03565b600060608060008060006060611459611e3e565b611461611e6b565b60408051600080825260208201909252600f60f81b9b939a50919850469750309650945092509050565b6000611495611adb565b836114d45760405162461bcd60e51b815260206004820152600f60248201526e456d707479206f626a65637469766560881b6044820152606401610720565b6103e884111561151b5760405162461bcd60e51b81526020600482015260126024820152714f626a65637469766520746f6f206c6f6e6760701b6044820152606401610720565b4282116115595760405162461bcd60e51b815260206004820152600c60248201526b42616420646561646c696e6560a01b6044820152606401610720565b6000831161159b5760405162461bcd60e51b815260206004820152600f60248201526e115cd8dc9bddc81c995c5d5a5c9959608a1b6044820152606401610720565b69d3c21bcecceda10000008311156115e85760405162461bcd60e51b815260206004820152601060248201526f457363726f7720746f6f206c6172676560801b6044820152606401610720565b611632333061160068056bc75e2d6310000087612b7a565b6001600160a01b037f000000000000000000000000000000000000000000000000000000000000000016929190611dc4565b600060046000815461164390612bf3565b91905081905590506040518060e00160405280828152602001336001600160a01b0316815260200187878080601f0160208091040260200160405190810160405280939291908181526020018383808284376000920182905250938552505050602082018790526040820186905260609091019081524260209182015260008381526006825260409081902083518155918301516001830180546001600160a01b0319166001600160a01b03909216919091179055820151600282019061170a9082612c5a565b50606082015181600301556080820151816004015560a08201518160050160006101000a81548160ff0219169083600381111561174957611749612712565b021790555060c091909101516006909101556040805185815260208101859052339183917f57a1faace4a7840fc17cabc57657d23725e308616debc3f77726a2183f2670f5910160405180910390a395945050505050565b60008181526007602052604090206002015481906001600160a01b031633146117dc5760405162461bcd60e51b815260040161072090612bb9565b60008281526007602052604090206002600682015460ff16600581111561180557611805612712565b146118445760405162461bcd60e51b815260206004820152600f60248201526e4e6f7420696e2070726f677265737360881b6044820152606401610720565b60068101805460ff1916600317905542600882015560405183907fc1fa7142cfb933d0855114a3bffde296944c30b727f297c14d0db4d553d3a5c790600090a2505050565b6000611893611e98565b905090565b60006118a2611adb565b834211156118e65760405162461bcd60e51b815260206004820152601160248201527014da59db985d1d5c9948195e1c1a5c9959607a1b6044820152606401610720565b60008881526009602052604090205460ff16156119395760405162461bcd60e51b8152602060048201526011602482015270105b1c9958591e481c1c9bd8d95cdcd959607a1b6044820152606401610720565b604080517faa9fb1b6b19c39367e5d85e18e63c1354df3d995985de53d25a9119bbdeac29d60208201529081018990526001600160a01b0380891660608301528716608082015260a0810186905260c0810185905260009060e00160405160208183030381529060405280519060200120905060006119b782611aa8565b905060006119fd86868080601f0160208091040260200160405190810160405280939291908181526020018383808284376000920191909152508693925050611aff9050565b90507f00000000000000000000000000000000000000000000000000000000000000006001600160a01b0316816001600160a01b031614611a745760405162461bcd60e51b8152602060048201526011602482015270496e76616c6964207369676e617475726560781b6044820152606401610720565b60008b8152600960205260409020805460ff19166001179055611a998b8b8b8b611fc3565b9b9a5050505050505050505050565b6000611ad5611ab5611e98565b8360405161190160f01b8152600281019290925260228201526042902090565b92915050565b60015460ff16156109c55760405163d93c066560e01b815260040160405180910390fd5b600080600080611b0f8686612338565b925092509250611b1f8282612385565b5090949350505050565b600083815260066020526040812090600582015460ff166003811115611b5157611b51612712565b14611b8c5760405162461bcd60e51b815260206004820152600b60248201526a4e6f742070656e64696e6760a81b6044820152606401610720565b60058101805460ff1916600217905560006064611bb3603268056bc75e2d63100000612d1a565b611bbd9190612d31565b90506000611bd48268056bc75e2d63100000612ba6565b9050611c0c6001600160a01b037f00000000000000000000000000000000000000000000000000000000000000001661dead84611d60565b611c606001600160a01b037f0000000000000000000000000000000000000000000000000000000000000000167f000000000000000000000000000000000000000000000000000000000000000083611d60565b60018301546003840154611ca2916001600160a01b037f0000000000000000000000000000000000000000000000000000000000000000811692911690611d60565b857fe5f9059dc551d2dcf73c3bc69f282e134799b450f062c909d9f7ff45951327bd8686604051611cd4929190612d53565b60405180910390a2505050505050565b611cec61243e565b6001805460ff191690557f5db9ee0a495bf2e6ff9c91a7834c1ba4fdd244a5e8aa4e537bd38aeae4b073aa335b6040516001600160a01b03909116815260200160405180910390a1565b600260005403611d5957604051633ee5aeb560e01b815260040160405180910390fd5b6002600055565b6040516001600160a01b03838116602483015260448201839052611dbf91859182169063a9059cbb906064015b604051602081830303815290604052915060e01b6020820180516001600160e01b038381831617835250505050612461565b505050565b6040516001600160a01b038481166024830152838116604483015260648201839052611dfd9186918216906323b872dd90608401611d8d565b50505050565b611e0b611adb565b6001805460ff1916811790557f62e78cea01bee320cd4e420270b5ea74000d11b0c9f74754ebdbfc544b05a25833611d19565b60606118937f000000000000000000000000000000000000000000000000000000000000000060026124d2565b60606118937f000000000000000000000000000000000000000000000000000000000000000060036124d2565b6000306001600160a01b037f000000000000000000000000000000000000000000000000000000000000000016148015611ef157507f000000000000000000000000000000000000000000000000000000000000000046145b15611f1b57507f000000000000000000000000000000000000000000000000000000000000000090565b611893604080517f8b73c3c69bb8fe3d512ecc4cf759cc79239f7b179b0ffacaa9a75d522b39400f60208201527f0000000000000000000000000000000000000000000000000000000000000000918101919091527f000000000000000000000000000000000000000000000000000000000000000060608201524660808201523060a082015260009060c00160405160208183030381529060405280519060200120905090565b600084815260066020526040812081600582015460ff166003811115611feb57611feb612712565b146120265760405162461bcd60e51b815260206004820152600b60248201526a4e6f742070656e64696e6760a81b6044820152606401610720565b806004015442106120635760405162461bcd60e51b8152602060048201526007602482015266115e1c1a5c995960ca1b6044820152606401610720565b6001600160a01b0385166120aa5760405162461bcd60e51b815260206004820152600e60248201526d24b73b30b634b2103bb7b935b2b960911b6044820152606401610720565b6001600160a01b0384166120f35760405162461bcd60e51b815260206004820152601060248201526f24b73b30b634b2103b32b934b334b2b960811b6044820152606401610720565b670de0b6b3a764000083101561213c5760405162461bcd60e51b815260206004820152600e60248201526d109bdb99081d1bdbc81cdb585b1b60921b6044820152606401610720565b60058101805460ff19166001908117909155810154612192907f00000000000000000000000000000000000000000000000000000000000000006001600160a01b03908116911668056bc75e2d63100000611d60565b60006005600081546121a390612bf3565b9190508190559050604051806101400160405280828152602001888152602001876001600160a01b03168152602001866001600160a01b03168152602001836003015481526020018581526020016000600581111561220457612204612712565b81526000602080830182905242604080850191909152606093840183905285835260078252918290208451815590840151600180830191909155918401516002820180546001600160a01b03199081166001600160a01b0393841617909155938501516003830180549095169116179092556080830151600483015560a083015160058084019190915560c08401516006840180549193909260ff199092169184908111156122b5576122b5612712565b021790555060e082015160068201805461ff00191661010092151583021790558201516007820155610120909101516008909101556040516001600160a01b038681168252871690829089907fc871951ed5e4ab863f8d91af56af516212c52a36a82694b32be47292e4f0e2ae9060200160405180910390a49695505050505050565b600080600083516041036123725760208401516040850151606086015160001a6123648882858561257d565b95509550955050505061237e565b50508151600091506002905b9250925092565b600082600381111561239957612399612712565b036123a2575050565b60018260038111156123b6576123b6612712565b036123d45760405163f645eedf60e01b815260040160405180910390fd5b60028260038111156123e8576123e8612712565b036124095760405163fce698f760e01b815260048101829052602401610720565b600382600381111561241d5761241d612712565b03610fc0576040516335e2f38360e21b815260048101829052602401610720565b60015460ff166109c557604051638dfc202b60e01b815260040160405180910390fd5b600080602060008451602086016000885af180612484576040513d6000823e3d81fd5b50506000513d9150811561249c5780600114156124a9565b6001600160a01b0384163b155b15611dfd57604051635274afe760e01b81526001600160a01b0385166004820152602401610720565b606060ff83146124ec576124e58361264c565b9050611ad5565b8180546124f890612b1a565b80601f016020809104026020016040519081016040528092919081815260200182805461252490612b1a565b80156125715780601f1061254657610100808354040283529160200191612571565b820191906000526020600020905b81548152906001019060200180831161255457829003601f168201915b50505050509050611ad5565b600080807f7fffffffffffffffffffffffffffffff5d576e7357a4501ddfe92f46681b20a08411156125b85750600091506003905082612642565b604080516000808252602082018084528a905260ff891692820192909252606081018790526080810186905260019060a0016020604051602081039080840390855afa15801561260c573d6000803e3d6000fd5b5050604051601f1901519150506001600160a01b03811661263857506000925060019150829050612642565b9250600091508190505b9450945094915050565b606060006126598361268b565b604080516020808252818301909252919250600091906020820181803683375050509182525060208101929092525090565b600060ff8216601f811115611ad557604051632cd44ac360e21b815260040160405180910390fd5b6000602082840312156126c557600080fd5b5035919050565b6000815180845260005b818110156126f2576020818501810151868301820152016126d6565b506000602082860101526020601f19601f83011685010191505092915050565b634e487b7160e01b600052602160045260246000fd5b8781526001600160a01b038716602082015260e060408201819052600090612752908301886126cc565b90508560608301528460808301526004841061277057612770612712565b60a082019390935260c0015295945050505050565b60008083601f84011261279757600080fd5b50813567ffffffffffffffff8111156127af57600080fd5b6020830191508360208285010111156127c757600080fd5b9250929050565b600080600080606085870312156127e457600080fd5b84359350602085013567ffffffffffffffff81111561280257600080fd5b61280e87828801612785565b9598909750949560400135949350505050565b6000806000806000806080878903121561283a57600080fd5b86359550602087013567ffffffffffffffff8082111561285957600080fd5b6128658a838b01612785565b909750955060408901359450606089013591508082111561288557600080fd5b5061289289828a01612785565b979a9699509497509295939492505050565b80356001600160a01b03811681146128bb57600080fd5b919050565b600080600080600060a086880312156128d857600080fd5b853594506128e8602087016128a4565b93506128f6604087016128a4565b94979396509394606081013594506080013592915050565b6000806040838503121561292157600080fd5b823591506020830135801515811461293857600080fd5b809150509250929050565b60ff60f81b881681526000602060e08184015261296360e084018a6126cc565b8381036040850152612975818a6126cc565b606085018990526001600160a01b038816608086015260a0850187905284810360c0860152855180825283870192509083019060005b818110156129c7578351835292840192918401916001016129ab565b50909c9b505050505050505050505050565b8a8152602081018a90526001600160a01b038981166040830152881660608201526080810187905260a08101869052610140810160068610612a1d57612a1d612712565b60c082019590955292151560e0840152610100830191909152610120909101529695505050505050565b60008060008060608587031215612a5d57600080fd5b843567ffffffffffffffff811115612a7457600080fd5b612a8087828801612785565b90989097506020870135966040013595509350505050565b600080600080600080600060c0888a031215612ab357600080fd5b87359650612ac3602089016128a4565b9550612ad1604089016128a4565b9450606088013593506080880135925060a088013567ffffffffffffffff811115612afb57600080fd5b612b078a828b01612785565b989b979a50959850939692959293505050565b600181811c90821680612b2e57607f821691505b602082108103612b4e57634e487b7160e01b600052602260045260246000fd5b50919050565b8183823760009101908152919050565b634e487b7160e01b600052601160045260246000fd5b80820180821115611ad557611ad5612b64565b600060208284031215612b9f57600080fd5b5051919050565b81810381811115611ad557611ad5612b64565b6020808252600a90820152692737ba103bb7b935b2b960b11b604082015260600190565b634e487b7160e01b600052604160045260246000fd5b600060018201612c0557612c05612b64565b5060010190565b601f821115611dbf57600081815260208120601f850160051c81016020861015612c335750805b601f850160051c820191505b81811015612c5257828155600101612c3f565b505050505050565b815167ffffffffffffffff811115612c7457612c74612bdd565b612c8881612c828454612b1a565b84612c0c565b602080601f831160018114612cbd5760008415612ca55750858301515b600019600386901b1c1916600185901b178555612c52565b600085815260208120601f198616915b82811015612cec57888601518255948401946001909101908401612ccd565b5085821015612d0a5787850151600019600388901b60f8161c191681555b5050505050600190811b01905550565b8082028115828204841417611ad557611ad5612b64565b600082612d4e57634e487b7160e01b600052601260045260246000fd5b500490565b60208152816020820152818360408301376000818301604090810191909152601f909201601f1916010191905056fea2646970667358221220e66661879b6ca02c91ca85d4b4a9fc63cdd0ec5e8f2466abab45f4f4c7a3642564736f6c63430008140033","opcodes":"PUSH2 0x1C0 PUSH1 0x40 MSTORE CALLVALUE DUP1 ISZERO PUSH3 0x12 JUMPI PUSH1 0x0 DUP1 REVERT JUMPDEST POP PUSH1 0x40 MLOAD PUSH3 0x33CD CODESIZE SUB DUP1 PUSH3 0x33CD DUP4 CODECOPY DUP2 ADD PUSH1 0x40 DUP2 SWAP1 MSTORE PUSH3 0x35 SWAP2 PUSH3 0x2DD JUMP JUMPDEST PUSH1 0x40 DUP1 MLOAD DUP1 DUP3 ADD DUP3 MSTORE PUSH1 0x10 DUP2 MSTORE PUSH16 0x10DB185DD9D95C93585B9859D95C958D PUSH1 0x82 SHL PUSH1 0x20 DUP1 DUP4 ADD SWAP2 SWAP1 SWAP2 MSTORE DUP3 MLOAD DUP1 DUP5 ADD SWAP1 SWAP4 MSTORE PUSH1 0x1 DUP1 DUP5 MSTORE PUSH1 0x31 PUSH1 0xF8 SHL SWAP2 DUP5 ADD SWAP2 SWAP1 SWAP2 MSTORE PUSH1 0x0 SSTORE SWAP1 PUSH3 0x89 DUP3 PUSH1 0x2 PUSH3 0x244 JUMP JUMPDEST PUSH2 0x120 MSTORE PUSH3 0x9A DUP2 PUSH1 0x3 PUSH3 0x244 JUMP JUMPDEST PUSH2 0x140 MSTORE DUP2 MLOAD PUSH1 0x20 DUP1 DUP5 ADD SWAP2 SWAP1 SWAP2 KECCAK256 PUSH1 0xE0 MSTORE DUP2 MLOAD SWAP1 DUP3 ADD KECCAK256 PUSH2 0x100 MSTORE CHAINID PUSH1 0xA0 MSTORE PUSH3 0x128 PUSH1 0xE0 MLOAD PUSH2 0x100 MLOAD PUSH1 0x40 DUP1 MLOAD PUSH32 0x8B73C3C69BB8FE3D512ECC4CF759CC79239F7B179B0FFACAA9A75D522B39400F PUSH1 0x20 DUP3 ADD MSTORE SWAP1 DUP2 ADD SWAP3 SWAP1 SWAP3 MSTORE PUSH1 0x60 DUP3 ADD MSTORE CHAINID PUSH1 0x80 DUP3 ADD MSTORE ADDRESS PUSH1 0xA0 DUP3 ADD MSTORE PUSH1 0x0 SWAP1 PUSH1 0xC0 ADD PUSH1 0x40 MLOAD PUSH1 0x20 DUP2 DUP4 SUB SUB DUP2 MSTORE SWAP1 PUSH1 0x40 MSTORE DUP1 MLOAD SWAP1 PUSH1 0x20 ADD KECCAK256 SWAP1 POP SWAP1 JUMP JUMPDEST PUSH1 0x80 MSTORE POP POP ADDRESS PUSH1 0xC0 MSTORE PUSH1 0x1 PUSH1 0x1 PUSH1 0xA0 SHL SUB DUP4 AND PUSH3 0x17C JUMPI PUSH1 0x40 MLOAD PUSH3 0x461BCD PUSH1 0xE5 SHL DUP2 MSTORE PUSH1 0x20 PUSH1 0x4 DUP3 ADD MSTORE PUSH1 0xC PUSH1 0x24 DUP3 ADD MSTORE PUSH12 0x24B73B30B634B21021A623A9 PUSH1 0xA1 SHL PUSH1 0x44 DUP3 ADD MSTORE PUSH1 0x64 ADD JUMPDEST PUSH1 0x40 MLOAD DUP1 SWAP2 SUB SWAP1 REVERT JUMPDEST PUSH1 0x1 PUSH1 0x1 PUSH1 0xA0 SHL SUB DUP3 AND PUSH3 0x1C7 JUMPI PUSH1 0x40 MLOAD PUSH3 0x461BCD PUSH1 0xE5 SHL DUP2 MSTORE PUSH1 0x20 PUSH1 0x4 DUP3 ADD MSTORE PUSH1 0x10 PUSH1 0x24 DUP3 ADD MSTORE PUSH16 0x496E76616C6964207265676973747279 PUSH1 0x80 SHL PUSH1 0x44 DUP3 ADD MSTORE PUSH1 0x64 ADD PUSH3 0x173 JUMP JUMPDEST PUSH1 0x1 PUSH1 0x1 PUSH1 0xA0 SHL SUB DUP2 AND PUSH3 0x211 JUMPI PUSH1 0x40 MLOAD PUSH3 0x461BCD PUSH1 0xE5 SHL DUP2 MSTORE PUSH1 0x20 PUSH1 0x4 DUP3 ADD MSTORE PUSH1 0xF PUSH1 0x24 DUP3 ADD MSTORE PUSH15 0x24B73B30B634B21031B630BBB3B2B9 PUSH1 0x89 SHL PUSH1 0x44 DUP3 ADD MSTORE PUSH1 0x64 ADD PUSH3 0x173 JUMP JUMPDEST PUSH1 0x1 PUSH1 0x1 PUSH1 0xA0 SHL SUB SWAP3 DUP4 AND PUSH2 0x160 MSTORE SWAP1 DUP3 AND PUSH2 0x1A0 MSTORE AND PUSH2 0x180 MSTORE PUSH1 0xA DUP1 SLOAD PUSH1 0x1 PUSH1 0x1 PUSH1 0xA0 SHL SUB NOT AND CALLER OR SWAP1 SSTORE PUSH3 0x50D JUMP JUMPDEST PUSH1 0x0 PUSH1 0x20 DUP4 MLOAD LT ISZERO PUSH3 0x264 JUMPI PUSH3 0x25C DUP4 PUSH3 0x27D JUMP JUMPDEST SWAP1 POP PUSH3 0x277 JUMP JUMPDEST DUP2 PUSH3 0x271 DUP5 DUP3 PUSH3 0x3CC JUMP JUMPDEST POP PUSH1 0xFF SWAP1 POP JUMPDEST SWAP3 SWAP2 POP POP JUMP JUMPDEST PUSH1 0x0 DUP1 DUP3 SWAP1 POP PUSH1 0x1F DUP2 MLOAD GT ISZERO PUSH3 0x2AB JUMPI DUP3 PUSH1 0x40 MLOAD PUSH4 0x305A27A9 PUSH1 0xE0 SHL DUP2 MSTORE PUSH1 0x4 ADD PUSH3 0x173 SWAP2 SWAP1 PUSH3 0x498 JUMP JUMPDEST DUP1 MLOAD PUSH3 0x2B8 DUP3 PUSH3 0x4E8 JUMP JUMPDEST OR SWAP4 SWAP3 POP POP POP JUMP JUMPDEST DUP1 MLOAD PUSH1 0x1 PUSH1 0x1 PUSH1 0xA0 SHL SUB DUP2 AND DUP2 EQ PUSH3 0x2D8 JUMPI PUSH1 0x0 DUP1 REVERT JUMPDEST SWAP2 SWAP1 POP JUMP JUMPDEST PUSH1 0x0 DUP1 PUSH1 0x0 PUSH1 0x60 DUP5 DUP7 SUB SLT ISZERO PUSH3 0x2F3 JUMPI PUSH1 0x0 DUP1 REVERT JUMPDEST PUSH3 0x2FE DUP5 PUSH3 0x2C0 JUMP JUMPDEST SWAP3 POP PUSH3 0x30E PUSH1 0x20 DUP6 ADD PUSH3 0x2C0 JUMP JUMPDEST SWAP2 POP PUSH3 0x31E PUSH1 0x40 DUP6 ADD PUSH3 0x2C0 JUMP JUMPDEST SWAP1 POP SWAP3 POP SWAP3 POP SWAP3 JUMP JUMPDEST PUSH4 0x4E487B71 PUSH1 0xE0 SHL PUSH1 0x0 MSTORE PUSH1 0x41 PUSH1 0x4 MSTORE PUSH1 0x24 PUSH1 0x0 REVERT JUMPDEST PUSH1 0x1 DUP2 DUP2 SHR SWAP1 DUP3 AND DUP1 PUSH3 0x352 JUMPI PUSH1 0x7F DUP3 AND SWAP2 POP JUMPDEST PUSH1 0x20 DUP3 LT DUP2 SUB PUSH3 0x373 JUMPI PUSH4 0x4E487B71 PUSH1 0xE0 SHL PUSH1 0x0 MSTORE PUSH1 0x22 PUSH1 0x4 MSTORE PUSH1 0x24 PUSH1 0x0 REVERT JUMPDEST POP SWAP2 SWAP1 POP JUMP JUMPDEST PUSH1 0x1F DUP3 GT ISZERO PUSH3 0x3C7 JUMPI PUSH1 0x0 DUP2 DUP2 MSTORE PUSH1 0x20 DUP2 KECCAK256 PUSH1 0x1F DUP6 ADD PUSH1 0x5 SHR DUP2 ADD PUSH1 0x20 DUP7 LT ISZERO PUSH3 0x3A2 JUMPI POP DUP1 JUMPDEST PUSH1 0x1F DUP6 ADD PUSH1 0x5 SHR DUP3 ADD SWAP2 POP JUMPDEST DUP2 DUP2 LT ISZERO PUSH3 0x3C3 JUMPI DUP3 DUP2 SSTORE PUSH1 0x1 ADD PUSH3 0x3AE JUMP JUMPDEST POP POP POP JUMPDEST POP POP POP JUMP JUMPDEST DUP2 MLOAD PUSH1 0x1 PUSH1 0x1 PUSH1 0x40 SHL SUB DUP2 GT ISZERO PUSH3 0x3E8 JUMPI PUSH3 0x3E8 PUSH3 0x327 JUMP JUMPDEST PUSH3 0x400 DUP2 PUSH3 0x3F9 DUP5 SLOAD PUSH3 0x33D JUMP JUMPDEST DUP5 PUSH3 0x379 JUMP JUMPDEST PUSH1 0x20 DUP1 PUSH1 0x1F DUP4 GT PUSH1 0x1 DUP2 EQ PUSH3 0x438 JUMPI PUSH1 0x0 DUP5 ISZERO PUSH3 0x41F JUMPI POP DUP6 DUP4 ADD MLOAD JUMPDEST PUSH1 0x0 NOT PUSH1 0x3 DUP7 SWAP1 SHL SHR NOT AND PUSH1 0x1 DUP6 SWAP1 SHL OR DUP6 SSTORE PUSH3 0x3C3 JUMP JUMPDEST PUSH1 0x0 DUP6 DUP2 MSTORE PUSH1 0x20 DUP2 KECCAK256 PUSH1 0x1F NOT DUP7 AND SWAP2 JUMPDEST DUP3 DUP2 LT ISZERO PUSH3 0x469 JUMPI DUP9 DUP7 ADD MLOAD DUP3 SSTORE SWAP5 DUP5 ADD SWAP5 PUSH1 0x1 SWAP1 SWAP2 ADD SWAP1 DUP5 ADD PUSH3 0x448 JUMP JUMPDEST POP DUP6 DUP3 LT ISZERO PUSH3 0x488 JUMPI DUP8 DUP6 ADD MLOAD PUSH1 0x0 NOT PUSH1 0x3 DUP9 SWAP1 SHL PUSH1 0xF8 AND SHR NOT AND DUP2 SSTORE JUMPDEST POP POP POP POP POP PUSH1 0x1 SWAP1 DUP2 SHL ADD SWAP1 SSTORE POP JUMP JUMPDEST PUSH1 0x0 PUSH1 0x20 DUP1 DUP4 MSTORE DUP4 MLOAD DUP1 DUP3 DUP6 ADD MSTORE PUSH1 0x0 JUMPDEST DUP2 DUP2 LT ISZERO PUSH3 0x4C7 JUMPI DUP6 DUP2 ADD DUP4 ADD MLOAD DUP6 DUP3 ADD PUSH1 0x40 ADD MSTORE DUP3 ADD PUSH3 0x4A9 JUMP JUMPDEST POP PUSH1 0x0 PUSH1 0x40 DUP3 DUP7 ADD ADD MSTORE PUSH1 0x40 PUSH1 0x1F NOT PUSH1 0x1F DUP4 ADD AND DUP6 ADD ADD SWAP3 POP POP POP SWAP3 SWAP2 POP POP JUMP JUMPDEST DUP1 MLOAD PUSH1 0x20 DUP1 DUP4 ADD MLOAD SWAP2 SWAP1 DUP2 LT ISZERO PUSH3 0x373 JUMPI PUSH1 0x0 NOT PUSH1 0x20 SWAP2 SWAP1 SWAP2 SUB PUSH1 0x3 SHL SHL AND SWAP2 SWAP1 POP JUMP JUMPDEST PUSH1 0x80 MLOAD PUSH1 0xA0 MLOAD PUSH1 0xC0 MLOAD PUSH1 0xE0 MLOAD PUSH2 0x100 MLOAD PUSH2 0x120 MLOAD PUSH2 0x140 MLOAD PUSH2 0x160 MLOAD PUSH2 0x180 MLOAD PUSH2 0x1A0 MLOAD PUSH2 0x2DB8 PUSH3 0x615 PUSH1 0x0 CODECOPY PUSH1 0x0 DUP2 DUP2 PUSH2 0x3C1 ADD MSTORE DUP2 DUP2 PUSH2 0xBCE ADD MSTORE DUP2 DUP2 PUSH2 0xCA7 ADD MSTORE DUP2 DUP2 PUSH2 0xE28 ADD MSTORE PUSH2 0xF02 ADD MSTORE PUSH1 0x0 DUP2 DUP2 PUSH2 0x2F3 ADD MSTORE DUP2 DUP2 PUSH2 0x84C ADD MSTORE DUP2 DUP2 PUSH2 0x9FF ADD MSTORE DUP2 DUP2 PUSH2 0xD87 ADD MSTORE DUP2 DUP2 PUSH2 0x1A01 ADD MSTORE PUSH2 0x1C3B ADD MSTORE PUSH1 0x0 DUP2 DUP2 PUSH2 0x33A ADD MSTORE DUP2 DUP2 PUSH2 0xB7E ADD MSTORE DUP2 DUP2 PUSH2 0xD5D ADD MSTORE DUP2 DUP2 PUSH2 0xDD7 ADD MSTORE DUP2 DUP2 PUSH2 0x11DE ADD MSTORE DUP2 DUP2 PUSH2 0x1232 ADD MSTORE DUP2 DUP2 PUSH2 0x1364 ADD MSTORE DUP2 DUP2 PUSH2 0x160A ADD MSTORE DUP2 DUP2 PUSH2 0x1BE3 ADD MSTORE DUP2 DUP2 PUSH2 0x1C19 ADD MSTORE DUP2 DUP2 PUSH2 0x1C78 ADD MSTORE PUSH2 0x2157 ADD MSTORE PUSH1 0x0 PUSH2 0x1E72 ADD MSTORE PUSH1 0x0 PUSH2 0x1E45 ADD MSTORE PUSH1 0x0 PUSH2 0x1F72 ADD MSTORE PUSH1 0x0 PUSH2 0x1F4A ADD MSTORE PUSH1 0x0 PUSH2 0x1EA5 ADD MSTORE PUSH1 0x0 PUSH2 0x1ECF ADD MSTORE PUSH1 0x0 PUSH2 0x1EF9 ADD MSTORE PUSH2 0x2DB8 PUSH1 0x0 RETURN INVALID PUSH1 0x80 PUSH1 0x40 MSTORE CALLVALUE DUP1 ISZERO PUSH2 0x10 JUMPI PUSH1 0x0 DUP1 REVERT JUMPDEST POP PUSH1 0x4 CALLDATASIZE LT PUSH2 0x206 JUMPI PUSH1 0x0 CALLDATALOAD PUSH1 0xE0 SHR DUP1 PUSH4 0x7B103999 GT PUSH2 0x11A JUMPI DUP1 PUSH4 0xA639A574 GT PUSH2 0xAD JUMPI DUP1 PUSH4 0xDF297E30 GT PUSH2 0x7C JUMPI DUP1 PUSH4 0xDF297E30 EQ PUSH2 0x50A JUMPI DUP1 PUSH4 0xE008779D EQ PUSH2 0x531 JUMPI DUP1 PUSH4 0xED24911D EQ PUSH2 0x551 JUMPI DUP1 PUSH4 0xFB7F2DD8 EQ PUSH2 0x559 JUMPI DUP1 PUSH4 0xFCCC2813 EQ PUSH2 0x56C JUMPI PUSH1 0x0 DUP1 REVERT JUMPDEST DUP1 PUSH4 0xA639A574 EQ PUSH2 0x4C4 JUMPI DUP1 PUSH4 0xA6B39CDD EQ PUSH2 0x4D3 JUMPI DUP1 PUSH4 0xC4C11523 EQ PUSH2 0x4E6 JUMPI DUP1 PUSH4 0xC7895646 EQ PUSH2 0x4F9 JUMPI PUSH1 0x0 DUP1 REVERT JUMPDEST DUP1 PUSH4 0x8D977672 GT PUSH2 0xE9 JUMPI DUP1 PUSH4 0x8D977672 EQ PUSH2 0x416 JUMPI DUP1 PUSH4 0x8DA5CB5B EQ PUSH2 0x49E JUMPI DUP1 PUSH4 0x922509B7 EQ PUSH2 0x4B1 JUMPI DUP1 PUSH4 0x9F26AF12 EQ PUSH2 0x4BA JUMPI PUSH1 0x0 DUP1 REVERT JUMPDEST DUP1 PUSH4 0x7B103999 EQ PUSH2 0x3BC JUMPI DUP1 PUSH4 0x7E3681BD EQ PUSH2 0x3E3 JUMPI DUP1 PUSH4 0x8456CB59 EQ PUSH2 0x3F3 JUMPI DUP1 PUSH4 0x84B0196E EQ PUSH2 0x3FB JUMPI PUSH1 0x0 DUP1 REVERT JUMPDEST DUP1 PUSH4 0x3A04BDB8 GT PUSH2 0x19D JUMPI DUP1 PUSH4 0x58671730 GT PUSH2 0x16C JUMPI DUP1 PUSH4 0x58671730 EQ PUSH2 0x36F JUMPI DUP1 PUSH4 0x5C975ABB EQ PUSH2 0x378 JUMPI DUP1 PUSH4 0x5F944326 EQ PUSH2 0x383 JUMPI DUP1 PUSH4 0x62ECC47A EQ PUSH2 0x396 JUMPI DUP1 PUSH4 0x6517A7A1 EQ PUSH2 0x3A9 JUMPI PUSH1 0x0 DUP1 REVERT JUMPDEST DUP1 PUSH4 0x3A04BDB8 EQ PUSH2 0x2EE JUMPI DUP1 PUSH4 0x3F4BA83A EQ PUSH2 0x32D JUMPI DUP1 PUSH4 0x480BACD1 EQ PUSH2 0x335 JUMPI DUP1 PUSH4 0x4B46E63E EQ PUSH2 0x35C JUMPI PUSH1 0x0 DUP1 REVERT JUMPDEST DUP1 PUSH4 0xC53627F GT PUSH2 0x1D9 JUMPI DUP1 PUSH4 0xC53627F EQ PUSH2 0x279 JUMPI DUP1 PUSH4 0xEDDDBC4 EQ PUSH2 0x281 JUMPI DUP1 PUSH4 0x13733774 EQ PUSH2 0x2A8 JUMPI DUP1 PUSH4 0x2C200094 EQ PUSH2 0x2BB JUMPI PUSH1 0x0 DUP1 REVERT JUMPDEST DUP1 PUSH4 0x13CF08B EQ PUSH2 0x20B JUMPI DUP1 PUSH4 0xAB68674 EQ PUSH2 0x23A JUMPI DUP1 PUSH4 0xB08F6C4 EQ PUSH2 0x25B JUMPI DUP1 PUSH4 0xC0512E9 EQ PUSH2 0x270 JUMPI JUMPDEST PUSH1 0x0 DUP1 REVERT JUMPDEST PUSH2 0x21E PUSH2 0x219 CALLDATASIZE PUSH1 0x4 PUSH2 0x26B3 JUMP JUMPDEST PUSH2 0x575 JUMP JUMPDEST PUSH1 0x40 MLOAD PUSH2 0x231 SWAP8 SWAP7 SWAP6 SWAP5 SWAP4 SWAP3 SWAP2 SWAP1 PUSH2 0x2728 JUMP JUMPDEST PUSH1 0x40 MLOAD DUP1 SWAP2 SUB SWAP1 RETURN JUMPDEST PUSH2 0x24D PUSH2 0x248 CALLDATASIZE PUSH1 0x4 PUSH2 0x27CE JUMP JUMPDEST PUSH2 0x649 JUMP JUMPDEST PUSH1 0x40 MLOAD SWAP1 DUP2 MSTORE PUSH1 0x20 ADD PUSH2 0x231 JUMP JUMPDEST PUSH2 0x26E PUSH2 0x269 CALLDATASIZE PUSH1 0x4 PUSH2 0x2821 JUMP JUMPDEST PUSH2 0x6D8 JUMP JUMPDEST STOP JUMPDEST PUSH2 0x24D PUSH1 0x4 SLOAD DUP2 JUMP JUMPDEST PUSH2 0x24D PUSH1 0x32 DUP2 JUMP JUMPDEST PUSH2 0x24D PUSH32 0x8AED9D06D0DB0BF100F5D081C48F72DE90D54BF6BF382178A5EB81DA1C50EE1E DUP2 JUMP JUMPDEST PUSH2 0x24D PUSH2 0x2B6 CALLDATASIZE PUSH1 0x4 PUSH2 0x28C0 JUMP JUMPDEST PUSH2 0x8EE JUMP JUMPDEST PUSH2 0x2DE PUSH2 0x2C9 CALLDATASIZE PUSH1 0x4 PUSH2 0x26B3 JUMP JUMPDEST PUSH1 0x9 PUSH1 0x20 MSTORE PUSH1 0x0 SWAP1 DUP2 MSTORE PUSH1 0x40 SWAP1 KECCAK256 SLOAD PUSH1 0xFF AND DUP2 JUMP JUMPDEST PUSH1 0x40 MLOAD SWAP1 ISZERO ISZERO DUP2 MSTORE PUSH1 0x20 ADD PUSH2 0x231 JUMP JUMPDEST PUSH2 0x315 PUSH32 0x0 DUP2 JUMP JUMPDEST PUSH1 0x40 MLOAD PUSH1 0x1 PUSH1 0x1 PUSH1 0xA0 SHL SUB SWAP1 SWAP2 AND DUP2 MSTORE PUSH1 0x20 ADD PUSH2 0x231 JUMP JUMPDEST PUSH2 0x26E PUSH2 0x977 JUMP JUMPDEST PUSH2 0x315 PUSH32 0x0 DUP2 JUMP JUMPDEST PUSH2 0x26E PUSH2 0x36A CALLDATASIZE PUSH1 0x4 PUSH2 0x290E JUMP JUMPDEST PUSH2 0x9C7 JUMP JUMPDEST PUSH2 0x24D PUSH1 0x5 SLOAD DUP2 JUMP JUMPDEST PUSH1 0x1 SLOAD PUSH1 0xFF AND PUSH2 0x2DE JUMP JUMPDEST PUSH2 0x26E PUSH2 0x391 CALLDATASIZE PUSH1 0x4 PUSH2 0x26B3 JUMP JUMPDEST PUSH2 0xFC4 JUMP JUMPDEST PUSH2 0x26E PUSH2 0x3A4 CALLDATASIZE PUSH1 0x4 PUSH2 0x26B3 JUMP JUMPDEST PUSH2 0x10A1 JUMP JUMPDEST PUSH2 0x26E PUSH2 0x3B7 CALLDATASIZE PUSH1 0x4 PUSH2 0x26B3 JUMP JUMPDEST PUSH2 0x12AB JUMP JUMPDEST PUSH2 0x315 PUSH32 0x0 DUP2 JUMP JUMPDEST PUSH2 0x24D PUSH9 0x56BC75E2D63100000 DUP2 JUMP JUMPDEST PUSH2 0x26E PUSH2 0x13F7 JUMP JUMPDEST PUSH2 0x403 PUSH2 0x1445 JUMP JUMPDEST PUSH1 0x40 MLOAD PUSH2 0x231 SWAP8 SWAP7 SWAP6 SWAP5 SWAP4 SWAP3 SWAP2 SWAP1 PUSH2 0x2943 JUMP JUMPDEST PUSH2 0x488 PUSH2 0x424 CALLDATASIZE PUSH1 0x4 PUSH2 0x26B3 JUMP JUMPDEST PUSH1 0x7 PUSH1 0x20 DUP2 SWAP1 MSTORE PUSH1 0x0 SWAP2 DUP3 MSTORE PUSH1 0x40 SWAP1 SWAP2 KECCAK256 DUP1 SLOAD PUSH1 0x1 DUP3 ADD SLOAD PUSH1 0x2 DUP4 ADD SLOAD PUSH1 0x3 DUP5 ADD SLOAD PUSH1 0x4 DUP6 ADD SLOAD PUSH1 0x5 DUP7 ADD SLOAD PUSH1 0x6 DUP8 ADD SLOAD SWAP8 DUP8 ADD SLOAD PUSH1 0x8 SWAP1 SWAP8 ADD SLOAD SWAP6 SWAP8 SWAP5 SWAP7 PUSH1 0x1 PUSH1 0x1 PUSH1 0xA0 SHL SUB SWAP5 DUP6 AND SWAP7 SWAP5 SWAP1 SWAP4 AND SWAP5 SWAP2 SWAP4 SWAP1 SWAP3 PUSH1 0xFF DUP1 DUP5 AND SWAP4 PUSH2 0x100 SWAP1 DIV AND SWAP2 DUP11 JUMP JUMPDEST PUSH1 0x40 MLOAD PUSH2 0x231 SWAP11 SWAP10 SWAP9 SWAP8 SWAP7 SWAP6 SWAP5 SWAP4 SWAP3 SWAP2 SWAP1 PUSH2 0x29D9 JUMP JUMPDEST PUSH1 0xA SLOAD PUSH2 0x315 SWAP1 PUSH1 0x1 PUSH1 0x1 PUSH1 0xA0 SHL SUB AND DUP2 JUMP JUMPDEST PUSH2 0x24D PUSH2 0x3E8 DUP2 JUMP JUMPDEST PUSH2 0x24D PUSH3 0x93A80 DUP2 JUMP JUMPDEST PUSH2 0x24D PUSH8 0xDE0B6B3A7640000 DUP2 JUMP JUMPDEST PUSH2 0x24D PUSH2 0x4E1 CALLDATASIZE PUSH1 0x4 PUSH2 0x2A47 JUMP JUMPDEST PUSH2 0x148B JUMP JUMPDEST PUSH2 0x26E PUSH2 0x4F4 CALLDATASIZE PUSH1 0x4 PUSH2 0x26B3 JUMP JUMPDEST PUSH2 0x17A1 JUMP JUMPDEST PUSH2 0x24D PUSH10 0xD3C21BCECCEDA1000000 DUP2 JUMP JUMPDEST PUSH2 0x24D PUSH32 0xAA9FB1B6B19C39367E5D85E18E63C1354DF3D995985DE53D25A9119BBDEAC29D DUP2 JUMP JUMPDEST PUSH2 0x24D PUSH2 0x53F CALLDATASIZE PUSH1 0x4 PUSH2 0x26B3 JUMP JUMPDEST PUSH1 0x8 PUSH1 0x20 MSTORE PUSH1 0x0 SWAP1 DUP2 MSTORE PUSH1 0x40 SWAP1 KECCAK256 SLOAD DUP2 JUMP JUMPDEST PUSH2 0x24D PUSH2 0x1889 JUMP JUMPDEST PUSH2 0x24D PUSH2 0x567 CALLDATASIZE PUSH1 0x4 PUSH2 0x2A98 JUMP JUMPDEST PUSH2 0x1898 JUMP JUMPDEST PUSH2 0x315 PUSH2 0xDEAD DUP2 JUMP JUMPDEST PUSH1 0x6 PUSH1 0x20 MSTORE PUSH1 0x0 SWAP1 DUP2 MSTORE PUSH1 0x40 SWAP1 KECCAK256 DUP1 SLOAD PUSH1 0x1 DUP3 ADD SLOAD PUSH1 0x2 DUP4 ADD DUP1 SLOAD SWAP3 SWAP4 PUSH1 0x1 PUSH1 0x1 PUSH1 0xA0 SHL SUB SWAP1 SWAP3 AND SWAP3 PUSH2 0x5A7 SWAP1 PUSH2 0x2B1A JUMP JUMPDEST DUP1 PUSH1 0x1F ADD PUSH1 0x20 DUP1 SWAP2 DIV MUL PUSH1 0x20 ADD PUSH1 0x40 MLOAD SWAP1 DUP2 ADD PUSH1 0x40 MSTORE DUP1 SWAP3 SWAP2 SWAP1 DUP2 DUP2 MSTORE PUSH1 0x20 ADD DUP3 DUP1 SLOAD PUSH2 0x5D3 SWAP1 PUSH2 0x2B1A JUMP JUMPDEST DUP1 ISZERO PUSH2 0x620 JUMPI DUP1 PUSH1 0x1F LT PUSH2 0x5F5 JUMPI PUSH2 0x100 DUP1 DUP4 SLOAD DIV MUL DUP4 MSTORE SWAP2 PUSH1 0x20 ADD SWAP2 PUSH2 0x620 JUMP JUMPDEST DUP3 ADD SWAP2 SWAP1 PUSH1 0x0 MSTORE PUSH1 0x20 PUSH1 0x0 KECCAK256 SWAP1 JUMPDEST DUP2 SLOAD DUP2 MSTORE SWAP1 PUSH1 0x1 ADD SWAP1 PUSH1 0x20 ADD DUP1 DUP4 GT PUSH2 0x603 JUMPI DUP3 SWAP1 SUB PUSH1 0x1F AND DUP3 ADD SWAP2 JUMPDEST POP POP POP PUSH1 0x3 DUP5 ADD SLOAD PUSH1 0x4 DUP6 ADD SLOAD PUSH1 0x5 DUP7 ADD SLOAD PUSH1 0x6 SWAP1 SWAP7 ADD SLOAD SWAP5 SWAP6 SWAP2 SWAP5 SWAP1 SWAP4 POP PUSH1 0xFF SWAP1 SWAP2 AND SWAP2 POP DUP8 JUMP JUMPDEST PUSH1 0x0 DUP1 PUSH32 0x8AED9D06D0DB0BF100F5D081C48F72DE90D54BF6BF382178A5EB81DA1C50EE1E DUP7 DUP7 DUP7 PUSH1 0x40 MLOAD PUSH2 0x67E SWAP3 SWAP2 SWAP1 PUSH2 0x2B54 JUMP JUMPDEST PUSH1 0x40 MLOAD SWAP1 DUP2 SWAP1 SUB DUP2 KECCAK256 PUSH2 0x6AD SWAP4 SWAP3 SWAP2 DUP8 SWAP1 PUSH1 0x20 ADD SWAP4 DUP5 MSTORE PUSH1 0x20 DUP5 ADD SWAP3 SWAP1 SWAP3 MSTORE PUSH1 0x40 DUP4 ADD MSTORE PUSH1 0x60 DUP3 ADD MSTORE PUSH1 0x80 ADD SWAP1 JUMP JUMPDEST PUSH1 0x40 MLOAD PUSH1 0x20 DUP2 DUP4 SUB SUB DUP2 MSTORE SWAP1 PUSH1 0x40 MSTORE DUP1 MLOAD SWAP1 PUSH1 0x20 ADD KECCAK256 SWAP1 POP PUSH2 0x6CE DUP2 PUSH2 0x1AA8 JUMP JUMPDEST SWAP7 SWAP6 POP POP POP POP POP POP JUMP JUMPDEST PUSH2 0x6E0 PUSH2 0x1ADB JUMP JUMPDEST DUP3 TIMESTAMP GT ISZERO PUSH2 0x729 JUMPI PUSH1 0x40 MLOAD PUSH3 0x461BCD PUSH1 0xE5 SHL DUP2 MSTORE PUSH1 0x20 PUSH1 0x4 DUP3 ADD MSTORE PUSH1 0x11 PUSH1 0x24 DUP3 ADD MSTORE PUSH17 0x14DA59DB985D1D5C9948195E1C1A5C9959 PUSH1 0x7A SHL PUSH1 0x44 DUP3 ADD MSTORE PUSH1 0x64 ADD JUMPDEST PUSH1 0x40 MLOAD DUP1 SWAP2 SUB SWAP1 REVERT JUMPDEST PUSH1 0x0 DUP7 DUP2 MSTORE PUSH1 0x9 PUSH1 0x20 MSTORE PUSH1 0x40 SWAP1 KECCAK256 SLOAD PUSH1 0xFF AND ISZERO PUSH2 0x77C JUMPI PUSH1 0x40 MLOAD PUSH3 0x461BCD PUSH1 0xE5 SHL DUP2 MSTORE PUSH1 0x20 PUSH1 0x4 DUP3 ADD MSTORE PUSH1 0x11 PUSH1 0x24 DUP3 ADD MSTORE PUSH17 0x105B1C9958591E481C1C9BD8D95CDCD959 PUSH1 0x7A SHL PUSH1 0x44 DUP3 ADD MSTORE PUSH1 0x64 ADD PUSH2 0x720 JUMP JUMPDEST PUSH1 0x0 PUSH32 0x8AED9D06D0DB0BF100F5D081C48F72DE90D54BF6BF382178A5EB81DA1C50EE1E DUP8 DUP8 DUP8 PUSH1 0x40 MLOAD PUSH2 0x7B0 SWAP3 SWAP2 SWAP1 PUSH2 0x2B54 JUMP JUMPDEST PUSH1 0x40 MLOAD SWAP1 DUP2 SWAP1 SUB DUP2 KECCAK256 PUSH2 0x7DF SWAP4 SWAP3 SWAP2 DUP9 SWAP1 PUSH1 0x20 ADD SWAP4 DUP5 MSTORE PUSH1 0x20 DUP5 ADD SWAP3 SWAP1 SWAP3 MSTORE PUSH1 0x40 DUP4 ADD MSTORE PUSH1 0x60 DUP3 ADD MSTORE PUSH1 0x80 ADD SWAP1 JUMP JUMPDEST PUSH1 0x40 MLOAD PUSH1 0x20 DUP2 DUP4 SUB SUB DUP2 MSTORE SWAP1 PUSH1 0x40 MSTORE DUP1 MLOAD SWAP1 PUSH1 0x20 ADD KECCAK256 SWAP1 POP PUSH1 0x0 PUSH2 0x802 DUP3 PUSH2 0x1AA8 JUMP JUMPDEST SWAP1 POP PUSH1 0x0 PUSH2 0x848 DUP6 DUP6 DUP1 DUP1 PUSH1 0x1F ADD PUSH1 0x20 DUP1 SWAP2 DIV MUL PUSH1 0x20 ADD PUSH1 0x40 MLOAD SWAP1 DUP2 ADD PUSH1 0x40 MSTORE DUP1 SWAP4 SWAP3 SWAP2 SWAP1 DUP2 DUP2 MSTORE PUSH1 0x20 ADD DUP4 DUP4 DUP1 DUP3 DUP5 CALLDATACOPY PUSH1 0x0 SWAP3 ADD SWAP2 SWAP1 SWAP2 MSTORE POP DUP7 SWAP4 SWAP3 POP POP PUSH2 0x1AFF SWAP1 POP JUMP JUMPDEST SWAP1 POP PUSH32 0x0 PUSH1 0x1 PUSH1 0x1 PUSH1 0xA0 SHL SUB AND DUP2 PUSH1 0x1 PUSH1 0x1 PUSH1 0xA0 SHL SUB AND EQ PUSH2 0x8BF JUMPI PUSH1 0x40 MLOAD PUSH3 0x461BCD PUSH1 0xE5 SHL DUP2 MSTORE PUSH1 0x20 PUSH1 0x4 DUP3 ADD MSTORE PUSH1 0x11 PUSH1 0x24 DUP3 ADD MSTORE PUSH17 0x496E76616C6964207369676E6174757265 PUSH1 0x78 SHL PUSH1 0x44 DUP3 ADD MSTORE PUSH1 0x64 ADD PUSH2 0x720 JUMP JUMPDEST PUSH1 0x0 DUP10 DUP2 MSTORE PUSH1 0x9 PUSH1 0x20 MSTORE PUSH1 0x40 SWAP1 KECCAK256 DUP1 SLOAD PUSH1 0xFF NOT AND PUSH1 0x1 OR SWAP1 SSTORE PUSH2 0x8E3 DUP10 DUP10 DUP10 PUSH2 0x1B29 JUMP JUMPDEST POP POP POP POP POP POP POP POP POP JUMP JUMPDEST PUSH1 0x40 DUP1 MLOAD PUSH32 0xAA9FB1B6B19C39367E5D85E18E63C1354DF3D995985DE53D25A9119BBDEAC29D PUSH1 0x20 DUP3 ADD MSTORE SWAP1 DUP2 ADD DUP7 SWAP1 MSTORE PUSH1 0x1 PUSH1 0x1 PUSH1 0xA0 SHL SUB DUP1 DUP7 AND PUSH1 0x60 DUP4 ADD MSTORE DUP5 AND PUSH1 0x80 DUP3 ADD MSTORE PUSH1 0xA0 DUP2 ADD DUP4 SWAP1 MSTORE PUSH1 0xC0 DUP2 ADD DUP3 SWAP1 MSTORE PUSH1 0x0 SWAP1 DUP2 SWAP1 PUSH1 0xE0 ADD PUSH1 0x40 MLOAD PUSH1 0x20 DUP2 DUP4 SUB SUB DUP2 MSTORE SWAP1 PUSH1 0x40 MSTORE DUP1 MLOAD SWAP1 PUSH1 0x20 ADD KECCAK256 SWAP1 POP PUSH2 0x96C DUP2 PUSH2 0x1AA8 JUMP JUMPDEST SWAP8 SWAP7 POP POP POP POP POP POP POP JUMP JUMPDEST PUSH1 0xA SLOAD PUSH1 0x1 PUSH1 0x1 PUSH1 0xA0 SHL SUB AND CALLER EQ PUSH2 0x9BD JUMPI PUSH1 0x40 MLOAD PUSH3 0x461BCD PUSH1 0xE5 SHL DUP2 MSTORE PUSH1 0x20 PUSH1 0x4 DUP3 ADD MSTORE PUSH1 0x9 PUSH1 0x24 DUP3 ADD MSTORE PUSH9 0x2737BA1037BBB732B9 PUSH1 0xB9 SHL PUSH1 0x44 DUP3 ADD MSTORE PUSH1 0x64 ADD PUSH2 0x720 JUMP JUMPDEST PUSH2 0x9C5 PUSH2 0x1CE4 JUMP JUMPDEST JUMP JUMPDEST PUSH2 0x9CF PUSH2 0x1D36 JUMP JUMPDEST PUSH1 0x0 DUP3 DUP2 MSTORE PUSH1 0x7 PUSH1 0x20 MSTORE PUSH1 0x40 SWAP1 KECCAK256 PUSH1 0x3 ADD SLOAD DUP3 SWAP1 PUSH1 0x1 PUSH1 0x1 PUSH1 0xA0 SHL SUB AND CALLER EQ DUP1 PUSH2 0xA21 JUMPI POP CALLER PUSH1 0x1 PUSH1 0x1 PUSH1 0xA0 SHL SUB PUSH32 0x0 AND EQ JUMPDEST PUSH2 0xA6D JUMPI PUSH1 0x40 MLOAD PUSH3 0x461BCD PUSH1 0xE5 SHL DUP2 MSTORE PUSH1 0x20 PUSH1 0x4 DUP3 ADD MSTORE PUSH1 0x17 PUSH1 0x24 DUP3 ADD MSTORE PUSH32 0x4E6F74207665726966696572206F7220434C4157474552000000000000000000 PUSH1 0x44 DUP3 ADD MSTORE PUSH1 0x64 ADD PUSH2 0x720 JUMP JUMPDEST PUSH1 0x0 DUP4 DUP2 MSTORE PUSH1 0x7 PUSH1 0x20 MSTORE PUSH1 0x40 SWAP1 KECCAK256 PUSH1 0x3 PUSH1 0x6 DUP3 ADD SLOAD PUSH1 0xFF AND PUSH1 0x5 DUP2 GT ISZERO PUSH2 0xA96 JUMPI PUSH2 0xA96 PUSH2 0x2712 JUMP JUMPDEST EQ PUSH2 0xAD3 JUMPI PUSH1 0x40 MLOAD PUSH3 0x461BCD PUSH1 0xE5 SHL DUP2 MSTORE PUSH1 0x20 PUSH1 0x4 DUP3 ADD MSTORE PUSH1 0xD PUSH1 0x24 DUP3 ADD MSTORE PUSH13 0x139BDD0818DBDB5C1B195D1959 PUSH1 0x9A SHL PUSH1 0x44 DUP3 ADD MSTORE PUSH1 0x64 ADD PUSH2 0x720 JUMP JUMPDEST PUSH1 0x6 DUP2 ADD SLOAD PUSH2 0x100 SWAP1 DIV PUSH1 0xFF AND ISZERO PUSH2 0xB1F JUMPI PUSH1 0x40 MLOAD PUSH3 0x461BCD PUSH1 0xE5 SHL DUP2 MSTORE PUSH1 0x20 PUSH1 0x4 DUP3 ADD MSTORE PUSH1 0xF PUSH1 0x24 DUP3 ADD MSTORE PUSH15 0x105B1C9958591E481CD95D1D1B1959 PUSH1 0x8A SHL PUSH1 0x44 DUP3 ADD MSTORE PUSH1 0x64 ADD PUSH2 0x720 JUMP JUMPDEST PUSH1 0x6 DUP2 ADD DUP1 SLOAD PUSH2 0xFF00 NOT AND PUSH2 0x100 OR SWAP1 SSTORE PUSH1 0x0 DUP5 DUP2 MSTORE PUSH1 0x8 PUSH1 0x20 MSTORE PUSH1 0x40 SWAP1 KECCAK256 SLOAD DUP4 ISZERO PUSH2 0xD49 JUMPI PUSH1 0x6 DUP3 ADD DUP1 SLOAD PUSH1 0xFF NOT AND PUSH1 0x4 SWAP1 DUP2 OR SWAP1 SWAP2 SSTORE DUP3 ADD SLOAD PUSH1 0x0 SWAP1 PUSH2 0xB68 SWAP1 DUP4 SWAP1 PUSH2 0x2B7A JUMP JUMPDEST PUSH1 0x2 DUP5 ADD SLOAD SWAP1 SWAP2 POP PUSH2 0xBA7 SWAP1 PUSH1 0x1 PUSH1 0x1 PUSH1 0xA0 SHL SUB PUSH32 0x0 DUP2 AND SWAP2 AND DUP4 PUSH2 0x1D60 JUMP JUMPDEST PUSH1 0x2 DUP4 ADD SLOAD PUSH1 0x40 MLOAD PUSH4 0x4E44D071 PUSH1 0xE1 SHL DUP2 MSTORE PUSH1 0x1 PUSH1 0x1 PUSH1 0xA0 SHL SUB SWAP2 DUP3 AND PUSH1 0x4 DUP3 ADD MSTORE PUSH1 0x0 SWAP2 PUSH32 0x0 AND SWAP1 PUSH4 0x9C89A0E2 SWAP1 PUSH1 0x24 ADD PUSH1 0x20 PUSH1 0x40 MLOAD DUP1 DUP4 SUB DUP2 DUP7 GAS STATICCALL ISZERO DUP1 ISZERO PUSH2 0xC15 JUMPI RETURNDATASIZE PUSH1 0x0 DUP1 RETURNDATACOPY RETURNDATASIZE PUSH1 0x0 REVERT JUMPDEST POP POP POP POP PUSH1 0x40 MLOAD RETURNDATASIZE PUSH1 0x1F NOT PUSH1 0x1F DUP3 ADD AND DUP3 ADD DUP1 PUSH1 0x40 MSTORE POP DUP2 ADD SWAP1 PUSH2 0xC39 SWAP2 SWAP1 PUSH2 0x2B8D JUMP JUMPDEST SWAP1 POP PUSH1 0x0 PUSH2 0xC48 DUP3 PUSH1 0x5 PUSH2 0x2B7A JUMP JUMPDEST SWAP1 POP PUSH1 0x64 DUP2 GT ISZERO PUSH2 0xC57 JUMPI POP PUSH1 0x64 JUMPDEST PUSH1 0x2 DUP6 ADD SLOAD PUSH1 0x40 MLOAD PUSH4 0xBDD6F7A7 PUSH1 0xE0 SHL DUP2 MSTORE PUSH1 0x1 PUSH1 0x1 PUSH1 0xA0 SHL SUB SWAP2 DUP3 AND PUSH1 0x4 DUP3 ADD MSTORE PUSH1 0x24 DUP2 ADD DUP4 SWAP1 MSTORE PUSH1 0x60 PUSH1 0x44 DUP3 ADD MSTORE PUSH1 0xE PUSH1 0x64 DUP3 ADD MSTORE PUSH14 0x15185CDAC818DBDB5C1B195D1959 PUSH1 0x92 SHL PUSH1 0x84 DUP3 ADD MSTORE PUSH32 0x0 SWAP1 SWAP2 AND SWAP1 PUSH4 0xBDD6F7A7 SWAP1 PUSH1 0xA4 ADD PUSH1 0x0 PUSH1 0x40 MLOAD DUP1 DUP4 SUB DUP2 PUSH1 0x0 DUP8 DUP1 EXTCODESIZE ISZERO DUP1 ISZERO PUSH2 0xCED JUMPI PUSH1 0x0 DUP1 REVERT JUMPDEST POP GAS CALL ISZERO DUP1 ISZERO PUSH2 0xD01 JUMPI RETURNDATASIZE PUSH1 0x0 DUP1 RETURNDATACOPY RETURNDATASIZE PUSH1 0x0 REVERT JUMPDEST POP POP PUSH1 0x40 DUP1 MLOAD PUSH1 0x1 DUP2 MSTORE PUSH1 0x20 DUP2 ADD DUP8 SWAP1 MSTORE DUP12 SWAP4 POP PUSH32 0xB5503BB8C034CB719B271A0CB88AEEDCDC29408A5DBCE32FC630086A3DDEDD3C SWAP3 POP ADD PUSH1 0x40 MLOAD DUP1 SWAP2 SUB SWAP1 LOG2 POP POP POP PUSH2 0xF9D JUMP JUMPDEST PUSH1 0x6 DUP3 ADD DUP1 SLOAD PUSH1 0xFF NOT AND PUSH1 0x5 OR SWAP1 SSTORE PUSH2 0xDAC PUSH32 0x0 PUSH1 0x1 PUSH1 0x1 PUSH1 0xA0 SHL SUB AND PUSH32 0x0 DUP4 PUSH2 0x1D60 JUMP JUMPDEST PUSH1 0x1 DUP3 DUP2 ADD SLOAD PUSH1 0x0 SWAP1 DUP2 MSTORE PUSH1 0x6 PUSH1 0x20 MSTORE PUSH1 0x40 SWAP1 KECCAK256 SWAP1 DUP2 ADD SLOAD PUSH1 0x4 DUP5 ADD SLOAD PUSH2 0xE01 SWAP2 PUSH1 0x1 PUSH1 0x1 PUSH1 0xA0 SHL SUB PUSH32 0x0 DUP2 AND SWAP3 SWAP2 AND SWAP1 PUSH2 0x1D60 JUMP JUMPDEST PUSH1 0x2 DUP4 ADD SLOAD PUSH1 0x40 MLOAD PUSH4 0x4E44D071 PUSH1 0xE1 SHL DUP2 MSTORE PUSH1 0x1 PUSH1 0x1 PUSH1 0xA0 SHL SUB SWAP2 DUP3 AND PUSH1 0x4 DUP3 ADD MSTORE PUSH1 0x0 SWAP2 PUSH32 0x0 AND SWAP1 PUSH4 0x9C89A0E2 SWAP1 PUSH1 0x24 ADD PUSH1 0x20 PUSH1 0x40 MLOAD DUP1 DUP4 SUB DUP2 DUP7 GAS STATICCALL ISZERO DUP1 ISZERO PUSH2 0xE6F JUMPI RETURNDATASIZE PUSH1 0x0 DUP1 RETURNDATACOPY RETURNDATASIZE PUSH1 0x0 REVERT JUMPDEST POP POP POP POP PUSH1 0x40 MLOAD RETURNDATASIZE PUSH1 0x1F NOT PUSH1 0x1F DUP3 ADD AND DUP3 ADD DUP1 PUSH1 0x40 MSTORE POP DUP2 ADD SWAP1 PUSH2 0xE93 SWAP2 SWAP1 PUSH2 0x2B8D JUMP JUMPDEST SWAP1 POP PUSH1 0x0 PUSH1 0xF DUP3 LT ISZERO PUSH2 0xEA7 JUMPI PUSH1 0x0 PUSH2 0xEB2 JUMP JUMPDEST PUSH2 0xEB2 PUSH1 0xF DUP4 PUSH2 0x2BA6 JUMP JUMPDEST PUSH1 0x2 DUP7 ADD SLOAD PUSH1 0x40 MLOAD PUSH4 0xBDD6F7A7 PUSH1 0xE0 SHL DUP2 MSTORE PUSH1 0x1 PUSH1 0x1 PUSH1 0xA0 SHL SUB SWAP2 DUP3 AND PUSH1 0x4 DUP3 ADD MSTORE PUSH1 0x24 DUP2 ADD DUP4 SWAP1 MSTORE PUSH1 0x60 PUSH1 0x44 DUP3 ADD MSTORE PUSH1 0xB PUSH1 0x64 DUP3 ADD MSTORE PUSH11 0x15185CDAC819985A5B1959 PUSH1 0xAA SHL PUSH1 0x84 DUP3 ADD MSTORE SWAP2 SWAP3 POP PUSH32 0x0 AND SWAP1 PUSH4 0xBDD6F7A7 SWAP1 PUSH1 0xA4 ADD PUSH1 0x0 PUSH1 0x40 MLOAD DUP1 DUP4 SUB DUP2 PUSH1 0x0 DUP8 DUP1 EXTCODESIZE ISZERO DUP1 ISZERO PUSH2 0xF46 JUMPI PUSH1 0x0 DUP1 REVERT JUMPDEST POP GAS CALL ISZERO DUP1 ISZERO PUSH2 0xF5A JUMPI RETURNDATASIZE PUSH1 0x0 DUP1 RETURNDATACOPY RETURNDATASIZE PUSH1 0x0 REVERT JUMPDEST POP POP PUSH1 0x40 DUP1 MLOAD PUSH1 0x0 DUP1 DUP3 MSTORE PUSH1 0x20 DUP3 ADD MSTORE DUP12 SWAP4 POP PUSH32 0xB5503BB8C034CB719B271A0CB88AEEDCDC29408A5DBCE32FC630086A3DDEDD3C SWAP3 POP ADD PUSH1 0x40 MLOAD DUP1 SWAP2 SUB SWAP1 LOG2 POP POP POP JUMPDEST POP PUSH1 0x0 DUP5 DUP2 MSTORE PUSH1 0x8 PUSH1 0x20 MSTORE PUSH1 0x40 DUP2 KECCAK256 DUP2 SWAP1 SSTORE PUSH1 0x4 SWAP1 SWAP2 ADD SSTORE POP PUSH2 0xFC0 PUSH1 0x1 PUSH1 0x0 SSTORE JUMP JUMPDEST POP POP JUMP JUMPDEST PUSH1 0x0 DUP2 DUP2 MSTORE PUSH1 0x7 PUSH1 0x20 MSTORE PUSH1 0x40 SWAP1 KECCAK256 PUSH1 0x2 ADD SLOAD DUP2 SWAP1 PUSH1 0x1 PUSH1 0x1 PUSH1 0xA0 SHL SUB AND CALLER EQ PUSH2 0xFFF JUMPI PUSH1 0x40 MLOAD PUSH3 0x461BCD PUSH1 0xE5 SHL DUP2 MSTORE PUSH1 0x4 ADD PUSH2 0x720 SWAP1 PUSH2 0x2BB9 JUMP JUMPDEST PUSH1 0x0 DUP3 DUP2 MSTORE PUSH1 0x7 PUSH1 0x20 MSTORE PUSH1 0x40 SWAP1 KECCAK256 PUSH1 0x1 PUSH1 0x6 DUP3 ADD SLOAD PUSH1 0xFF AND PUSH1 0x5 DUP2 GT ISZERO PUSH2 0x1028 JUMPI PUSH2 0x1028 PUSH2 0x2712 JUMP JUMPDEST EQ PUSH2 0x1062 JUMPI PUSH1 0x40 MLOAD PUSH3 0x461BCD PUSH1 0xE5 SHL DUP2 MSTORE PUSH1 0x20 PUSH1 0x4 DUP3 ADD MSTORE PUSH1 0xA PUSH1 0x24 DUP3 ADD MSTORE PUSH10 0x139BDD08189BDB991959 PUSH1 0xB2 SHL PUSH1 0x44 DUP3 ADD MSTORE PUSH1 0x64 ADD PUSH2 0x720 JUMP JUMPDEST PUSH1 0x6 DUP2 ADD DUP1 SLOAD PUSH1 0xFF NOT AND PUSH1 0x2 OR SWAP1 SSTORE PUSH1 0x40 MLOAD DUP4 SWAP1 PUSH32 0xA20AC7F16CFB4313B156D64F380CCD1F8276F438D0B621EB33DB07CFC639DA47 SWAP1 PUSH1 0x0 SWAP1 LOG2 POP POP POP JUMP JUMPDEST PUSH2 0x10A9 PUSH2 0x1D36 JUMP JUMPDEST PUSH1 0x0 DUP2 DUP2 MSTORE PUSH1 0x7 PUSH1 0x20 MSTORE PUSH1 0x40 SWAP1 KECCAK256 PUSH1 0x3 PUSH1 0x6 DUP3 ADD SLOAD PUSH1 0xFF AND PUSH1 0x5 DUP2 GT ISZERO PUSH2 0x10D2 JUMPI PUSH2 0x10D2 PUSH2 0x2712 JUMP JUMPDEST EQ PUSH2 0x110F JUMPI PUSH1 0x40 MLOAD PUSH3 0x461BCD PUSH1 0xE5 SHL DUP2 MSTORE PUSH1 0x20 PUSH1 0x4 DUP3 ADD MSTORE PUSH1 0xD PUSH1 0x24 DUP3 ADD MSTORE PUSH13 0x139BDD0818DBDB5C1B195D1959 PUSH1 0x9A SHL PUSH1 0x44 DUP3 ADD MSTORE PUSH1 0x64 ADD PUSH2 0x720 JUMP JUMPDEST PUSH1 0x6 DUP2 ADD SLOAD PUSH2 0x100 SWAP1 DIV PUSH1 0xFF AND ISZERO PUSH2 0x115B JUMPI PUSH1 0x40 MLOAD PUSH3 0x461BCD PUSH1 0xE5 SHL DUP2 MSTORE PUSH1 0x20 PUSH1 0x4 DUP3 ADD MSTORE PUSH1 0xF PUSH1 0x24 DUP3 ADD MSTORE PUSH15 0x105B1C9958591E481CD95D1D1B1959 PUSH1 0x8A SHL PUSH1 0x44 DUP3 ADD MSTORE PUSH1 0x64 ADD PUSH2 0x720 JUMP JUMPDEST PUSH3 0x93A80 DUP2 PUSH1 0x8 ADD SLOAD PUSH2 0x116E SWAP2 SWAP1 PUSH2 0x2B7A JUMP JUMPDEST TIMESTAMP LT ISZERO PUSH2 0x11AB JUMPI PUSH1 0x40 MLOAD PUSH3 0x461BCD PUSH1 0xE5 SHL DUP2 MSTORE PUSH1 0x20 PUSH1 0x4 DUP3 ADD MSTORE PUSH1 0xB PUSH1 0x24 DUP3 ADD MSTORE PUSH11 0x139BDD08195E1C1A5C9959 PUSH1 0xAA SHL PUSH1 0x44 DUP3 ADD MSTORE PUSH1 0x64 ADD PUSH2 0x720 JUMP JUMPDEST PUSH1 0x6 DUP2 ADD DUP1 SLOAD PUSH2 0xFFFF NOT AND PUSH2 0x105 OR SWAP1 SSTORE PUSH1 0x0 DUP3 DUP2 MSTORE PUSH1 0x8 PUSH1 0x20 MSTORE PUSH1 0x40 SWAP1 KECCAK256 SLOAD PUSH1 0x2 DUP3 ADD SLOAD PUSH2 0x1207 SWAP1 PUSH1 0x1 PUSH1 0x1 PUSH1 0xA0 SHL SUB PUSH32 0x0 DUP2 AND SWAP2 AND DUP4 PUSH2 0x1D60 JUMP JUMPDEST PUSH1 0x1 DUP3 DUP2 ADD SLOAD PUSH1 0x0 SWAP1 DUP2 MSTORE PUSH1 0x6 PUSH1 0x20 MSTORE PUSH1 0x40 SWAP1 KECCAK256 SWAP1 DUP2 ADD SLOAD PUSH1 0x4 DUP5 ADD SLOAD PUSH2 0x125C SWAP2 PUSH1 0x1 PUSH1 0x1 PUSH1 0xA0 SHL SUB PUSH32 0x0 DUP2 AND SWAP3 SWAP2 AND SWAP1 PUSH2 0x1D60 JUMP JUMPDEST PUSH1 0x0 DUP5 DUP2 MSTORE PUSH1 0x8 PUSH1 0x20 MSTORE PUSH1 0x40 DUP1 DUP3 KECCAK256 DUP3 SWAP1 SSTORE PUSH1 0x4 DUP6 ADD DUP3 SWAP1 SSTORE MLOAD DUP6 SWAP2 PUSH32 0x7C2ECD5E2B7188AC57F3A370681639CB447C9CBFBBBACE0C070ADEA6C73EAA54 SWAP2 LOG2 POP POP POP PUSH2 0x12A8 PUSH1 0x1 PUSH1 0x0 SSTORE JUMP JUMPDEST POP JUMP JUMPDEST PUSH2 0x12B3 PUSH2 0x1D36 JUMP JUMPDEST PUSH1 0x0 DUP2 DUP2 MSTORE PUSH1 0x7 PUSH1 0x20 MSTORE PUSH1 0x40 SWAP1 KECCAK256 PUSH1 0x2 ADD SLOAD DUP2 SWAP1 PUSH1 0x1 PUSH1 0x1 PUSH1 0xA0 SHL SUB AND CALLER EQ PUSH2 0x12EE JUMPI PUSH1 0x40 MLOAD PUSH3 0x461BCD PUSH1 0xE5 SHL DUP2 MSTORE PUSH1 0x4 ADD PUSH2 0x720 SWAP1 PUSH2 0x2BB9 JUMP JUMPDEST PUSH1 0x0 DUP3 DUP2 MSTORE PUSH1 0x7 PUSH1 0x20 MSTORE PUSH1 0x40 DUP2 KECCAK256 SWAP1 PUSH1 0x6 DUP3 ADD SLOAD PUSH1 0xFF AND PUSH1 0x5 DUP2 GT ISZERO PUSH2 0x1316 JUMPI PUSH2 0x1316 PUSH2 0x2712 JUMP JUMPDEST EQ PUSH2 0x1351 JUMPI PUSH1 0x40 MLOAD PUSH3 0x461BCD PUSH1 0xE5 SHL DUP2 MSTORE PUSH1 0x20 PUSH1 0x4 DUP3 ADD MSTORE PUSH1 0xB PUSH1 0x24 DUP3 ADD MSTORE PUSH11 0x139BDD0818DC99585D1959 PUSH1 0xAA SHL PUSH1 0x44 DUP3 ADD MSTORE PUSH1 0x64 ADD PUSH2 0x720 JUMP JUMPDEST PUSH1 0x5 DUP2 ADD SLOAD PUSH2 0x138E SWAP1 PUSH1 0x1 PUSH1 0x1 PUSH1 0xA0 SHL SUB PUSH32 0x0 AND SWAP1 CALLER SWAP1 ADDRESS SWAP1 PUSH2 0x1DC4 JUMP JUMPDEST PUSH1 0x5 DUP2 ADD SLOAD PUSH1 0x0 DUP5 DUP2 MSTORE PUSH1 0x8 PUSH1 0x20 SWAP1 DUP2 MSTORE PUSH1 0x40 SWAP2 DUP3 SWAP1 KECCAK256 DUP4 SWAP1 SSTORE PUSH1 0x6 DUP5 ADD DUP1 SLOAD PUSH1 0xFF NOT AND PUSH1 0x1 OR SWAP1 SSTORE SWAP1 MLOAD SWAP2 DUP3 MSTORE CALLER SWAP2 DUP6 SWAP2 PUSH32 0x3F700E483BF4492660028538534D4577A894D4D355068EE29433AB3FC23AB47 SWAP2 ADD PUSH1 0x40 MLOAD DUP1 SWAP2 SUB SWAP1 LOG3 POP POP PUSH2 0x12A8 PUSH1 0x1 PUSH1 0x0 SSTORE JUMP JUMPDEST PUSH1 0xA SLOAD PUSH1 0x1 PUSH1 0x1 PUSH1 0xA0 SHL SUB AND CALLER EQ PUSH2 0x143D JUMPI PUSH1 0x40 MLOAD PUSH3 0x461BCD PUSH1 0xE5 SHL DUP2 MSTORE PUSH1 0x20 PUSH1 0x4 DUP3 ADD MSTORE PUSH1 0x9 PUSH1 0x24 DUP3 ADD MSTORE PUSH9 0x2737BA1037BBB732B9 PUSH1 0xB9 SHL PUSH1 0x44 DUP3 ADD MSTORE PUSH1 0x64 ADD PUSH2 0x720 JUMP JUMPDEST PUSH2 0x9C5 PUSH2 0x1E03 JUMP JUMPDEST PUSH1 0x0 PUSH1 0x60 DUP1 PUSH1 0x0 DUP1 PUSH1 0x0 PUSH1 0x60 PUSH2 0x1459 PUSH2 0x1E3E JUMP JUMPDEST PUSH2 0x1461 PUSH2 0x1E6B JUMP JUMPDEST PUSH1 0x40 DUP1 MLOAD PUSH1 0x0 DUP1 DUP3 MSTORE PUSH1 0x20 DUP3 ADD SWAP1 SWAP3 MSTORE PUSH1 0xF PUSH1 0xF8 SHL SWAP12 SWAP4 SWAP11 POP SWAP2 SWAP9 POP CHAINID SWAP8 POP ADDRESS SWAP7 POP SWAP5 POP SWAP3 POP SWAP1 POP JUMP JUMPDEST PUSH1 0x0 PUSH2 0x1495 PUSH2 0x1ADB JUMP JUMPDEST DUP4 PUSH2 0x14D4 JUMPI PUSH1 0x40 MLOAD PUSH3 0x461BCD PUSH1 0xE5 SHL DUP2 MSTORE PUSH1 0x20 PUSH1 0x4 DUP3 ADD MSTORE PUSH1 0xF PUSH1 0x24 DUP3 ADD MSTORE PUSH15 0x456D707479206F626A656374697665 PUSH1 0x88 SHL PUSH1 0x44 DUP3 ADD MSTORE PUSH1 0x64 ADD PUSH2 0x720 JUMP JUMPDEST PUSH2 0x3E8 DUP5 GT ISZERO PUSH2 0x151B JUMPI PUSH1 0x40 MLOAD PUSH3 0x461BCD PUSH1 0xE5 SHL DUP2 MSTORE PUSH1 0x20 PUSH1 0x4 DUP3 ADD MSTORE PUSH1 0x12 PUSH1 0x24 DUP3 ADD MSTORE PUSH18 0x4F626A65637469766520746F6F206C6F6E67 PUSH1 0x70 SHL PUSH1 0x44 DUP3 ADD MSTORE PUSH1 0x64 ADD PUSH2 0x720 JUMP JUMPDEST TIMESTAMP DUP3 GT PUSH2 0x1559 JUMPI PUSH1 0x40 MLOAD PUSH3 0x461BCD PUSH1 0xE5 SHL DUP2 MSTORE PUSH1 0x20 PUSH1 0x4 DUP3 ADD MSTORE PUSH1 0xC PUSH1 0x24 DUP3 ADD MSTORE PUSH12 0x42616420646561646C696E65 PUSH1 0xA0 SHL PUSH1 0x44 DUP3 ADD MSTORE PUSH1 0x64 ADD PUSH2 0x720 JUMP JUMPDEST PUSH1 0x0 DUP4 GT PUSH2 0x159B JUMPI PUSH1 0x40 MLOAD PUSH3 0x461BCD PUSH1 0xE5 SHL DUP2 MSTORE PUSH1 0x20 PUSH1 0x4 DUP3 ADD MSTORE PUSH1 0xF PUSH1 0x24 DUP3 ADD MSTORE PUSH15 0x115CD8DC9BDDC81C995C5D5A5C9959 PUSH1 0x8A SHL PUSH1 0x44 DUP3 ADD MSTORE PUSH1 0x64 ADD PUSH2 0x720 JUMP JUMPDEST PUSH10 0xD3C21BCECCEDA1000000 DUP4 GT ISZERO PUSH2 0x15E8 JUMPI PUSH1 0x40 MLOAD PUSH3 0x461BCD PUSH1 0xE5 SHL DUP2 MSTORE PUSH1 0x20 PUSH1 0x4 DUP3 ADD MSTORE PUSH1 0x10 PUSH1 0x24 DUP3 ADD MSTORE PUSH16 0x457363726F7720746F6F206C61726765 PUSH1 0x80 SHL PUSH1 0x44 DUP3 ADD MSTORE PUSH1 0x64 ADD PUSH2 0x720 JUMP JUMPDEST PUSH2 0x1632 CALLER ADDRESS PUSH2 0x1600 PUSH9 0x56BC75E2D63100000 DUP8 PUSH2 0x2B7A JUMP JUMPDEST PUSH1 0x1 PUSH1 0x1 PUSH1 0xA0 SHL SUB PUSH32 0x0 AND SWAP3 SWAP2 SWAP1 PUSH2 0x1DC4 JUMP JUMPDEST PUSH1 0x0 PUSH1 0x4 PUSH1 0x0 DUP2 SLOAD PUSH2 0x1643 SWAP1 PUSH2 0x2BF3 JUMP JUMPDEST SWAP2 SWAP1 POP DUP2 SWAP1 SSTORE SWAP1 POP PUSH1 0x40 MLOAD DUP1 PUSH1 0xE0 ADD PUSH1 0x40 MSTORE DUP1 DUP3 DUP2 MSTORE PUSH1 0x20 ADD CALLER PUSH1 0x1 PUSH1 0x1 PUSH1 0xA0 SHL SUB AND DUP2 MSTORE PUSH1 0x20 ADD DUP8 DUP8 DUP1 DUP1 PUSH1 0x1F ADD PUSH1 0x20 DUP1 SWAP2 DIV MUL PUSH1 0x20 ADD PUSH1 0x40 MLOAD SWAP1 DUP2 ADD PUSH1 0x40 MSTORE DUP1 SWAP4 SWAP3 SWAP2 SWAP1 DUP2 DUP2 MSTORE PUSH1 0x20 ADD DUP4 DUP4 DUP1 DUP3 DUP5 CALLDATACOPY PUSH1 0x0 SWAP3 ADD DUP3 SWAP1 MSTORE POP SWAP4 DUP6 MSTORE POP POP POP PUSH1 0x20 DUP3 ADD DUP8 SWAP1 MSTORE PUSH1 0x40 DUP3 ADD DUP7 SWAP1 MSTORE PUSH1 0x60 SWAP1 SWAP2 ADD SWAP1 DUP2 MSTORE TIMESTAMP PUSH1 0x20 SWAP2 DUP3 ADD MSTORE PUSH1 0x0 DUP4 DUP2 MSTORE PUSH1 0x6 DUP3 MSTORE PUSH1 0x40 SWAP1 DUP2 SWAP1 KECCAK256 DUP4 MLOAD DUP2 SSTORE SWAP2 DUP4 ADD MLOAD PUSH1 0x1 DUP4 ADD DUP1 SLOAD PUSH1 0x1 PUSH1 0x1 PUSH1 0xA0 SHL SUB NOT AND PUSH1 0x1 PUSH1 0x1 PUSH1 0xA0 SHL SUB SWAP1 SWAP3 AND SWAP2 SWAP1 SWAP2 OR SWAP1 SSTORE DUP3 ADD MLOAD PUSH1 0x2 DUP3 ADD SWAP1 PUSH2 0x170A SWAP1 DUP3 PUSH2 0x2C5A JUMP JUMPDEST POP PUSH1 0x60 DUP3 ADD MLOAD DUP2 PUSH1 0x3 ADD SSTORE PUSH1 0x80 DUP3 ADD MLOAD DUP2 PUSH1 0x4 ADD SSTORE PUSH1 0xA0 DUP3 ADD MLOAD DUP2 PUSH1 0x5 ADD PUSH1 0x0 PUSH2 0x100 EXP DUP2 SLOAD DUP2 PUSH1 0xFF MUL NOT AND SWAP1 DUP4 PUSH1 0x3 DUP2 GT ISZERO PUSH2 0x1749 JUMPI PUSH2 0x1749 PUSH2 0x2712 JUMP JUMPDEST MUL OR SWAP1 SSTORE POP PUSH1 0xC0 SWAP2 SWAP1 SWAP2 ADD MLOAD PUSH1 0x6 SWAP1 SWAP2 ADD SSTORE PUSH1 0x40 DUP1 MLOAD DUP6 DUP2 MSTORE PUSH1 0x20 DUP2 ADD DUP6 SWAP1 MSTORE CALLER SWAP2 DUP4 SWAP2 PUSH32 0x57A1FAACE4A7840FC17CABC57657D23725E308616DEBC3F77726A2183F2670F5 SWAP2 ADD PUSH1 0x40 MLOAD DUP1 SWAP2 SUB SWAP1 LOG3 SWAP6 SWAP5 POP POP POP POP POP JUMP JUMPDEST PUSH1 0x0 DUP2 DUP2 MSTORE PUSH1 0x7 PUSH1 0x20 MSTORE PUSH1 0x40 SWAP1 KECCAK256 PUSH1 0x2 ADD SLOAD DUP2 SWAP1 PUSH1 0x1 PUSH1 0x1 PUSH1 0xA0 SHL SUB AND CALLER EQ PUSH2 0x17DC JUMPI PUSH1 0x40 MLOAD PUSH3 0x461BCD PUSH1 0xE5 SHL DUP2 MSTORE PUSH1 0x4 ADD PUSH2 0x720 SWAP1 PUSH2 0x2BB9 JUMP JUMPDEST PUSH1 0x0 DUP3 DUP2 MSTORE PUSH1 0x7 PUSH1 0x20 MSTORE PUSH1 0x40 SWAP1 KECCAK256 PUSH1 0x2 PUSH1 0x6 DUP3 ADD SLOAD PUSH1 0xFF AND PUSH1 0x5 DUP2 GT ISZERO PUSH2 0x1805 JUMPI PUSH2 0x1805 PUSH2 0x2712 JUMP JUMPDEST EQ PUSH2 0x1844 JUMPI PUSH1 0x40 MLOAD PUSH3 0x461BCD PUSH1 0xE5 SHL DUP2 MSTORE PUSH1 0x20 PUSH1 0x4 DUP3 ADD MSTORE PUSH1 0xF PUSH1 0x24 DUP3 ADD MSTORE PUSH15 0x4E6F7420696E2070726F6772657373 PUSH1 0x88 SHL PUSH1 0x44 DUP3 ADD MSTORE PUSH1 0x64 ADD PUSH2 0x720 JUMP JUMPDEST PUSH1 0x6 DUP2 ADD DUP1 SLOAD PUSH1 0xFF NOT AND PUSH1 0x3 OR SWAP1 SSTORE TIMESTAMP PUSH1 0x8 DUP3 ADD SSTORE PUSH1 0x40 MLOAD DUP4 SWAP1 PUSH32 0xC1FA7142CFB933D0855114A3BFFDE296944C30B727F297C14D0DB4D553D3A5C7 SWAP1 PUSH1 0x0 SWAP1 LOG2 POP POP POP JUMP JUMPDEST PUSH1 0x0 PUSH2 0x1893 PUSH2 0x1E98 JUMP JUMPDEST SWAP1 POP SWAP1 JUMP JUMPDEST PUSH1 0x0 PUSH2 0x18A2 PUSH2 0x1ADB JUMP JUMPDEST DUP4 TIMESTAMP GT ISZERO PUSH2 0x18E6 JUMPI PUSH1 0x40 MLOAD PUSH3 0x461BCD PUSH1 0xE5 SHL DUP2 MSTORE PUSH1 0x20 PUSH1 0x4 DUP3 ADD MSTORE PUSH1 0x11 PUSH1 0x24 DUP3 ADD MSTORE PUSH17 0x14DA59DB985D1D5C9948195E1C1A5C9959 PUSH1 0x7A SHL PUSH1 0x44 DUP3 ADD MSTORE PUSH1 0x64 ADD PUSH2 0x720 JUMP JUMPDEST PUSH1 0x0 DUP9 DUP2 MSTORE PUSH1 0x9 PUSH1 0x20 MSTORE PUSH1 0x40 SWAP1 KECCAK256 SLOAD PUSH1 0xFF AND ISZERO PUSH2 0x1939 JUMPI PUSH1 0x40 MLOAD PUSH3 0x461BCD PUSH1 0xE5 SHL DUP2 MSTORE PUSH1 0x20 PUSH1 0x4 DUP3 ADD MSTORE PUSH1 0x11 PUSH1 0x24 DUP3 ADD MSTORE PUSH17 0x105B1C9958591E481C1C9BD8D95CDCD959 PUSH1 0x7A SHL PUSH1 0x44 DUP3 ADD MSTORE PUSH1 0x64 ADD PUSH2 0x720 JUMP JUMPDEST PUSH1 0x40 DUP1 MLOAD PUSH32 0xAA9FB1B6B19C39367E5D85E18E63C1354DF3D995985DE53D25A9119BBDEAC29D PUSH1 0x20 DUP3 ADD MSTORE SWAP1 DUP2 ADD DUP10 SWAP1 MSTORE PUSH1 0x1 PUSH1 0x1 PUSH1 0xA0 SHL SUB DUP1 DUP10 AND PUSH1 0x60 DUP4 ADD MSTORE DUP8 AND PUSH1 0x80 DUP3 ADD MSTORE PUSH1 0xA0 DUP2 ADD DUP7 SWAP1 MSTORE PUSH1 0xC0 DUP2 ADD DUP6 SWAP1 MSTORE PUSH1 0x0 SWAP1 PUSH1 0xE0 ADD PUSH1 0x40 MLOAD PUSH1 0x20 DUP2 DUP4 SUB SUB DUP2 MSTORE SWAP1 PUSH1 0x40 MSTORE DUP1 MLOAD SWAP1 PUSH1 0x20 ADD KECCAK256 SWAP1 POP PUSH1 0x0 PUSH2 0x19B7 DUP3 PUSH2 0x1AA8 JUMP JUMPDEST SWAP1 POP PUSH1 0x0 PUSH2 0x19FD DUP7 DUP7 DUP1 DUP1 PUSH1 0x1F ADD PUSH1 0x20 DUP1 SWAP2 DIV MUL PUSH1 0x20 ADD PUSH1 0x40 MLOAD SWAP1 DUP2 ADD PUSH1 0x40 MSTORE DUP1 SWAP4 SWAP3 SWAP2 SWAP1 DUP2 DUP2 MSTORE PUSH1 0x20 ADD DUP4 DUP4 DUP1 DUP3 DUP5 CALLDATACOPY PUSH1 0x0 SWAP3 ADD SWAP2 SWAP1 SWAP2 MSTORE POP DUP7 SWAP4 SWAP3 POP POP PUSH2 0x1AFF SWAP1 POP JUMP JUMPDEST SWAP1 POP PUSH32 0x0 PUSH1 0x1 PUSH1 0x1 PUSH1 0xA0 SHL SUB AND DUP2 PUSH1 0x1 PUSH1 0x1 PUSH1 0xA0 SHL SUB AND EQ PUSH2 0x1A74 JUMPI PUSH1 0x40 MLOAD PUSH3 0x461BCD PUSH1 0xE5 SHL DUP2 MSTORE PUSH1 0x20 PUSH1 0x4 DUP3 ADD MSTORE PUSH1 0x11 PUSH1 0x24 DUP3 ADD MSTORE PUSH17 0x496E76616C6964207369676E6174757265 PUSH1 0x78 SHL PUSH1 0x44 DUP3 ADD MSTORE PUSH1 0x64 ADD PUSH2 0x720 JUMP JUMPDEST PUSH1 0x0 DUP12 DUP2 MSTORE PUSH1 0x9 PUSH1 0x20 MSTORE PUSH1 0x40 SWAP1 KECCAK256 DUP1 SLOAD PUSH1 0xFF NOT AND PUSH1 0x1 OR SWAP1 SSTORE PUSH2 0x1A99 DUP12 DUP12 DUP12 DUP12 PUSH2 0x1FC3 JUMP JUMPDEST SWAP12 SWAP11 POP POP POP POP POP POP POP POP POP POP POP JUMP JUMPDEST PUSH1 0x0 PUSH2 0x1AD5 PUSH2 0x1AB5 PUSH2 0x1E98 JUMP JUMPDEST DUP4 PUSH1 0x40 MLOAD PUSH2 0x1901 PUSH1 0xF0 SHL DUP2 MSTORE PUSH1 0x2 DUP2 ADD SWAP3 SWAP1 SWAP3 MSTORE PUSH1 0x22 DUP3 ADD MSTORE PUSH1 0x42 SWAP1 KECCAK256 SWAP1 JUMP JUMPDEST SWAP3 SWAP2 POP POP JUMP JUMPDEST PUSH1 0x1 SLOAD PUSH1 0xFF AND ISZERO PUSH2 0x9C5 JUMPI PUSH1 0x40 MLOAD PUSH4 0xD93C0665 PUSH1 0xE0 SHL DUP2 MSTORE PUSH1 0x4 ADD PUSH1 0x40 MLOAD DUP1 SWAP2 SUB SWAP1 REVERT JUMPDEST PUSH1 0x0 DUP1 PUSH1 0x0 DUP1 PUSH2 0x1B0F DUP7 DUP7 PUSH2 0x2338 JUMP JUMPDEST SWAP3 POP SWAP3 POP SWAP3 POP PUSH2 0x1B1F DUP3 DUP3 PUSH2 0x2385 JUMP JUMPDEST POP SWAP1 SWAP5 SWAP4 POP POP POP POP JUMP JUMPDEST PUSH1 0x0 DUP4 DUP2 MSTORE PUSH1 0x6 PUSH1 0x20 MSTORE PUSH1 0x40 DUP2 KECCAK256 SWAP1 PUSH1 0x5 DUP3 ADD SLOAD PUSH1 0xFF AND PUSH1 0x3 DUP2 GT ISZERO PUSH2 0x1B51 JUMPI PUSH2 0x1B51 PUSH2 0x2712 JUMP JUMPDEST EQ PUSH2 0x1B8C JUMPI PUSH1 0x40 MLOAD PUSH3 0x461BCD PUSH1 0xE5 SHL DUP2 MSTORE PUSH1 0x20 PUSH1 0x4 DUP3 ADD MSTORE PUSH1 0xB PUSH1 0x24 DUP3 ADD MSTORE PUSH11 0x4E6F742070656E64696E67 PUSH1 0xA8 SHL PUSH1 0x44 DUP3 ADD MSTORE PUSH1 0x64 ADD PUSH2 0x720 JUMP JUMPDEST PUSH1 0x5 DUP2 ADD DUP1 SLOAD PUSH1 0xFF NOT AND PUSH1 0x2 OR SWAP1 SSTORE PUSH1 0x0 PUSH1 0x64 PUSH2 0x1BB3 PUSH1 0x32 PUSH9 0x56BC75E2D63100000 PUSH2 0x2D1A JUMP JUMPDEST PUSH2 0x1BBD SWAP2 SWAP1 PUSH2 0x2D31 JUMP JUMPDEST SWAP1 POP PUSH1 0x0 PUSH2 0x1BD4 DUP3 PUSH9 0x56BC75E2D63100000 PUSH2 0x2BA6 JUMP JUMPDEST SWAP1 POP PUSH2 0x1C0C PUSH1 0x1 PUSH1 0x1 PUSH1 0xA0 SHL SUB PUSH32 0x0 AND PUSH2 0xDEAD DUP5 PUSH2 0x1D60 JUMP JUMPDEST PUSH2 0x1C60 PUSH1 0x1 PUSH1 0x1 PUSH1 0xA0 SHL SUB PUSH32 0x0 AND PUSH32 0x0 DUP4 PUSH2 0x1D60 JUMP JUMPDEST PUSH1 0x1 DUP4 ADD SLOAD PUSH1 0x3 DUP5 ADD SLOAD PUSH2 0x1CA2 SWAP2 PUSH1 0x1 PUSH1 0x1 PUSH1 0xA0 SHL SUB PUSH32 0x0 DUP2 AND SWAP3 SWAP2 AND SWAP1 PUSH2 0x1D60 JUMP JUMPDEST DUP6 PUSH32 0xE5F9059DC551D2DCF73C3BC69F282E134799B450F062C909D9F7FF45951327BD DUP7 DUP7 PUSH1 0x40 MLOAD PUSH2 0x1CD4 SWAP3 SWAP2 SWAP1 PUSH2 0x2D53 JUMP JUMPDEST PUSH1 0x40 MLOAD DUP1 SWAP2 SUB SWAP1 LOG2 POP POP POP POP POP POP JUMP JUMPDEST PUSH2 0x1CEC PUSH2 0x243E JUMP JUMPDEST PUSH1 0x1 DUP1 SLOAD PUSH1 0xFF NOT AND SWAP1 SSTORE PUSH32 0x5DB9EE0A495BF2E6FF9C91A7834C1BA4FDD244A5E8AA4E537BD38AEAE4B073AA CALLER JUMPDEST PUSH1 0x40 MLOAD PUSH1 0x1 PUSH1 0x1 PUSH1 0xA0 SHL SUB SWAP1 SWAP2 AND DUP2 MSTORE PUSH1 0x20 ADD PUSH1 0x40 MLOAD DUP1 SWAP2 SUB SWAP1 LOG1 JUMP JUMPDEST PUSH1 0x2 PUSH1 0x0 SLOAD SUB PUSH2 0x1D59 JUMPI PUSH1 0x40 MLOAD PUSH4 0x3EE5AEB5 PUSH1 0xE0 SHL DUP2 MSTORE PUSH1 0x4 ADD PUSH1 0x40 MLOAD DUP1 SWAP2 SUB SWAP1 REVERT JUMPDEST PUSH1 0x2 PUSH1 0x0 SSTORE JUMP JUMPDEST PUSH1 0x40 MLOAD PUSH1 0x1 PUSH1 0x1 PUSH1 0xA0 SHL SUB DUP4 DUP2 AND PUSH1 0x24 DUP4 ADD MSTORE PUSH1 0x44 DUP3 ADD DUP4 SWAP1 MSTORE PUSH2 0x1DBF SWAP2 DUP6 SWAP2 DUP3 AND SWAP1 PUSH4 0xA9059CBB SWAP1 PUSH1 0x64 ADD JUMPDEST PUSH1 0x40 MLOAD PUSH1 0x20 DUP2 DUP4 SUB SUB DUP2 MSTORE SWAP1 PUSH1 0x40 MSTORE SWAP2 POP PUSH1 0xE0 SHL PUSH1 0x20 DUP3 ADD DUP1 MLOAD PUSH1 0x1 PUSH1 0x1 PUSH1 0xE0 SHL SUB DUP4 DUP2 DUP4 AND OR DUP4 MSTORE POP POP POP POP PUSH2 0x2461 JUMP JUMPDEST POP POP POP JUMP JUMPDEST PUSH1 0x40 MLOAD PUSH1 0x1 PUSH1 0x1 PUSH1 0xA0 SHL SUB DUP5 DUP2 AND PUSH1 0x24 DUP4 ADD MSTORE DUP4 DUP2 AND PUSH1 0x44 DUP4 ADD MSTORE PUSH1 0x64 DUP3 ADD DUP4 SWAP1 MSTORE PUSH2 0x1DFD SWAP2 DUP7 SWAP2 DUP3 AND SWAP1 PUSH4 0x23B872DD SWAP1 PUSH1 0x84 ADD PUSH2 0x1D8D JUMP JUMPDEST POP POP POP POP JUMP JUMPDEST PUSH2 0x1E0B PUSH2 0x1ADB JUMP JUMPDEST PUSH1 0x1 DUP1 SLOAD PUSH1 0xFF NOT AND DUP2 OR SWAP1 SSTORE PUSH32 0x62E78CEA01BEE320CD4E420270B5EA74000D11B0C9F74754EBDBFC544B05A258 CALLER PUSH2 0x1D19 JUMP JUMPDEST PUSH1 0x60 PUSH2 0x1893 PUSH32 0x0 PUSH1 0x2 PUSH2 0x24D2 JUMP JUMPDEST PUSH1 0x60 PUSH2 0x1893 PUSH32 0x0 PUSH1 0x3 PUSH2 0x24D2 JUMP JUMPDEST PUSH1 0x0 ADDRESS PUSH1 0x1 PUSH1 0x1 PUSH1 0xA0 SHL SUB PUSH32 0x0 AND EQ DUP1 ISZERO PUSH2 0x1EF1 JUMPI POP PUSH32 0x0 CHAINID EQ JUMPDEST ISZERO PUSH2 0x1F1B JUMPI POP PUSH32 0x0 SWAP1 JUMP JUMPDEST PUSH2 0x1893 PUSH1 0x40 DUP1 MLOAD PUSH32 0x8B73C3C69BB8FE3D512ECC4CF759CC79239F7B179B0FFACAA9A75D522B39400F PUSH1 0x20 DUP3 ADD MSTORE PUSH32 0x0 SWAP2 DUP2 ADD SWAP2 SWAP1 SWAP2 MSTORE PUSH32 0x0 PUSH1 0x60 DUP3 ADD MSTORE CHAINID PUSH1 0x80 DUP3 ADD MSTORE ADDRESS PUSH1 0xA0 DUP3 ADD MSTORE PUSH1 0x0 SWAP1 PUSH1 0xC0 ADD PUSH1 0x40 MLOAD PUSH1 0x20 DUP2 DUP4 SUB SUB DUP2 MSTORE SWAP1 PUSH1 0x40 MSTORE DUP1 MLOAD SWAP1 PUSH1 0x20 ADD KECCAK256 SWAP1 POP SWAP1 JUMP JUMPDEST PUSH1 0x0 DUP5 DUP2 MSTORE PUSH1 0x6 PUSH1 0x20 MSTORE PUSH1 0x40 DUP2 KECCAK256 DUP2 PUSH1 0x5 DUP3 ADD SLOAD PUSH1 0xFF AND PUSH1 0x3 DUP2 GT ISZERO PUSH2 0x1FEB JUMPI PUSH2 0x1FEB PUSH2 0x2712 JUMP JUMPDEST EQ PUSH2 0x2026 JUMPI PUSH1 0x40 MLOAD PUSH3 0x461BCD PUSH1 0xE5 SHL DUP2 MSTORE PUSH1 0x20 PUSH1 0x4 DUP3 ADD MSTORE PUSH1 0xB PUSH1 0x24 DUP3 ADD MSTORE PUSH11 0x4E6F742070656E64696E67 PUSH1 0xA8 SHL PUSH1 0x44 DUP3 ADD MSTORE PUSH1 0x64 ADD PUSH2 0x720 JUMP JUMPDEST DUP1 PUSH1 0x4 ADD SLOAD TIMESTAMP LT PUSH2 0x2063 JUMPI PUSH1 0x40 MLOAD PUSH3 0x461BCD PUSH1 0xE5 SHL DUP2 MSTORE PUSH1 0x20 PUSH1 0x4 DUP3 ADD MSTORE PUSH1 0x7 PUSH1 0x24 DUP3 ADD MSTORE PUSH7 0x115E1C1A5C9959 PUSH1 0xCA SHL PUSH1 0x44 DUP3 ADD MSTORE PUSH1 0x64 ADD PUSH2 0x720 JUMP JUMPDEST PUSH1 0x1 PUSH1 0x1 PUSH1 0xA0 SHL SUB DUP6 AND PUSH2 0x20AA JUMPI PUSH1 0x40 MLOAD PUSH3 0x461BCD PUSH1 0xE5 SHL DUP2 MSTORE PUSH1 0x20 PUSH1 0x4 DUP3 ADD MSTORE PUSH1 0xE PUSH1 0x24 DUP3 ADD MSTORE PUSH14 0x24B73B30B634B2103BB7B935B2B9 PUSH1 0x91 SHL PUSH1 0x44 DUP3 ADD MSTORE PUSH1 0x64 ADD PUSH2 0x720 JUMP JUMPDEST PUSH1 0x1 PUSH1 0x1 PUSH1 0xA0 SHL SUB DUP5 AND PUSH2 0x20F3 JUMPI PUSH1 0x40 MLOAD PUSH3 0x461BCD PUSH1 0xE5 SHL DUP2 MSTORE PUSH1 0x20 PUSH1 0x4 DUP3 ADD MSTORE PUSH1 0x10 PUSH1 0x24 DUP3 ADD MSTORE PUSH16 0x24B73B30B634B2103B32B934B334B2B9 PUSH1 0x81 SHL PUSH1 0x44 DUP3 ADD MSTORE PUSH1 0x64 ADD PUSH2 0x720 JUMP JUMPDEST PUSH8 0xDE0B6B3A7640000 DUP4 LT ISZERO PUSH2 0x213C JUMPI PUSH1 0x40 MLOAD PUSH3 0x461BCD PUSH1 0xE5 SHL DUP2 MSTORE PUSH1 0x20 PUSH1 0x4 DUP3 ADD MSTORE PUSH1 0xE PUSH1 0x24 DUP3 ADD MSTORE PUSH14 0x109BDB99081D1BDBC81CDB585B1B PUSH1 0x92 SHL PUSH1 0x44 DUP3 ADD MSTORE PUSH1 0x64 ADD PUSH2 0x720 JUMP JUMPDEST PUSH1 0x5 DUP2 ADD DUP1 SLOAD PUSH1 0xFF NOT AND PUSH1 0x1 SWAP1 DUP2 OR SWAP1 SWAP2 SSTORE DUP2 ADD SLOAD PUSH2 0x2192 SWAP1 PUSH32 0x0 PUSH1 0x1 PUSH1 0x1 PUSH1 0xA0 SHL SUB SWAP1 DUP2 AND SWAP2 AND PUSH9 0x56BC75E2D63100000 PUSH2 0x1D60 JUMP JUMPDEST PUSH1 0x0 PUSH1 0x5 PUSH1 0x0 DUP2 SLOAD PUSH2 0x21A3 SWAP1 PUSH2 0x2BF3 JUMP JUMPDEST SWAP2 SWAP1 POP DUP2 SWAP1 SSTORE SWAP1 POP PUSH1 0x40 MLOAD DUP1 PUSH2 0x140 ADD PUSH1 0x40 MSTORE DUP1 DUP3 DUP2 MSTORE PUSH1 0x20 ADD DUP9 DUP2 MSTORE PUSH1 0x20 ADD DUP8 PUSH1 0x1 PUSH1 0x1 PUSH1 0xA0 SHL SUB AND DUP2 MSTORE PUSH1 0x20 ADD DUP7 PUSH1 0x1 PUSH1 0x1 PUSH1 0xA0 SHL SUB AND DUP2 MSTORE PUSH1 0x20 ADD DUP4 PUSH1 0x3 ADD SLOAD DUP2 MSTORE PUSH1 0x20 ADD DUP6 DUP2 MSTORE PUSH1 0x20 ADD PUSH1 0x0 PUSH1 0x5 DUP2 GT ISZERO PUSH2 0x2204 JUMPI PUSH2 0x2204 PUSH2 0x2712 JUMP JUMPDEST DUP2 MSTORE PUSH1 0x0 PUSH1 0x20 DUP1 DUP4 ADD DUP3 SWAP1 MSTORE TIMESTAMP PUSH1 0x40 DUP1 DUP6 ADD SWAP2 SWAP1 SWAP2 MSTORE PUSH1 0x60 SWAP4 DUP5 ADD DUP4 SWAP1 MSTORE DUP6 DUP4 MSTORE PUSH1 0x7 DUP3 MSTORE SWAP2 DUP3 SWAP1 KECCAK256 DUP5 MLOAD DUP2 SSTORE SWAP1 DUP5 ADD MLOAD PUSH1 0x1 DUP1 DUP4 ADD SWAP2 SWAP1 SWAP2 SSTORE SWAP2 DUP5 ADD MLOAD PUSH1 0x2 DUP3 ADD DUP1 SLOAD PUSH1 0x1 PUSH1 0x1 PUSH1 0xA0 SHL SUB NOT SWAP1 DUP2 AND PUSH1 0x1 PUSH1 0x1 PUSH1 0xA0 SHL SUB SWAP4 DUP5 AND OR SWAP1 SWAP2 SSTORE SWAP4 DUP6 ADD MLOAD PUSH1 0x3 DUP4 ADD DUP1 SLOAD SWAP1 SWAP6 AND SWAP2 AND OR SWAP1 SWAP3 SSTORE PUSH1 0x80 DUP4 ADD MLOAD PUSH1 0x4 DUP4 ADD SSTORE PUSH1 0xA0 DUP4 ADD MLOAD PUSH1 0x5 DUP1 DUP5 ADD SWAP2 SWAP1 SWAP2 SSTORE PUSH1 0xC0 DUP5 ADD MLOAD PUSH1 0x6 DUP5 ADD DUP1 SLOAD SWAP2 SWAP4 SWAP1 SWAP3 PUSH1 0xFF NOT SWAP1 SWAP3 AND SWAP2 DUP5 SWAP1 DUP2 GT ISZERO PUSH2 0x22B5 JUMPI PUSH2 0x22B5 PUSH2 0x2712 JUMP JUMPDEST MUL OR SWAP1 SSTORE POP PUSH1 0xE0 DUP3 ADD MLOAD PUSH1 0x6 DUP3 ADD DUP1 SLOAD PUSH2 0xFF00 NOT AND PUSH2 0x100 SWAP3 ISZERO ISZERO DUP4 MUL OR SWAP1 SSTORE DUP3 ADD MLOAD PUSH1 0x7 DUP3 ADD SSTORE PUSH2 0x120 SWAP1 SWAP2 ADD MLOAD PUSH1 0x8 SWAP1 SWAP2 ADD SSTORE PUSH1 0x40 MLOAD PUSH1 0x1 PUSH1 0x1 PUSH1 0xA0 SHL SUB DUP7 DUP2 AND DUP3 MSTORE DUP8 AND SWAP1 DUP3 SWAP1 DUP10 SWAP1 PUSH32 0xC871951ED5E4AB863F8D91AF56AF516212C52A36A82694B32BE47292E4F0E2AE SWAP1 PUSH1 0x20 ADD PUSH1 0x40 MLOAD DUP1 SWAP2 SUB SWAP1 LOG4 SWAP7 SWAP6 POP POP POP POP POP POP JUMP JUMPDEST PUSH1 0x0 DUP1 PUSH1 0x0 DUP4 MLOAD PUSH1 0x41 SUB PUSH2 0x2372 JUMPI PUSH1 0x20 DUP5 ADD MLOAD PUSH1 0x40 DUP6 ADD MLOAD PUSH1 0x60 DUP7 ADD MLOAD PUSH1 0x0 BYTE PUSH2 0x2364 DUP9 DUP3 DUP6 DUP6 PUSH2 0x257D JUMP JUMPDEST SWAP6 POP SWAP6 POP SWAP6 POP POP POP POP PUSH2 0x237E JUMP JUMPDEST POP POP DUP2 MLOAD PUSH1 0x0 SWAP2 POP PUSH1 0x2 SWAP1 JUMPDEST SWAP3 POP SWAP3 POP SWAP3 JUMP JUMPDEST PUSH1 0x0 DUP3 PUSH1 0x3 DUP2 GT ISZERO PUSH2 0x2399 JUMPI PUSH2 0x2399 PUSH2 0x2712 JUMP JUMPDEST SUB PUSH2 0x23A2 JUMPI POP POP JUMP JUMPDEST PUSH1 0x1 DUP3 PUSH1 0x3 DUP2 GT ISZERO PUSH2 0x23B6 JUMPI PUSH2 0x23B6 PUSH2 0x2712 JUMP JUMPDEST SUB PUSH2 0x23D4 JUMPI PUSH1 0x40 MLOAD PUSH4 0xF645EEDF PUSH1 0xE0 SHL DUP2 MSTORE PUSH1 0x4 ADD PUSH1 0x40 MLOAD DUP1 SWAP2 SUB SWAP1 REVERT JUMPDEST PUSH1 0x2 DUP3 PUSH1 0x3 DUP2 GT ISZERO PUSH2 0x23E8 JUMPI PUSH2 0x23E8 PUSH2 0x2712 JUMP JUMPDEST SUB PUSH2 0x2409 JUMPI PUSH1 0x40 MLOAD PUSH4 0xFCE698F7 PUSH1 0xE0 SHL DUP2 MSTORE PUSH1 0x4 DUP2 ADD DUP3 SWAP1 MSTORE PUSH1 0x24 ADD PUSH2 0x720 JUMP JUMPDEST PUSH1 0x3 DUP3 PUSH1 0x3 DUP2 GT ISZERO PUSH2 0x241D JUMPI PUSH2 0x241D PUSH2 0x2712 JUMP JUMPDEST SUB PUSH2 0xFC0 JUMPI PUSH1 0x40 MLOAD PUSH4 0x35E2F383 PUSH1 0xE2 SHL DUP2 MSTORE PUSH1 0x4 DUP2 ADD DUP3 SWAP1 MSTORE PUSH1 0x24 ADD PUSH2 0x720 JUMP JUMPDEST PUSH1 0x1 SLOAD PUSH1 0xFF AND PUSH2 0x9C5 JUMPI PUSH1 0x40 MLOAD PUSH4 0x8DFC202B PUSH1 0xE0 SHL DUP2 MSTORE PUSH1 0x4 ADD PUSH1 0x40 MLOAD DUP1 SWAP2 SUB SWAP1 REVERT JUMPDEST PUSH1 0x0 DUP1 PUSH1 0x20 PUSH1 0x0 DUP5 MLOAD PUSH1 0x20 DUP7 ADD PUSH1 0x0 DUP9 GAS CALL DUP1 PUSH2 0x2484 JUMPI PUSH1 0x40 MLOAD RETURNDATASIZE PUSH1 0x0 DUP3 RETURNDATACOPY RETURNDATASIZE DUP2 REVERT JUMPDEST POP POP PUSH1 0x0 MLOAD RETURNDATASIZE SWAP2 POP DUP2 ISZERO PUSH2 0x249C JUMPI DUP1 PUSH1 0x1 EQ ISZERO PUSH2 0x24A9 JUMP JUMPDEST PUSH1 0x1 PUSH1 0x1 PUSH1 0xA0 SHL SUB DUP5 AND EXTCODESIZE ISZERO JUMPDEST ISZERO PUSH2 0x1DFD JUMPI PUSH1 0x40 MLOAD PUSH4 0x5274AFE7 PUSH1 0xE0 SHL DUP2 MSTORE PUSH1 0x1 PUSH1 0x1 PUSH1 0xA0 SHL SUB DUP6 AND PUSH1 0x4 DUP3 ADD MSTORE PUSH1 0x24 ADD PUSH2 0x720 JUMP JUMPDEST PUSH1 0x60 PUSH1 0xFF DUP4 EQ PUSH2 0x24EC JUMPI PUSH2 0x24E5 DUP4 PUSH2 0x264C JUMP JUMPDEST SWAP1 POP PUSH2 0x1AD5 JUMP JUMPDEST DUP2 DUP1 SLOAD PUSH2 0x24F8 SWAP1 PUSH2 0x2B1A JUMP JUMPDEST DUP1 PUSH1 0x1F ADD PUSH1 0x20 DUP1 SWAP2 DIV MUL PUSH1 0x20 ADD PUSH1 0x40 MLOAD SWAP1 DUP2 ADD PUSH1 0x40 MSTORE DUP1 SWAP3 SWAP2 SWAP1 DUP2 DUP2 MSTORE PUSH1 0x20 ADD DUP3 DUP1 SLOAD PUSH2 0x2524 SWAP1 PUSH2 0x2B1A JUMP JUMPDEST DUP1 ISZERO PUSH2 0x2571 JUMPI DUP1 PUSH1 0x1F LT PUSH2 0x2546 JUMPI PUSH2 0x100 DUP1 DUP4 SLOAD DIV MUL DUP4 MSTORE SWAP2 PUSH1 0x20 ADD SWAP2 PUSH2 0x2571 JUMP JUMPDEST DUP3 ADD SWAP2 SWAP1 PUSH1 0x0 MSTORE PUSH1 0x20 PUSH1 0x0 KECCAK256 SWAP1 JUMPDEST DUP2 SLOAD DUP2 MSTORE SWAP1 PUSH1 0x1 ADD SWAP1 PUSH1 0x20 ADD DUP1 DUP4 GT PUSH2 0x2554 JUMPI DUP3 SWAP1 SUB PUSH1 0x1F AND DUP3 ADD SWAP2 JUMPDEST POP POP POP POP POP SWAP1 POP PUSH2 0x1AD5 JUMP JUMPDEST PUSH1 0x0 DUP1 DUP1 PUSH32 0x7FFFFFFFFFFFFFFFFFFFFFFFFFFFFFFF5D576E7357A4501DDFE92F46681B20A0 DUP5 GT ISZERO PUSH2 0x25B8 JUMPI POP PUSH1 0x0 SWAP2 POP PUSH1 0x3 SWAP1 POP DUP3 PUSH2 0x2642 JUMP JUMPDEST PUSH1 0x40 DUP1 MLOAD PUSH1 0x0 DUP1 DUP3 MSTORE PUSH1 0x20 DUP3 ADD DUP1 DUP5 MSTORE DUP11 SWAP1 MSTORE PUSH1 0xFF DUP10 AND SWAP3 DUP3 ADD SWAP3 SWAP1 SWAP3 MSTORE PUSH1 0x60 DUP2 ADD DUP8 SWAP1 MSTORE PUSH1 0x80 DUP2 ADD DUP7 SWAP1 MSTORE PUSH1 0x1 SWAP1 PUSH1 0xA0 ADD PUSH1 0x20 PUSH1 0x40 MLOAD PUSH1 0x20 DUP2 SUB SWAP1 DUP1 DUP5 SUB SWAP1 DUP6 GAS STATICCALL ISZERO DUP1 ISZERO PUSH2 0x260C JUMPI RETURNDATASIZE PUSH1 0x0 DUP1 RETURNDATACOPY RETURNDATASIZE PUSH1 0x0 REVERT JUMPDEST POP POP PUSH1 0x40 MLOAD PUSH1 0x1F NOT ADD MLOAD SWAP2 POP POP PUSH1 0x1 PUSH1 0x1 PUSH1 0xA0 SHL SUB DUP2 AND PUSH2 0x2638 JUMPI POP PUSH1 0x0 SWAP3 POP PUSH1 0x1 SWAP2 POP DUP3 SWAP1 POP PUSH2 0x2642 JUMP JUMPDEST SWAP3 POP PUSH1 0x0 SWAP2 POP DUP2 SWAP1 POP JUMPDEST SWAP5 POP SWAP5 POP SWAP5 SWAP2 POP POP JUMP JUMPDEST PUSH1 0x60 PUSH1 0x0 PUSH2 0x2659 DUP4 PUSH2 0x268B JUMP JUMPDEST PUSH1 0x40 DUP1 MLOAD PUSH1 0x20 DUP1 DUP3 MSTORE DUP2 DUP4 ADD SWAP1 SWAP3 MSTORE SWAP2 SWAP3 POP PUSH1 0x0 SWAP2 SWAP1 PUSH1 0x20 DUP3 ADD DUP2 DUP1 CALLDATASIZE DUP4 CALLDATACOPY POP POP POP SWAP2 DUP3 MSTORE POP PUSH1 0x20 DUP2 ADD SWAP3 SWAP1 SWAP3 MSTORE POP SWAP1 JUMP JUMPDEST PUSH1 0x0 PUSH1 0xFF DUP3 AND PUSH1 0x1F DUP2 GT ISZERO PUSH2 0x1AD5 JUMPI PUSH1 0x40 MLOAD PUSH4 0x2CD44AC3 PUSH1 0xE2 SHL DUP2 MSTORE PUSH1 0x4 ADD PUSH1 0x40 MLOAD DUP1 SWAP2 SUB SWAP1 REVERT JUMPDEST PUSH1 0x0 PUSH1 0x20 DUP3 DUP5 SUB SLT ISZERO PUSH2 0x26C5 JUMPI PUSH1 0x0 DUP1 REVERT JUMPDEST POP CALLDATALOAD SWAP2 SWAP1 POP JUMP JUMPDEST PUSH1 0x0 DUP2 MLOAD DUP1 DUP5 MSTORE PUSH1 0x0 JUMPDEST DUP2 DUP2 LT ISZERO PUSH2 0x26F2 JUMPI PUSH1 0x20 DUP2 DUP6 ADD DUP2 ADD MLOAD DUP7 DUP4 ADD DUP3 ADD MSTORE ADD PUSH2 0x26D6 JUMP JUMPDEST POP PUSH1 0x0 PUSH1 0x20 DUP3 DUP7 ADD ADD MSTORE PUSH1 0x20 PUSH1 0x1F NOT PUSH1 0x1F DUP4 ADD AND DUP6 ADD ADD SWAP2 POP POP SWAP3 SWAP2 POP POP JUMP JUMPDEST PUSH4 0x4E487B71 PUSH1 0xE0 SHL PUSH1 0x0 MSTORE PUSH1 0x21 PUSH1 0x4 MSTORE PUSH1 0x24 PUSH1 0x0 REVERT JUMPDEST DUP8 DUP2 MSTORE PUSH1 0x1 PUSH1 0x1 PUSH1 0xA0 SHL SUB DUP8 AND PUSH1 0x20 DUP3 ADD MSTORE PUSH1 0xE0 PUSH1 0x40 DUP3 ADD DUP2 SWAP1 MSTORE PUSH1 0x0 SWAP1 PUSH2 0x2752 SWAP1 DUP4 ADD DUP9 PUSH2 0x26CC JUMP JUMPDEST SWAP1 POP DUP6 PUSH1 0x60 DUP4 ADD MSTORE DUP5 PUSH1 0x80 DUP4 ADD MSTORE PUSH1 0x4 DUP5 LT PUSH2 0x2770 JUMPI PUSH2 0x2770 PUSH2 0x2712 JUMP JUMPDEST PUSH1 0xA0 DUP3 ADD SWAP4 SWAP1 SWAP4 MSTORE PUSH1 0xC0 ADD MSTORE SWAP6 SWAP5 POP POP POP POP POP JUMP JUMPDEST PUSH1 0x0 DUP1 DUP4 PUSH1 0x1F DUP5 ADD SLT PUSH2 0x2797 JUMPI PUSH1 0x0 DUP1 REVERT JUMPDEST POP DUP2 CALLDATALOAD PUSH8 0xFFFFFFFFFFFFFFFF DUP2 GT ISZERO PUSH2 0x27AF JUMPI PUSH1 0x0 DUP1 REVERT JUMPDEST PUSH1 0x20 DUP4 ADD SWAP2 POP DUP4 PUSH1 0x20 DUP3 DUP6 ADD ADD GT ISZERO PUSH2 0x27C7 JUMPI PUSH1 0x0 DUP1 REVERT JUMPDEST SWAP3 POP SWAP3 SWAP1 POP JUMP JUMPDEST PUSH1 0x0 DUP1 PUSH1 0x0 DUP1 PUSH1 0x60 DUP6 DUP8 SUB SLT ISZERO PUSH2 0x27E4 JUMPI PUSH1 0x0 DUP1 REVERT JUMPDEST DUP5 CALLDATALOAD SWAP4 POP PUSH1 0x20 DUP6 ADD CALLDATALOAD PUSH8 0xFFFFFFFFFFFFFFFF DUP2 GT ISZERO PUSH2 0x2802 JUMPI PUSH1 0x0 DUP1 REVERT JUMPDEST PUSH2 0x280E DUP8 DUP3 DUP9 ADD PUSH2 0x2785 JUMP JUMPDEST SWAP6 SWAP9 SWAP1 SWAP8 POP SWAP5 SWAP6 PUSH1 0x40 ADD CALLDATALOAD SWAP5 SWAP4 POP POP POP POP JUMP JUMPDEST PUSH1 0x0 DUP1 PUSH1 0x0 DUP1 PUSH1 0x0 DUP1 PUSH1 0x80 DUP8 DUP10 SUB SLT ISZERO PUSH2 0x283A JUMPI PUSH1 0x0 DUP1 REVERT JUMPDEST DUP7 CALLDATALOAD SWAP6 POP PUSH1 0x20 DUP8 ADD CALLDATALOAD PUSH8 0xFFFFFFFFFFFFFFFF DUP1 DUP3 GT ISZERO PUSH2 0x2859 JUMPI PUSH1 0x0 DUP1 REVERT JUMPDEST PUSH2 0x2865 DUP11 DUP4 DUP12 ADD PUSH2 0x2785 JUMP JUMPDEST SWAP1 SWAP8 POP SWAP6 POP PUSH1 0x40 DUP10 ADD CALLDATALOAD SWAP5 POP PUSH1 0x60 DUP10 ADD CALLDATALOAD SWAP2 POP DUP1 DUP3 GT ISZERO PUSH2 0x2885 JUMPI PUSH1 0x0 DUP1 REVERT JUMPDEST POP PUSH2 0x2892 DUP10 DUP3 DUP11 ADD PUSH2 0x2785 JUMP JUMPDEST SWAP8 SWAP11 SWAP7 SWAP10 POP SWAP5 SWAP8 POP SWAP3 SWAP6 SWAP4 SWAP5 SWAP3 POP POP POP JUMP JUMPDEST DUP1 CALLDATALOAD PUSH1 0x1 PUSH1 0x1 PUSH1 0xA0 SHL SUB DUP2 AND DUP2 EQ PUSH2 0x28BB JUMPI PUSH1 0x0 DUP1 REVERT JUMPDEST SWAP2 SWAP1 POP JUMP JUMPDEST PUSH1 0x0 DUP1 PUSH1 0x0 DUP1 PUSH1 0x0 PUSH1 0xA0 DUP7 DUP9 SUB SLT ISZERO PUSH2 0x28D8 JUMPI PUSH1 0x0 DUP1 REVERT JUMPDEST DUP6 CALLDATALOAD SWAP5 POP PUSH2 0x28E8 PUSH1 0x20 DUP8 ADD PUSH2 0x28A4 JUMP JUMPDEST SWAP4 POP PUSH2 0x28F6 PUSH1 0x40 DUP8 ADD PUSH2 0x28A4 JUMP JUMPDEST SWAP5 SWAP8 SWAP4 SWAP7 POP SWAP4 SWAP5 PUSH1 0x60 DUP2 ADD CALLDATALOAD SWAP5 POP PUSH1 0x80 ADD CALLDATALOAD SWAP3 SWAP2 POP POP JUMP JUMPDEST PUSH1 0x0 DUP1 PUSH1 0x40 DUP4 DUP6 SUB SLT ISZERO PUSH2 0x2921 JUMPI PUSH1 0x0 DUP1 REVERT JUMPDEST DUP3 CALLDATALOAD SWAP2 POP PUSH1 0x20 DUP4 ADD CALLDATALOAD DUP1 ISZERO ISZERO DUP2 EQ PUSH2 0x2938 JUMPI PUSH1 0x0 DUP1 REVERT JUMPDEST DUP1 SWAP2 POP POP SWAP3 POP SWAP3 SWAP1 POP JUMP JUMPDEST PUSH1 0xFF PUSH1 0xF8 SHL DUP9 AND DUP2 MSTORE PUSH1 0x0 PUSH1 0x20 PUSH1 0xE0 DUP2 DUP5 ADD MSTORE PUSH2 0x2963 PUSH1 0xE0 DUP5 ADD DUP11 PUSH2 0x26CC JUMP JUMPDEST DUP4 DUP2 SUB PUSH1 0x40 DUP6 ADD MSTORE PUSH2 0x2975 DUP2 DUP11 PUSH2 0x26CC JUMP JUMPDEST PUSH1 0x60 DUP6 ADD DUP10 SWAP1 MSTORE PUSH1 0x1 PUSH1 0x1 PUSH1 0xA0 SHL SUB DUP9 AND PUSH1 0x80 DUP7 ADD MSTORE PUSH1 0xA0 DUP6 ADD DUP8 SWAP1 MSTORE DUP5 DUP2 SUB PUSH1 0xC0 DUP7 ADD MSTORE DUP6 MLOAD DUP1 DUP3 MSTORE DUP4 DUP8 ADD SWAP3 POP SWAP1 DUP4 ADD SWAP1 PUSH1 0x0 JUMPDEST DUP2 DUP2 LT ISZERO PUSH2 0x29C7 JUMPI DUP4 MLOAD DUP4 MSTORE SWAP3 DUP5 ADD SWAP3 SWAP2 DUP5 ADD SWAP2 PUSH1 0x1 ADD PUSH2 0x29AB JUMP JUMPDEST POP SWAP1 SWAP13 SWAP12 POP POP POP POP POP POP POP POP POP POP POP POP JUMP JUMPDEST DUP11 DUP2 MSTORE PUSH1 0x20 DUP2 ADD DUP11 SWAP1 MSTORE PUSH1 0x1 PUSH1 0x1 PUSH1 0xA0 SHL SUB DUP10 DUP2 AND PUSH1 0x40 DUP4 ADD MSTORE DUP9 AND PUSH1 0x60 DUP3 ADD MSTORE PUSH1 0x80 DUP2 ADD DUP8 SWAP1 MSTORE PUSH1 0xA0 DUP2 ADD DUP7 SWAP1 MSTORE PUSH2 0x140 DUP2 ADD PUSH1 0x6 DUP7 LT PUSH2 0x2A1D JUMPI PUSH2 0x2A1D PUSH2 0x2712 JUMP JUMPDEST PUSH1 0xC0 DUP3 ADD SWAP6 SWAP1 SWAP6 MSTORE SWAP3 ISZERO ISZERO PUSH1 0xE0 DUP5 ADD MSTORE PUSH2 0x100 DUP4 ADD SWAP2 SWAP1 SWAP2 MSTORE PUSH2 0x120 SWAP1 SWAP2 ADD MSTORE SWAP7 SWAP6 POP POP POP POP POP POP JUMP JUMPDEST PUSH1 0x0 DUP1 PUSH1 0x0 DUP1 PUSH1 0x60 DUP6 DUP8 SUB SLT ISZERO PUSH2 0x2A5D JUMPI PUSH1 0x0 DUP1 REVERT JUMPDEST DUP5 CALLDATALOAD PUSH8 0xFFFFFFFFFFFFFFFF DUP2 GT ISZERO PUSH2 0x2A74 JUMPI PUSH1 0x0 DUP1 REVERT JUMPDEST PUSH2 0x2A80 DUP8 DUP3 DUP9 ADD PUSH2 0x2785 JUMP JUMPDEST SWAP1 SWAP9 SWAP1 SWAP8 POP PUSH1 0x20 DUP8 ADD CALLDATALOAD SWAP7 PUSH1 0x40 ADD CALLDATALOAD SWAP6 POP SWAP4 POP POP POP POP JUMP JUMPDEST PUSH1 0x0 DUP1 PUSH1 0x0 DUP1 PUSH1 0x0 DUP1 PUSH1 0x0 PUSH1 0xC0 DUP9 DUP11 SUB SLT ISZERO PUSH2 0x2AB3 JUMPI PUSH1 0x0 DUP1 REVERT JUMPDEST DUP8 CALLDATALOAD SWAP7 POP PUSH2 0x2AC3 PUSH1 0x20 DUP10 ADD PUSH2 0x28A4 JUMP JUMPDEST SWAP6 POP PUSH2 0x2AD1 PUSH1 0x40 DUP10 ADD PUSH2 0x28A4 JUMP JUMPDEST SWAP5 POP PUSH1 0x60 DUP9 ADD CALLDATALOAD SWAP4 POP PUSH1 0x80 DUP9 ADD CALLDATALOAD SWAP3 POP PUSH1 0xA0 DUP9 ADD CALLDATALOAD PUSH8 0xFFFFFFFFFFFFFFFF DUP2 GT ISZERO PUSH2 0x2AFB JUMPI PUSH1 0x0 DUP1 REVERT JUMPDEST PUSH2 0x2B07 DUP11 DUP3 DUP12 ADD PUSH2 0x2785 JUMP JUMPDEST SWAP9 SWAP12 SWAP8 SWAP11 POP SWAP6 SWAP9 POP SWAP4 SWAP7 SWAP3 SWAP6 SWAP3 SWAP4 POP POP POP JUMP JUMPDEST PUSH1 0x1 DUP2 DUP2 SHR SWAP1 DUP3 AND DUP1 PUSH2 0x2B2E JUMPI PUSH1 0x7F DUP3 AND SWAP2 POP JUMPDEST PUSH1 0x20 DUP3 LT DUP2 SUB PUSH2 0x2B4E JUMPI PUSH4 0x4E487B71 PUSH1 0xE0 SHL PUSH1 0x0 MSTORE PUSH1 0x22 PUSH1 0x4 MSTORE PUSH1 0x24 PUSH1 0x0 REVERT JUMPDEST POP SWAP2 SWAP1 POP JUMP JUMPDEST DUP2 DUP4 DUP3 CALLDATACOPY PUSH1 0x0 SWAP2 ADD SWAP1 DUP2 MSTORE SWAP2 SWAP1 POP JUMP JUMPDEST PUSH4 0x4E487B71 PUSH1 0xE0 SHL PUSH1 0x0 MSTORE PUSH1 0x11 PUSH1 0x4 MSTORE PUSH1 0x24 PUSH1 0x0 REVERT JUMPDEST DUP1 DUP3 ADD DUP1 DUP3 GT ISZERO PUSH2 0x1AD5 JUMPI PUSH2 0x1AD5 PUSH2 0x2B64 JUMP JUMPDEST PUSH1 0x0 PUSH1 0x20 DUP3 DUP5 SUB SLT ISZERO PUSH2 0x2B9F JUMPI PUSH1 0x0 DUP1 REVERT JUMPDEST POP MLOAD SWAP2 SWAP1 POP JUMP JUMPDEST DUP2 DUP2 SUB DUP2 DUP2 GT ISZERO PUSH2 0x1AD5 JUMPI PUSH2 0x1AD5 PUSH2 0x2B64 JUMP JUMPDEST PUSH1 0x20 DUP1 DUP3 MSTORE PUSH1 0xA SWAP1 DUP3 ADD MSTORE PUSH10 0x2737BA103BB7B935B2B9 PUSH1 0xB1 SHL PUSH1 0x40 DUP3 ADD MSTORE PUSH1 0x60 ADD SWAP1 JUMP JUMPDEST PUSH4 0x4E487B71 PUSH1 0xE0 SHL PUSH1 0x0 MSTORE PUSH1 0x41 PUSH1 0x4 MSTORE PUSH1 0x24 PUSH1 0x0 REVERT JUMPDEST PUSH1 0x0 PUSH1 0x1 DUP3 ADD PUSH2 0x2C05 JUMPI PUSH2 0x2C05 PUSH2 0x2B64 JUMP JUMPDEST POP PUSH1 0x1 ADD SWAP1 JUMP JUMPDEST PUSH1 0x1F DUP3 GT ISZERO PUSH2 0x1DBF JUMPI PUSH1 0x0 DUP2 DUP2 MSTORE PUSH1 0x20 DUP2 KECCAK256 PUSH1 0x1F DUP6 ADD PUSH1 0x5 SHR DUP2 ADD PUSH1 0x20 DUP7 LT ISZERO PUSH2 0x2C33 JUMPI POP DUP1 JUMPDEST PUSH1 0x1F DUP6 ADD PUSH1 0x5 SHR DUP3 ADD SWAP2 POP JUMPDEST DUP2 DUP2 LT ISZERO PUSH2 0x2C52 JUMPI DUP3 DUP2 SSTORE PUSH1 0x1 ADD PUSH2 0x2C3F JUMP JUMPDEST POP POP POP POP POP POP JUMP JUMPDEST DUP2 MLOAD PUSH8 0xFFFFFFFFFFFFFFFF DUP2 GT ISZERO PUSH2 0x2C74 JUMPI PUSH2 0x2C74 PUSH2 0x2BDD JUMP JUMPDEST PUSH2 0x2C88 DUP2 PUSH2 0x2C82 DUP5 SLOAD PUSH2 0x2B1A JUMP JUMPDEST DUP5 PUSH2 0x2C0C JUMP JUMPDEST PUSH1 0x20 DUP1 PUSH1 0x1F DUP4 GT PUSH1 0x1 DUP2 EQ PUSH2 0x2CBD JUMPI PUSH1 0x0 DUP5 ISZERO PUSH2 0x2CA5 JUMPI POP DUP6 DUP4 ADD MLOAD JUMPDEST PUSH1 0x0 NOT PUSH1 0x3 DUP7 SWAP1 SHL SHR NOT AND PUSH1 0x1 DUP6 SWAP1 SHL OR DUP6 SSTORE PUSH2 0x2C52 JUMP JUMPDEST PUSH1 0x0 DUP6 DUP2 MSTORE PUSH1 0x20 DUP2 KECCAK256 PUSH1 0x1F NOT DUP7 AND SWAP2 JUMPDEST DUP3 DUP2 LT ISZERO PUSH2 0x2CEC JUMPI DUP9 DUP7 ADD MLOAD DUP3 SSTORE SWAP5 DUP5 ADD SWAP5 PUSH1 0x1 SWAP1 SWAP2 ADD SWAP1 DUP5 ADD PUSH2 0x2CCD JUMP JUMPDEST POP DUP6 DUP3 LT ISZERO PUSH2 0x2D0A JUMPI DUP8 DUP6 ADD MLOAD PUSH1 0x0 NOT PUSH1 0x3 DUP9 SWAP1 SHL PUSH1 0xF8 AND SHR NOT AND DUP2 SSTORE JUMPDEST POP POP POP POP POP PUSH1 0x1 SWAP1 DUP2 SHL ADD SWAP1 SSTORE POP JUMP JUMPDEST DUP1 DUP3 MUL DUP2 ISZERO DUP3 DUP3 DIV DUP5 EQ OR PUSH2 0x1AD5 JUMPI PUSH2 0x1AD5 PUSH2 0x2B64 JUMP JUMPDEST PUSH1 0x0 DUP3 PUSH2 0x2D4E JUMPI PUSH4 0x4E487B71 PUSH1 0xE0 SHL PUSH1 0x0 MSTORE PUSH1 0x12 PUSH1 0x4 MSTORE PUSH1 0x24 PUSH1 0x0 REVERT JUMPDEST POP DIV SWAP1 JUMP JUMPDEST PUSH1 0x20 DUP2 MSTORE DUP2 PUSH1 0x20 DUP3 ADD MSTORE DUP2 DUP4 PUSH1 0x40 DUP4 ADD CALLDATACOPY PUSH1 0x0 DUP2 DUP4 ADD PUSH1 0x40 SWAP1 DUP2 ADD SWAP2 SWAP1 SWAP2 MSTORE PUSH1 0x1F SWAP1 SWAP3 ADD PUSH1 0x1F NOT AND ADD ADD SWAP2 SWAP1 POP JUMP INVALID LOG2 PUSH5 0x6970667358 0x22 SLT KECCAK256 0xE6 PUSH7 0x61879B6CA02C91 0xCA DUP6 0xD4 0xB4 0xA9 0xFC PUSH4 0xCDD0EC5E DUP16 0x24 PUSH7 0xABAB45F4F4C7A3 PUSH5 0x2564736F6C PUSH4 0x43000814 STOP CALLER "},"methodIdentifiers":{"ACCEPT_PROPOSAL_TYPEHASH()":"df297e30","BOND_BURN_PERCENT()":"0c53627f","BURN_ADDRESS()":"fccc2813","CLGR()":"480bacd1","MAX_ESCROW()":"c7895646","MAX_OBJECTIVE_LENGTH()":"922509b7","MIN_WORKER_BOND()":"a639a574","PROPOSAL_BOND()":"7e3681bd","REJECT_PROPOSAL_TYPEHASH()":"0edddbc4","TASK_EXPIRY_DURATION()":"9f26af12","acceptProposalWithSignature(uint256,address,address,uint256,uint256,bytes)":"fb7f2dd8","clawger()":"3a04bdb8","eip712Domain()":"84b0196e","expireTask(uint256)":"62ecc47a","getAcceptProposalHash(uint256,address,address,uint256,uint256)":"13733774","getDomainSeparator()":"ed24911d","getRejectProposalHash(uint256,string,uint256)":"0ab68674","lockedWorkerBond(uint256)":"e008779d","owner()":"8da5cb5b","pause()":"8456cb59","paused()":"5c975abb","postWorkerBond(uint256)":"6517a7a1","proposalCounter()":"0c0512e9","proposalProcessed(uint256)":"2c200094","proposals(uint256)":"013cf08b","registry()":"7b103999","rejectProposalWithSignature(uint256,string,uint256,bytes)":"0b08f6c4","startTask(uint256)":"5f944326","submitProposal(string,uint256,uint256)":"a6b39cdd","submitWork(uint256)":"c4c11523","taskCounter()":"58671730","tasks(uint256)":"8d977672","unpause()":"3f4ba83a","verifyTask(uint256,bool)":"4b46e63e"}}}}}