{"contracts/ClawgerManager.sol":{"ClawgerManagerV4":{"abi":[{"inputs":[{"internalType":"address","name":"_clgr","type":"address"},{"internalType":"address","name":"_registry","type":"address"},{"internalType":"address","name":"_clawger","type":"address"}],"stateMutability":"nonpayable","type":"constructor"},{"inputs":[],"name":"EnforcedPause","type":"error"},{"inputs":[],"name":"ExpectedPause","type":"error"},{"inputs":[],"name":"ReentrancyGuardReentrantCall","type":"error"},{"inputs":[{"internalType":"address","name":"token","type":"address"}],"name":"SafeERC20FailedOperation","type":"error"},{"anonymous":false,"inputs":[{"indexed":false,"internalType":"address","name":"account","type":"address"}],"name":"Paused","type":"event"},{"anonymous":false,"inputs":[{"indexed":true,"internalType":"uint256","name":"proposalId","type":"uint256"},{"indexed":true,"internalType":"uint256","name":"taskId","type":"uint256"},{"indexed":false,"internalType":"address","name":"worker","type":"address"},{"indexed":false,"internalType":"address","name":"verifier","type":"address"}],"name":"ProposalAccepted","type":"event"},{"anonymous":false,"inputs":[{"indexed":true,"internalType":"uint256","name":"proposalId","type":"uint256"}],"name":"ProposalExpired","type":"event"},{"anonymous":false,"inputs":[{"indexed":true,"internalType":"uint256","name":"proposalId","type":"uint256"},{"indexed":false,"internalType":"string","name":"reason","type":"string"},{"indexed":false,"internalType":"uint256","name":"burned","type":"uint256"},{"indexed":false,"internalType":"uint256","name":"toClawger","type":"uint256"}],"name":"ProposalRejected","type":"event"},{"anonymous":false,"inputs":[{"indexed":true,"internalType":"uint256","name":"proposalId","type":"uint256"},{"indexed":true,"internalType":"address","name":"proposer","type":"address"},{"indexed":false,"internalType":"uint256","name":"escrow","type":"uint256"},{"indexed":false,"internalType":"uint256","name":"deadline","type":"uint256"}],"name":"ProposalSubmitted","type":"event"},{"anonymous":false,"inputs":[{"indexed":true,"internalType":"uint256","name":"taskId","type":"uint256"}],"name":"TaskExpired","type":"event"},{"anonymous":false,"inputs":[{"indexed":true,"internalType":"uint256","name":"taskId","type":"uint256"},{"indexed":false,"internalType":"bool","name":"success","type":"bool"},{"indexed":false,"internalType":"uint256","name":"payout","type":"uint256"}],"name":"TaskSettled","type":"event"},{"anonymous":false,"inputs":[{"indexed":false,"internalType":"address","name":"account","type":"address"}],"name":"Unpaused","type":"event"},{"anonymous":false,"inputs":[{"indexed":true,"internalType":"uint256","name":"taskId","type":"uint256"},{"indexed":true,"internalType":"address","name":"worker","type":"address"},{"indexed":false,"internalType":"uint256","name":"amount","type":"uint256"}],"name":"WorkerBondPosted","type":"event"},{"inputs":[],"name":"BOND_BURN_PERCENT","outputs":[{"internalType":"uint256","name":"","type":"uint256"}],"stateMutability":"view","type":"function"},{"inputs":[],"name":"BURN_ADDRESS","outputs":[{"internalType":"address","name":"","type":"address"}],"stateMutability":"view","type":"function"},{"inputs":[],"name":"CLGR","outputs":[{"internalType":"contract IERC20","name":"","type":"address"}],"stateMutability":"view","type":"function"},{"inputs":[],"name":"MAX_ESCROW","outputs":[{"internalType":"uint256","name":"","type":"uint256"}],"stateMutability":"view","type":"function"},{"inputs":[],"name":"MAX_OBJECTIVE_LENGTH","outputs":[{"internalType":"uint256","name":"","type":"uint256"}],"stateMutability":"view","type":"function"},{"inputs":[],"name":"MIN_WORKER_BOND","outputs":[{"internalType":"uint256","name":"","type":"uint256"}],"stateMutability":"view","type":"function"},{"inputs":[],"name":"PROPOSAL_BOND","outputs":[{"internalType":"uint256","name":"","type":"uint256"}],"stateMutability":"view","type":"function"},{"inputs":[],"name":"TASK_EXPIRY_DURATION","outputs":[{"internalType":"uint256","name":"","type":"uint256"}],"stateMutability":"view","type":"function"},{"inputs":[{"internalType":"uint256","name":"proposalId","type":"uint256"},{"internalType":"address","name":"worker","type":"address"},{"internalType":"address","name":"verifier","type":"address"},{"internalType":"uint256","name":"workerBond","type":"uint256"}],"name":"acceptProposal","outputs":[{"internalType":"uint256","name":"","type":"uint256"}],"stateMutability":"nonpayable","type":"function"},{"inputs":[],"name":"clawger","outputs":[{"internalType":"address","name":"","type":"address"}],"stateMutability":"view","type":"function"},{"inputs":[{"internalType":"uint256","name":"proposalId","type":"uint256"}],"name":"expireProposal","outputs":[],"stateMutability":"nonpayable","type":"function"},{"inputs":[{"internalType":"uint256","name":"taskId","type":"uint256"}],"name":"expireTask","outputs":[],"stateMutability":"nonpayable","type":"function"},{"inputs":[{"internalType":"uint256","name":"","type":"uint256"}],"name":"lockedWorkerBond","outputs":[{"internalType":"uint256","name":"","type":"uint256"}],"stateMutability":"view","type":"function"},{"inputs":[],"name":"owner","outputs":[{"internalType":"address","name":"","type":"address"}],"stateMutability":"view","type":"function"},{"inputs":[],"name":"pause","outputs":[],"stateMutability":"nonpayable","type":"function"},{"inputs":[],"name":"paused","outputs":[{"internalType":"bool","name":"","type":"bool"}],"stateMutability":"view","type":"function"},{"inputs":[{"internalType":"uint256","name":"taskId","type":"uint256"}],"name":"postWorkerBond","outputs":[],"stateMutability":"nonpayable","type":"function"},{"inputs":[],"name":"proposalCounter","outputs":[{"internalType":"uint256","name":"","type":"uint256"}],"stateMutability":"view","type":"function"},{"inputs":[{"internalType":"uint256","name":"","type":"uint256"}],"name":"proposals","outputs":[{"internalType":"uint256","name":"id","type":"uint256"},{"internalType":"address","name":"proposer","type":"address"},{"internalType":"string","name":"objective","type":"string"},{"internalType":"uint256","name":"escrow","type":"uint256"},{"internalType":"uint256","name":"deadline","type":"uint256"},{"internalType":"enum ClawgerManagerV4.ProposalStatus","name":"status","type":"uint8"},{"internalType":"uint256","name":"createdAt","type":"uint256"}],"stateMutability":"view","type":"function"},{"inputs":[],"name":"registry","outputs":[{"internalType":"contract IAgentRegistry","name":"","type":"address"}],"stateMutability":"view","type":"function"},{"inputs":[{"internalType":"uint256","name":"proposalId","type":"uint256"},{"internalType":"string","name":"reason","type":"string"}],"name":"rejectProposal","outputs":[],"stateMutability":"nonpayable","type":"function"},{"inputs":[{"internalType":"uint256","name":"taskId","type":"uint256"}],"name":"startTask","outputs":[],"stateMutability":"nonpayable","type":"function"},{"inputs":[{"internalType":"string","name":"objective","type":"string"},{"internalType":"uint256","name":"escrowAmount","type":"uint256"},{"internalType":"uint256","name":"deadline","type":"uint256"}],"name":"submitProposal","outputs":[{"internalType":"uint256","name":"","type":"uint256"}],"stateMutability":"nonpayable","type":"function"},{"inputs":[{"internalType":"uint256","name":"taskId","type":"uint256"}],"name":"submitWork","outputs":[],"stateMutability":"nonpayable","type":"function"},{"inputs":[],"name":"taskCounter","outputs":[{"internalType":"uint256","name":"","type":"uint256"}],"stateMutability":"view","type":"function"},{"inputs":[{"internalType":"uint256","name":"","type":"uint256"}],"name":"tasks","outputs":[{"internalType":"uint256","name":"id","type":"uint256"},{"internalType":"uint256","name":"proposalId","type":"uint256"},{"internalType":"address","name":"worker","type":"address"},{"internalType":"address","name":"verifier","type":"address"},{"internalType":"uint256","name":"escrow","type":"uint256"},{"internalType":"uint256","name":"workerBond","type":"uint256"},{"internalType":"enum ClawgerManagerV4.TaskStatus","name":"status","type":"uint8"},{"internalType":"bool","name":"settled","type":"bool"},{"internalType":"uint256","name":"createdAt","type":"uint256"},{"internalType":"uint256","name":"completedAt","type":"uint256"}],"stateMutability":"view","type":"function"},{"inputs":[],"name":"unpause","outputs":[],"stateMutability":"nonpayable","type":"function"},{"inputs":[{"internalType":"uint256","name":"taskId","type":"uint256"},{"internalType":"bool","name":"success","type":"bool"}],"name":"verifyTask","outputs":[],"stateMutability":"nonpayable","type":"function"}],"evm":{"bytecode":{"linkReferences":{},"object":"60e06040523480156200001157600080fd5b506040516200249438038062002494833981016040819052620000349162000166565b60016000556001600160a01b038316620000845760405162461bcd60e51b815260206004820152600c60248201526b24b73b30b634b21021a623a960a11b60448201526064015b60405180910390fd5b6001600160a01b038216620000cf5760405162461bcd60e51b815260206004820152601060248201526f496e76616c696420726567697374727960801b60448201526064016200007b565b6001600160a01b038116620001195760405162461bcd60e51b815260206004820152600f60248201526e24b73b30b634b21031b630bbb3b2b960891b60448201526064016200007b565b6001600160a01b0392831660805290821660c0521660a052600780546001600160a01b03191633179055620001b0565b80516001600160a01b03811681146200016157600080fd5b919050565b6000806000606084860312156200017c57600080fd5b620001878462000149565b9250620001976020850162000149565b9150620001a76040850162000149565b90509250925092565b60805160a05160c05161222162000273600039600081816102f7015281816107ac0152818161088501528181610a080152610ae201526000818161021c015281816105ea0152818161096501528181610fe50152818161113501526116d20152600081816102650152818161075c0152818161093b015281816109b701528181610d8501528181610ddb01528181610efb015281816110dd0152818161111301528181611172015281816113610152818161166f01526118ac01526122216000f3fe608060405234801561001057600080fd5b50600436106101c45760003560e01c80638456cb59116100f9578063a6b39cdd11610097578063e008779d11610071578063e008779d14610438578063e1b526b014610458578063ef9b8e9b1461046b578063fccc28131461047e57600080fd5b8063a6b39cdd14610401578063c4c1152314610414578063c78956461461042757600080fd5b8063922509b7116100d3578063922509b7146103cc578063952a5be7146103d55780639f26af12146103e8578063a639a574146103f257600080fd5b80638456cb59146103295780638d977672146103315780638da5cb5b146103b957600080fd5b8063586717301161016657806362ecc47a1161014057806362ecc47a146102cc5780636517a7a1146102df5780637b103999146102f25780637e3681bd1461031957600080fd5b8063586717301461029a5780635c975abb146102a35780635f944326146102b957600080fd5b80633a04bdb8116101a25780633a04bdb8146102175780633f4ba83a14610256578063480bacd1146102605780634b46e63e1461028757600080fd5b8063013cf08b146101c95780630c0512e9146101f85780630c53627f1461020f575b600080fd5b6101dc6101d7366004611c9f565b610487565b6040516101ef9796959493929190611ce2565b60405180910390f35b61020160025481565b6040519081526020016101ef565b610201603281565b61023e7f000000000000000000000000000000000000000000000000000000000000000081565b6040516001600160a01b0390911681526020016101ef565b61025e61055b565b005b61023e7f000000000000000000000000000000000000000000000000000000000000000081565b61025e610295366004611d6e565b6105b0565b61020160035481565b60015460ff1660405190151581526020016101ef565b61025e6102c7366004611c9f565b610ba6565b61025e6102da366004611c9f565b610c46565b61025e6102ed366004611c9f565b610e54565b61023e7f000000000000000000000000000000000000000000000000000000000000000081565b61020168056bc75e2d6310000081565b61025e610f8c565b6103a361033f366004611c9f565b6005602081905260009182526040909120805460018201546002830154600384015460048501549585015460068601546007870154600890970154959794966001600160a01b0394851696949093169493919260ff8083169361010090930416918a565b6040516101ef9a99989796959493929190611da3565b60075461023e906001600160a01b031681565b6102016103e881565b61025e6103e3366004611e5a565b610fda565b61020162093a8081565b610201670de0b6b3a764000081565b61020161040f366004611ea6565b6111e2565b61025e610422366004611c9f565b6114f8565b61020169d3c21bcecceda100000081565b610201610446366004611c9f565b60066020526000908152604090205481565b61025e610466366004611c9f565b6115a1565b610201610479366004611f13565b6116c5565b61023e61dead81565b60046020526000908152604090208054600182015460028301805492936001600160a01b03909216926104b990611f57565b80601f01602080910402602001604051908101604052809291908181526020018280546104e590611f57565b80156105325780601f1061050757610100808354040283529160200191610532565b820191906000526020600020905b81548152906001019060200180831161051557829003601f168201915b5050506003840154600485015460058601546006909601549495919490935060ff909116915087565b6007546001600160a01b031633146105a65760405162461bcd60e51b81526020600482015260096024820152682737ba1037bbb732b960b91b60448201526064015b60405180910390fd5b6105ae611a8d565b565b6105b8611adf565b600082815260056020526040902060038101548391906001600160a01b031633148061060c5750336001600160a01b037f000000000000000000000000000000000000000000000000000000000000000016145b6106495760405162461bcd60e51b815260206004820152600e60248201526d139bdd08185d5d1a1bdc9a5e995960921b604482015260640161059d565b60008481526005602052604090206003600682015460ff16600581111561067257610672611cb8565b146106af5760405162461bcd60e51b815260206004820152600d60248201526c139bdd0818dbdb5c1b195d1959609a1b604482015260640161059d565b6006810154610100900460ff16156106fb5760405162461bcd60e51b815260206004820152600f60248201526e105b1c9958591e481cd95d1d1b1959608a1b604482015260640161059d565b6006808201805461ff0019166101001790556000868152602091909152604090205484156109275760068201805460ff19166004908117909155820154600090610746908390611fa7565b6002840154909150610785906001600160a01b037f00000000000000000000000000000000000000000000000000000000000000008116911683611b09565b6002830154604051634e44d07160e11b81526001600160a01b0391821660048201526000917f00000000000000000000000000000000000000000000000000000000000000001690639c89a0e290602401602060405180830381865afa1580156107f3573d6000803e3d6000fd5b505050506040513d601f19601f820116820180604052508101906108179190611fc0565b90506000610826826005611fa7565b90506064811115610835575060645b600285015460405163bdd6f7a760e01b81526001600160a01b0391821660048201526024810183905260606044820152600e60648201526d15185cdac818dbdb5c1b195d195960921b60848201527f00000000000000000000000000000000000000000000000000000000000000009091169063bdd6f7a79060a401600060405180830381600087803b1580156108cb57600080fd5b505af11580156108df573d6000803e3d6000fd5b50506040805160018152602081018790528c93507fb5503bb8c034cb719b271a0cb88aeedcdc29408a5dbce32fc630086a3ddedd3c92500160405180910390a2505050610b7d565b60068201805460ff1916600517905561098a7f00000000000000000000000000000000000000000000000000000000000000006001600160a01b03167f000000000000000000000000000000000000000000000000000000000000000083611b09565b600182810154600090815260046020819052604090912091820154908401546109e1916001600160a01b037f0000000000000000000000000000000000000000000000000000000000000000811692911690611b09565b6002830154604051634e44d07160e11b81526001600160a01b0391821660048201526000917f00000000000000000000000000000000000000000000000000000000000000001690639c89a0e290602401602060405180830381865afa158015610a4f573d6000803e3d6000fd5b505050506040513d601f19601f82011682018060405250810190610a739190611fc0565b90506000600f821015610a87576000610a92565b610a92600f83611fd9565b600286015460405163bdd6f7a760e01b81526001600160a01b0391821660048201526024810183905260606044820152600b60648201526a15185cdac819985a5b195960aa1b60848201529192507f0000000000000000000000000000000000000000000000000000000000000000169063bdd6f7a79060a401600060405180830381600087803b158015610b2657600080fd5b505af1158015610b3a573d6000803e3d6000fd5b505060408051600080825260208201528c93507fb5503bb8c034cb719b271a0cb88aeedcdc29408a5dbce32fc630086a3ddedd3c92500160405180910390a25050505b50600085815260066020526040812081905560049091015550610ba290506001600055565b5050565b60008181526005602052604090206001600682015460ff166005811115610bcf57610bcf611cb8565b14610c095760405162461bcd60e51b815260206004820152600a602482015269139bdd08189bdb99195960b21b604482015260640161059d565b60028101546001600160a01b03163314610c355760405162461bcd60e51b815260040161059d90611fec565b600601805460ff1916600217905550565b610c4e611adf565b60008181526005602052604090206003600682015460ff166005811115610c7757610c77611cb8565b14610cb45760405162461bcd60e51b815260206004820152600d60248201526c139bdd0818dbdb5c1b195d1959609a1b604482015260640161059d565b6006810154610100900460ff1615610d005760405162461bcd60e51b815260206004820152600f60248201526e105b1c9958591e481cd95d1d1b1959608a1b604482015260640161059d565b62093a808160080154610d139190611fa7565b421015610d505760405162461bcd60e51b815260206004820152600b60248201526a139bdd08195e1c1a5c995960aa1b604482015260640161059d565b6006818101805461ffff1916610105179055600083815260209190915260409020546002820154610dae906001600160a01b037f00000000000000000000000000000000000000000000000000000000000000008116911683611b09565b60018281015460009081526004602081905260409091209182015490840154610e05916001600160a01b037f0000000000000000000000000000000000000000000000000000000000000000811692911690611b09565b600084815260066020526040808220829055600485018290555185917f7c2ecd5e2b7188ac57f3a370681639cb447c9cbfbbbace0c070adea6c73eaa5491a2505050610e516001600055565b50565b610e5c611adf565b600081815260056020526040812090600682015460ff166005811115610e8457610e84611cb8565b14610ebc5760405162461bcd60e51b81526020600482015260086024820152672737ba1037b832b760c11b604482015260640161059d565b60028101546001600160a01b03163314610ee85760405162461bcd60e51b815260040161059d90611fec565b6005810154610f25906001600160a01b037f0000000000000000000000000000000000000000000000000000000000000000169033903090611b6d565b6005810154600083815260066020818152604092839020849055908401805460ff191660011790559051918252339184917f03f700e483bf4492660028538534d4577a894d4d355068ee29433ab3fc23ab47910160405180910390a350610e516001600055565b6007546001600160a01b03163314610fd25760405162461bcd60e51b81526020600482015260096024820152682737ba1037bbb732b960b91b604482015260640161059d565b6105ae611bac565b336001600160a01b037f000000000000000000000000000000000000000000000000000000000000000016146110415760405162461bcd60e51b815260206004820152600c60248201526b27b7363c9021a620aba3a2a960a11b604482015260640161059d565b600083815260046020526040812090600582015460ff16600381111561106957611069611cb8565b146110865760405162461bcd60e51b815260040161059d90612010565b60058101805460ff19166002179055600060646110ad603268056bc75e2d63100000612035565b6110b7919061204c565b905060006110ce8268056bc75e2d63100000611fd9565b90506111066001600160a01b037f00000000000000000000000000000000000000000000000000000000000000001661dead84611b09565b61115a6001600160a01b037f0000000000000000000000000000000000000000000000000000000000000000167f000000000000000000000000000000000000000000000000000000000000000083611b09565b6001830154600384015461119c916001600160a01b037f0000000000000000000000000000000000000000000000000000000000000000811692911690611b09565b857f02b6ac80b08a4a1405de820ede499ffa80fcb06a40b14d1d767682f51a84d552868685856040516111d2949392919061206e565b60405180910390a2505050505050565b60006111ec611be7565b8361122b5760405162461bcd60e51b815260206004820152600f60248201526e456d707479206f626a65637469766560881b604482015260640161059d565b6103e88411156112725760405162461bcd60e51b81526020600482015260126024820152714f626a65637469766520746f6f206c6f6e6760701b604482015260640161059d565b4282116112b05760405162461bcd60e51b815260206004820152600c60248201526b42616420646561646c696e6560a01b604482015260640161059d565b600083116112f25760405162461bcd60e51b815260206004820152600f60248201526e115cd8dc9bddc81c995c5d5a5c9959608a1b604482015260640161059d565b69d3c21bcecceda100000083111561133f5760405162461bcd60e51b815260206004820152601060248201526f457363726f7720746f6f206c6172676560801b604482015260640161059d565b611389333061135768056bc75e2d6310000087611fa7565b6001600160a01b037f000000000000000000000000000000000000000000000000000000000000000016929190611b6d565b600060026000815461139a906120ae565b91905081905590506040518060e00160405280828152602001336001600160a01b0316815260200187878080601f0160208091040260200160405190810160405280939291908181526020018383808284376000920182905250938552505050602082018790526040820186905260609091019081524260209182015260008381526004825260409081902083518155918301516001830180546001600160a01b0319166001600160a01b039092169190911790558201516002820190611461908261212b565b50606082015181600301556080820151816004015560a08201518160050160006101000a81548160ff021916908360038111156114a0576114a0611cb8565b021790555060c091909101516006909101556040805185815260208101859052339183917f57a1faace4a7840fc17cabc57657d23725e308616debc3f77726a2183f2670f5910160405180910390a395945050505050565b60008181526005602052604090206002600682015460ff16600581111561152157611521611cb8565b1461155c5760405162461bcd60e51b815260206004820152600b60248201526a4e6f742072756e6e696e6760a81b604482015260640161059d565b60028101546001600160a01b031633146115885760405162461bcd60e51b815260040161059d90611fec565b60068101805460ff191660031790554260089091015550565b600081815260046020526040812090600582015460ff1660038111156115c9576115c9611cb8565b146115e65760405162461bcd60e51b815260040161059d90612010565b80600401544210156116285760405162461bcd60e51b815260206004820152600b60248201526a139bdd08195e1c1a5c995960aa1b604482015260640161059d565b60058101805460ff19166003908117909155600182015490820154611696916001600160a01b0316906116659068056bc75e2d6310000090611fa7565b6001600160a01b037f0000000000000000000000000000000000000000000000000000000000000000169190611b09565b60405182907f88e53c486703527139dfc8d97a1e559d9bd93d3f9d52cda4e06564111e7a264390600090a25050565b6000336001600160a01b037f0000000000000000000000000000000000000000000000000000000000000000161461172e5760405162461bcd60e51b815260206004820152600c60248201526b27b7363c9021a620aba3a2a960a11b604482015260640161059d565b611736611be7565b600085815260046020526040812090600582015460ff16600381111561175e5761175e611cb8565b1461177b5760405162461bcd60e51b815260040161059d90612010565b806004015442106117b85760405162461bcd60e51b8152602060048201526007602482015266115e1c1a5c995960ca1b604482015260640161059d565b6001600160a01b0385166117ff5760405162461bcd60e51b815260206004820152600e60248201526d24b73b30b634b2103bb7b935b2b960911b604482015260640161059d565b6001600160a01b0384166118485760405162461bcd60e51b815260206004820152601060248201526f24b73b30b634b2103b32b934b334b2b960811b604482015260640161059d565b670de0b6b3a76400008310156118915760405162461bcd60e51b815260206004820152600e60248201526d109bdb99081d1bdbc81cdb585b1b60921b604482015260640161059d565b60058101805460ff191660019081179091558101546118e7907f00000000000000000000000000000000000000000000000000000000000000006001600160a01b03908116911668056bc75e2d63100000611b09565b60006003600081546118f8906120ae565b9190508190559050604051806101400160405280828152602001888152602001876001600160a01b03168152602001866001600160a01b03168152602001836003015481526020018581526020016000600581111561195957611959611cb8565b8152600060208083018290524260408085019190915260609384018390528583526005808352928190208551815591850151600180840191909155908501516002830180546001600160a01b03199081166001600160a01b0393841617909155948601516003840180549096169116179093556080840151600482015560a08401518183015560c084015160068201805492949193909260ff191691908490811115611a0757611a07611cb8565b021790555060e082015160068201805461ff0019166101009215158302179055820151600782015561012090910151600890910155604080516001600160a01b03888116825287166020820152829189917fc871951ed5e4ab863f8d91af56af516212c52a36a82694b32be47292e4f0e2ae910160405180910390a39695505050505050565b611a95611c0b565b6001805460ff191690557f5db9ee0a495bf2e6ff9c91a7834c1ba4fdd244a5e8aa4e537bd38aeae4b073aa335b6040516001600160a01b03909116815260200160405180910390a1565b600260005403611b0257604051633ee5aeb560e01b815260040160405180910390fd5b6002600055565b6040516001600160a01b03838116602483015260448201839052611b6891859182169063a9059cbb906064015b604051602081830303815290604052915060e01b6020820180516001600160e01b038381831617835250505050611c2e565b505050565b6040516001600160a01b038481166024830152838116604483015260648201839052611ba69186918216906323b872dd90608401611b36565b50505050565b611bb4611be7565b6001805460ff1916811790557f62e78cea01bee320cd4e420270b5ea74000d11b0c9f74754ebdbfc544b05a25833611ac2565b60015460ff16156105ae5760405163d93c066560e01b815260040160405180910390fd5b60015460ff166105ae57604051638dfc202b60e01b815260040160405180910390fd5b600080602060008451602086016000885af180611c51576040513d6000823e3d81fd5b50506000513d91508115611c69578060011415611c76565b6001600160a01b0384163b155b15611ba657604051635274afe760e01b81526001600160a01b038516600482015260240161059d565b600060208284031215611cb157600080fd5b5035919050565b634e487b7160e01b600052602160045260246000fd5b60048110611cde57611cde611cb8565b9052565b8781526000602060018060a01b0389168184015260e0604084015287518060e085015260005b81811015611d255789810183015185820161010001528201611d08565b506101009150600082828601015281601f19601f83011685010192505050856060830152846080830152611d5c60a0830185611cce565b8260c083015298975050505050505050565b60008060408385031215611d8157600080fd5b8235915060208301358015158114611d9857600080fd5b809150509250929050565b8a8152602081018a90526001600160a01b038981166040830152881660608201526080810187905260a08101869052610140810160068610611de757611de7611cb8565b60c082019590955292151560e0840152610100830191909152610120909101529695505050505050565b60008083601f840112611e2357600080fd5b50813567ffffffffffffffff811115611e3b57600080fd5b602083019150836020828501011115611e5357600080fd5b9250929050565b600080600060408486031215611e6f57600080fd5b83359250602084013567ffffffffffffffff811115611e8d57600080fd5b611e9986828701611e11565b9497909650939450505050565b60008060008060608587031215611ebc57600080fd5b843567ffffffffffffffff811115611ed357600080fd5b611edf87828801611e11565b90989097506020870135966040013595509350505050565b80356001600160a01b0381168114611f0e57600080fd5b919050565b60008060008060808587031215611f2957600080fd5b84359350611f3960208601611ef7565b9250611f4760408601611ef7565b9396929550929360600135925050565b600181811c90821680611f6b57607f821691505b602082108103611f8b57634e487b7160e01b600052602260045260246000fd5b50919050565b634e487b7160e01b600052601160045260246000fd5b80820180821115611fba57611fba611f91565b92915050565b600060208284031215611fd257600080fd5b5051919050565b81810381811115611fba57611fba611f91565b6020808252600a90820152692737ba103bb7b935b2b960b11b604082015260600190565b6020808252600b908201526a4e6f742070656e64696e6760a81b604082015260600190565b8082028115828204841417611fba57611fba611f91565b60008261206957634e487b7160e01b600052601260045260246000fd5b500490565b606081528360608201528385608083013760006080858301015260006080601f19601f870116830101905083602083015282604083015295945050505050565b6000600182016120c0576120c0611f91565b5060010190565b634e487b7160e01b600052604160045260246000fd5b601f821115611b6857600081815260208120601f850160051c810160208610156121045750805b601f850160051c820191505b8181101561212357828155600101612110565b505050505050565b815167ffffffffffffffff811115612145576121456120c7565b612159816121538454611f57565b846120dd565b602080601f83116001811461218e57600084156121765750858301515b600019600386901b1c1916600185901b178555612123565b600085815260208120601f198616915b828110156121bd5788860151825594840194600190910190840161219e565b50858210156121db5787850151600019600388901b60f8161c191681555b5050505050600190811b0190555056fea2646970667358221220f97967a507f0455067b2c6dbb919706db4f75952cf9817b6934d2a8c55e5ceca64736f6c63430008140033","opcodes":"PUSH1 0xE0 PUSH1 0x40 MSTORE CALLVALUE DUP1 ISZERO PUSH3 0x11 JUMPI PUSH1 0x0 DUP1 REVERT JUMPDEST POP PUSH1 0x40 MLOAD PUSH3 0x2494 CODESIZE SUB DUP1 PUSH3 0x2494 DUP4 CODECOPY DUP2 ADD PUSH1 0x40 DUP2 SWAP1 MSTORE PUSH3 0x34 SWAP2 PUSH3 0x166 JUMP JUMPDEST PUSH1 0x1 PUSH1 0x0 SSTORE PUSH1 0x1 PUSH1 0x1 PUSH1 0xA0 SHL SUB DUP4 AND PUSH3 0x84 JUMPI PUSH1 0x40 MLOAD PUSH3 0x461BCD PUSH1 0xE5 SHL DUP2 MSTORE PUSH1 0x20 PUSH1 0x4 DUP3 ADD MSTORE PUSH1 0xC PUSH1 0x24 DUP3 ADD MSTORE PUSH12 0x24B73B30B634B21021A623A9 PUSH1 0xA1 SHL PUSH1 0x44 DUP3 ADD MSTORE PUSH1 0x64 ADD JUMPDEST PUSH1 0x40 MLOAD DUP1 SWAP2 SUB SWAP1 REVERT JUMPDEST PUSH1 0x1 PUSH1 0x1 PUSH1 0xA0 SHL SUB DUP3 AND PUSH3 0xCF JUMPI PUSH1 0x40 MLOAD PUSH3 0x461BCD PUSH1 0xE5 SHL DUP2 MSTORE PUSH1 0x20 PUSH1 0x4 DUP3 ADD MSTORE PUSH1 0x10 PUSH1 0x24 DUP3 ADD MSTORE PUSH16 0x496E76616C6964207265676973747279 PUSH1 0x80 SHL PUSH1 0x44 DUP3 ADD MSTORE PUSH1 0x64 ADD PUSH3 0x7B JUMP JUMPDEST PUSH1 0x1 PUSH1 0x1 PUSH1 0xA0 SHL SUB DUP2 AND PUSH3 0x119 JUMPI PUSH1 0x40 MLOAD PUSH3 0x461BCD PUSH1 0xE5 SHL DUP2 MSTORE PUSH1 0x20 PUSH1 0x4 DUP3 ADD MSTORE PUSH1 0xF PUSH1 0x24 DUP3 ADD MSTORE PUSH15 0x24B73B30B634B21031B630BBB3B2B9 PUSH1 0x89 SHL PUSH1 0x44 DUP3 ADD MSTORE PUSH1 0x64 ADD PUSH3 0x7B JUMP JUMPDEST PUSH1 0x1 PUSH1 0x1 PUSH1 0xA0 SHL SUB SWAP3 DUP4 AND PUSH1 0x80 MSTORE SWAP1 DUP3 AND PUSH1 0xC0 MSTORE AND PUSH1 0xA0 MSTORE PUSH1 0x7 DUP1 SLOAD PUSH1 0x1 PUSH1 0x1 PUSH1 0xA0 SHL SUB NOT AND CALLER OR SWAP1 SSTORE PUSH3 0x1B0 JUMP JUMPDEST DUP1 MLOAD PUSH1 0x1 PUSH1 0x1 PUSH1 0xA0 SHL SUB DUP2 AND DUP2 EQ PUSH3 0x161 JUMPI PUSH1 0x0 DUP1 REVERT JUMPDEST SWAP2 SWAP1 POP JUMP JUMPDEST PUSH1 0x0 DUP1 PUSH1 0x0 PUSH1 0x60 DUP5 DUP7 SUB SLT ISZERO PUSH3 0x17C JUMPI PUSH1 0x0 DUP1 REVERT JUMPDEST PUSH3 0x187 DUP5 PUSH3 0x149 JUMP JUMPDEST SWAP3 POP PUSH3 0x197 PUSH1 0x20 DUP6 ADD PUSH3 0x149 JUMP JUMPDEST SWAP2 POP PUSH3 0x1A7 PUSH1 0x40 DUP6 ADD PUSH3 0x149 JUMP JUMPDEST SWAP1 POP SWAP3 POP SWAP3 POP SWAP3 JUMP JUMPDEST PUSH1 0x80 MLOAD PUSH1 0xA0 MLOAD PUSH1 0xC0 MLOAD PUSH2 0x2221 PUSH3 0x273 PUSH1 0x0 CODECOPY PUSH1 0x0 DUP2 DUP2 PUSH2 0x2F7 ADD MSTORE DUP2 DUP2 PUSH2 0x7AC ADD MSTORE DUP2 DUP2 PUSH2 0x885 ADD MSTORE DUP2 DUP2 PUSH2 0xA08 ADD MSTORE PUSH2 0xAE2 ADD MSTORE PUSH1 0x0 DUP2 DUP2 PUSH2 0x21C ADD MSTORE DUP2 DUP2 PUSH2 0x5EA ADD MSTORE DUP2 DUP2 PUSH2 0x965 ADD MSTORE DUP2 DUP2 PUSH2 0xFE5 ADD MSTORE DUP2 DUP2 PUSH2 0x1135 ADD MSTORE PUSH2 0x16D2 ADD MSTORE PUSH1 0x0 DUP2 DUP2 PUSH2 0x265 ADD MSTORE DUP2 DUP2 PUSH2 0x75C ADD MSTORE DUP2 DUP2 PUSH2 0x93B ADD MSTORE DUP2 DUP2 PUSH2 0x9B7 ADD MSTORE DUP2 DUP2 PUSH2 0xD85 ADD MSTORE DUP2 DUP2 PUSH2 0xDDB ADD MSTORE DUP2 DUP2 PUSH2 0xEFB ADD MSTORE DUP2 DUP2 PUSH2 0x10DD ADD MSTORE DUP2 DUP2 PUSH2 0x1113 ADD MSTORE DUP2 DUP2 PUSH2 0x1172 ADD MSTORE DUP2 DUP2 PUSH2 0x1361 ADD MSTORE DUP2 DUP2 PUSH2 0x166F ADD MSTORE PUSH2 0x18AC ADD MSTORE PUSH2 0x2221 PUSH1 0x0 RETURN INVALID PUSH1 0x80 PUSH1 0x40 MSTORE CALLVALUE DUP1 ISZERO PUSH2 0x10 JUMPI PUSH1 0x0 DUP1 REVERT JUMPDEST POP PUSH1 0x4 CALLDATASIZE LT PUSH2 0x1C4 JUMPI PUSH1 0x0 CALLDATALOAD PUSH1 0xE0 SHR DUP1 PUSH4 0x8456CB59 GT PUSH2 0xF9 JUMPI DUP1 PUSH4 0xA6B39CDD GT PUSH2 0x97 JUMPI DUP1 PUSH4 0xE008779D GT PUSH2 0x71 JUMPI DUP1 PUSH4 0xE008779D EQ PUSH2 0x438 JUMPI DUP1 PUSH4 0xE1B526B0 EQ PUSH2 0x458 JUMPI DUP1 PUSH4 0xEF9B8E9B EQ PUSH2 0x46B JUMPI DUP1 PUSH4 0xFCCC2813 EQ PUSH2 0x47E JUMPI PUSH1 0x0 DUP1 REVERT JUMPDEST DUP1 PUSH4 0xA6B39CDD EQ PUSH2 0x401 JUMPI DUP1 PUSH4 0xC4C11523 EQ PUSH2 0x414 JUMPI DUP1 PUSH4 0xC7895646 EQ PUSH2 0x427 JUMPI PUSH1 0x0 DUP1 REVERT JUMPDEST DUP1 PUSH4 0x922509B7 GT PUSH2 0xD3 JUMPI DUP1 PUSH4 0x922509B7 EQ PUSH2 0x3CC JUMPI DUP1 PUSH4 0x952A5BE7 EQ PUSH2 0x3D5 JUMPI DUP1 PUSH4 0x9F26AF12 EQ PUSH2 0x3E8 JUMPI DUP1 PUSH4 0xA639A574 EQ PUSH2 0x3F2 JUMPI PUSH1 0x0 DUP1 REVERT JUMPDEST DUP1 PUSH4 0x8456CB59 EQ PUSH2 0x329 JUMPI DUP1 PUSH4 0x8D977672 EQ PUSH2 0x331 JUMPI DUP1 PUSH4 0x8DA5CB5B EQ PUSH2 0x3B9 JUMPI PUSH1 0x0 DUP1 REVERT JUMPDEST DUP1 PUSH4 0x58671730 GT PUSH2 0x166 JUMPI DUP1 PUSH4 0x62ECC47A GT PUSH2 0x140 JUMPI DUP1 PUSH4 0x62ECC47A EQ PUSH2 0x2CC JUMPI DUP1 PUSH4 0x6517A7A1 EQ PUSH2 0x2DF JUMPI DUP1 PUSH4 0x7B103999 EQ PUSH2 0x2F2 JUMPI DUP1 PUSH4 0x7E3681BD EQ PUSH2 0x319 JUMPI PUSH1 0x0 DUP1 REVERT JUMPDEST DUP1 PUSH4 0x58671730 EQ PUSH2 0x29A JUMPI DUP1 PUSH4 0x5C975ABB EQ PUSH2 0x2A3 JUMPI DUP1 PUSH4 0x5F944326 EQ PUSH2 0x2B9 JUMPI PUSH1 0x0 DUP1 REVERT JUMPDEST DUP1 PUSH4 0x3A04BDB8 GT PUSH2 0x1A2 JUMPI DUP1 PUSH4 0x3A04BDB8 EQ PUSH2 0x217 JUMPI DUP1 PUSH4 0x3F4BA83A EQ PUSH2 0x256 JUMPI DUP1 PUSH4 0x480BACD1 EQ PUSH2 0x260 JUMPI DUP1 PUSH4 0x4B46E63E EQ PUSH2 0x287 JUMPI PUSH1 0x0 DUP1 REVERT JUMPDEST DUP1 PUSH4 0x13CF08B EQ PUSH2 0x1C9 JUMPI DUP1 PUSH4 0xC0512E9 EQ PUSH2 0x1F8 JUMPI DUP1 PUSH4 0xC53627F EQ PUSH2 0x20F JUMPI JUMPDEST PUSH1 0x0 DUP1 REVERT JUMPDEST PUSH2 0x1DC PUSH2 0x1D7 CALLDATASIZE PUSH1 0x4 PUSH2 0x1C9F JUMP JUMPDEST PUSH2 0x487 JUMP JUMPDEST PUSH1 0x40 MLOAD PUSH2 0x1EF SWAP8 SWAP7 SWAP6 SWAP5 SWAP4 SWAP3 SWAP2 SWAP1 PUSH2 0x1CE2 JUMP JUMPDEST PUSH1 0x40 MLOAD DUP1 SWAP2 SUB SWAP1 RETURN JUMPDEST PUSH2 0x201 PUSH1 0x2 SLOAD DUP2 JUMP JUMPDEST PUSH1 0x40 MLOAD SWAP1 DUP2 MSTORE PUSH1 0x20 ADD PUSH2 0x1EF JUMP JUMPDEST PUSH2 0x201 PUSH1 0x32 DUP2 JUMP JUMPDEST PUSH2 0x23E PUSH32 0x0 DUP2 JUMP JUMPDEST PUSH1 0x40 MLOAD PUSH1 0x1 PUSH1 0x1 PUSH1 0xA0 SHL SUB SWAP1 SWAP2 AND DUP2 MSTORE PUSH1 0x20 ADD PUSH2 0x1EF JUMP JUMPDEST PUSH2 0x25E PUSH2 0x55B JUMP JUMPDEST STOP JUMPDEST PUSH2 0x23E PUSH32 0x0 DUP2 JUMP JUMPDEST PUSH2 0x25E PUSH2 0x295 CALLDATASIZE PUSH1 0x4 PUSH2 0x1D6E JUMP JUMPDEST PUSH2 0x5B0 JUMP JUMPDEST PUSH2 0x201 PUSH1 0x3 SLOAD DUP2 JUMP JUMPDEST PUSH1 0x1 SLOAD PUSH1 0xFF AND PUSH1 0x40 MLOAD SWAP1 ISZERO ISZERO DUP2 MSTORE PUSH1 0x20 ADD PUSH2 0x1EF JUMP JUMPDEST PUSH2 0x25E PUSH2 0x2C7 CALLDATASIZE PUSH1 0x4 PUSH2 0x1C9F JUMP JUMPDEST PUSH2 0xBA6 JUMP JUMPDEST PUSH2 0x25E PUSH2 0x2DA CALLDATASIZE PUSH1 0x4 PUSH2 0x1C9F JUMP JUMPDEST PUSH2 0xC46 JUMP JUMPDEST PUSH2 0x25E PUSH2 0x2ED CALLDATASIZE PUSH1 0x4 PUSH2 0x1C9F JUMP JUMPDEST PUSH2 0xE54 JUMP JUMPDEST PUSH2 0x23E PUSH32 0x0 DUP2 JUMP JUMPDEST PUSH2 0x201 PUSH9 0x56BC75E2D63100000 DUP2 JUMP JUMPDEST PUSH2 0x25E PUSH2 0xF8C JUMP JUMPDEST PUSH2 0x3A3 PUSH2 0x33F CALLDATASIZE PUSH1 0x4 PUSH2 0x1C9F JUMP JUMPDEST PUSH1 0x5 PUSH1 0x20 DUP2 SWAP1 MSTORE PUSH1 0x0 SWAP2 DUP3 MSTORE PUSH1 0x40 SWAP1 SWAP2 KECCAK256 DUP1 SLOAD PUSH1 0x1 DUP3 ADD SLOAD PUSH1 0x2 DUP4 ADD SLOAD PUSH1 0x3 DUP5 ADD SLOAD PUSH1 0x4 DUP6 ADD SLOAD SWAP6 DUP6 ADD SLOAD PUSH1 0x6 DUP7 ADD SLOAD PUSH1 0x7 DUP8 ADD SLOAD PUSH1 0x8 SWAP1 SWAP8 ADD SLOAD SWAP6 SWAP8 SWAP5 SWAP7 PUSH1 0x1 PUSH1 0x1 PUSH1 0xA0 SHL SUB SWAP5 DUP6 AND SWAP7 SWAP5 SWAP1 SWAP4 AND SWAP5 SWAP4 SWAP2 SWAP3 PUSH1 0xFF DUP1 DUP4 AND SWAP4 PUSH2 0x100 SWAP1 SWAP4 DIV AND SWAP2 DUP11 JUMP JUMPDEST PUSH1 0x40 MLOAD PUSH2 0x1EF SWAP11 SWAP10 SWAP9 SWAP8 SWAP7 SWAP6 SWAP5 SWAP4 SWAP3 SWAP2 SWAP1 PUSH2 0x1DA3 JUMP JUMPDEST PUSH1 0x7 SLOAD PUSH2 0x23E SWAP1 PUSH1 0x1 PUSH1 0x1 PUSH1 0xA0 SHL SUB AND DUP2 JUMP JUMPDEST PUSH2 0x201 PUSH2 0x3E8 DUP2 JUMP JUMPDEST PUSH2 0x25E PUSH2 0x3E3 CALLDATASIZE PUSH1 0x4 PUSH2 0x1E5A JUMP JUMPDEST PUSH2 0xFDA JUMP JUMPDEST PUSH2 0x201 PUSH3 0x93A80 DUP2 JUMP JUMPDEST PUSH2 0x201 PUSH8 0xDE0B6B3A7640000 DUP2 JUMP JUMPDEST PUSH2 0x201 PUSH2 0x40F CALLDATASIZE PUSH1 0x4 PUSH2 0x1EA6 JUMP JUMPDEST PUSH2 0x11E2 JUMP JUMPDEST PUSH2 0x25E PUSH2 0x422 CALLDATASIZE PUSH1 0x4 PUSH2 0x1C9F JUMP JUMPDEST PUSH2 0x14F8 JUMP JUMPDEST PUSH2 0x201 PUSH10 0xD3C21BCECCEDA1000000 DUP2 JUMP JUMPDEST PUSH2 0x201 PUSH2 0x446 CALLDATASIZE PUSH1 0x4 PUSH2 0x1C9F JUMP JUMPDEST PUSH1 0x6 PUSH1 0x20 MSTORE PUSH1 0x0 SWAP1 DUP2 MSTORE PUSH1 0x40 SWAP1 KECCAK256 SLOAD DUP2 JUMP JUMPDEST PUSH2 0x25E PUSH2 0x466 CALLDATASIZE PUSH1 0x4 PUSH2 0x1C9F JUMP JUMPDEST PUSH2 0x15A1 JUMP JUMPDEST PUSH2 0x201 PUSH2 0x479 CALLDATASIZE PUSH1 0x4 PUSH2 0x1F13 JUMP JUMPDEST PUSH2 0x16C5 JUMP JUMPDEST PUSH2 0x23E PUSH2 0xDEAD DUP2 JUMP JUMPDEST PUSH1 0x4 PUSH1 0x20 MSTORE PUSH1 0x0 SWAP1 DUP2 MSTORE PUSH1 0x40 SWAP1 KECCAK256 DUP1 SLOAD PUSH1 0x1 DUP3 ADD SLOAD PUSH1 0x2 DUP4 ADD DUP1 SLOAD SWAP3 SWAP4 PUSH1 0x1 PUSH1 0x1 PUSH1 0xA0 SHL SUB SWAP1 SWAP3 AND SWAP3 PUSH2 0x4B9 SWAP1 PUSH2 0x1F57 JUMP JUMPDEST DUP1 PUSH1 0x1F ADD PUSH1 0x20 DUP1 SWAP2 DIV MUL PUSH1 0x20 ADD PUSH1 0x40 MLOAD SWAP1 DUP2 ADD PUSH1 0x40 MSTORE DUP1 SWAP3 SWAP2 SWAP1 DUP2 DUP2 MSTORE PUSH1 0x20 ADD DUP3 DUP1 SLOAD PUSH2 0x4E5 SWAP1 PUSH2 0x1F57 JUMP JUMPDEST DUP1 ISZERO PUSH2 0x532 JUMPI DUP1 PUSH1 0x1F LT PUSH2 0x507 JUMPI PUSH2 0x100 DUP1 DUP4 SLOAD DIV MUL DUP4 MSTORE SWAP2 PUSH1 0x20 ADD SWAP2 PUSH2 0x532 JUMP JUMPDEST DUP3 ADD SWAP2 SWAP1 PUSH1 0x0 MSTORE PUSH1 0x20 PUSH1 0x0 KECCAK256 SWAP1 JUMPDEST DUP2 SLOAD DUP2 MSTORE SWAP1 PUSH1 0x1 ADD SWAP1 PUSH1 0x20 ADD DUP1 DUP4 GT PUSH2 0x515 JUMPI DUP3 SWAP1 SUB PUSH1 0x1F AND DUP3 ADD SWAP2 JUMPDEST POP POP POP PUSH1 0x3 DUP5 ADD SLOAD PUSH1 0x4 DUP6 ADD SLOAD PUSH1 0x5 DUP7 ADD SLOAD PUSH1 0x6 SWAP1 SWAP7 ADD SLOAD SWAP5 SWAP6 SWAP2 SWAP5 SWAP1 SWAP4 POP PUSH1 0xFF SWAP1 SWAP2 AND SWAP2 POP DUP8 JUMP JUMPDEST PUSH1 0x7 SLOAD PUSH1 0x1 PUSH1 0x1 PUSH1 0xA0 SHL SUB AND CALLER EQ PUSH2 0x5A6 JUMPI PUSH1 0x40 MLOAD PUSH3 0x461BCD PUSH1 0xE5 SHL DUP2 MSTORE PUSH1 0x20 PUSH1 0x4 DUP3 ADD MSTORE PUSH1 0x9 PUSH1 0x24 DUP3 ADD MSTORE PUSH9 0x2737BA1037BBB732B9 PUSH1 0xB9 SHL PUSH1 0x44 DUP3 ADD MSTORE PUSH1 0x64 ADD JUMPDEST PUSH1 0x40 MLOAD DUP1 SWAP2 SUB SWAP1 REVERT JUMPDEST PUSH2 0x5AE PUSH2 0x1A8D JUMP JUMPDEST JUMP JUMPDEST PUSH2 0x5B8 PUSH2 0x1ADF JUMP JUMPDEST PUSH1 0x0 DUP3 DUP2 MSTORE PUSH1 0x5 PUSH1 0x20 MSTORE PUSH1 0x40 SWAP1 KECCAK256 PUSH1 0x3 DUP2 ADD SLOAD DUP4 SWAP2 SWAP1 PUSH1 0x1 PUSH1 0x1 PUSH1 0xA0 SHL SUB AND CALLER EQ DUP1 PUSH2 0x60C JUMPI POP CALLER PUSH1 0x1 PUSH1 0x1 PUSH1 0xA0 SHL SUB PUSH32 0x0 AND EQ JUMPDEST PUSH2 0x649 JUMPI PUSH1 0x40 MLOAD PUSH3 0x461BCD PUSH1 0xE5 SHL DUP2 MSTORE PUSH1 0x20 PUSH1 0x4 DUP3 ADD MSTORE PUSH1 0xE PUSH1 0x24 DUP3 ADD MSTORE PUSH14 0x139BDD08185D5D1A1BDC9A5E9959 PUSH1 0x92 SHL PUSH1 0x44 DUP3 ADD MSTORE PUSH1 0x64 ADD PUSH2 0x59D JUMP JUMPDEST PUSH1 0x0 DUP5 DUP2 MSTORE PUSH1 0x5 PUSH1 0x20 MSTORE PUSH1 0x40 SWAP1 KECCAK256 PUSH1 0x3 PUSH1 0x6 DUP3 ADD SLOAD PUSH1 0xFF AND PUSH1 0x5 DUP2 GT ISZERO PUSH2 0x672 JUMPI PUSH2 0x672 PUSH2 0x1CB8 JUMP JUMPDEST EQ PUSH2 0x6AF JUMPI PUSH1 0x40 MLOAD PUSH3 0x461BCD PUSH1 0xE5 SHL DUP2 MSTORE PUSH1 0x20 PUSH1 0x4 DUP3 ADD MSTORE PUSH1 0xD PUSH1 0x24 DUP3 ADD MSTORE PUSH13 0x139BDD0818DBDB5C1B195D1959 PUSH1 0x9A SHL PUSH1 0x44 DUP3 ADD MSTORE PUSH1 0x64 ADD PUSH2 0x59D JUMP JUMPDEST PUSH1 0x6 DUP2 ADD SLOAD PUSH2 0x100 SWAP1 DIV PUSH1 0xFF AND ISZERO PUSH2 0x6FB JUMPI PUSH1 0x40 MLOAD PUSH3 0x461BCD PUSH1 0xE5 SHL DUP2 MSTORE PUSH1 0x20 PUSH1 0x4 DUP3 ADD MSTORE PUSH1 0xF PUSH1 0x24 DUP3 ADD MSTORE PUSH15 0x105B1C9958591E481CD95D1D1B1959 PUSH1 0x8A SHL PUSH1 0x44 DUP3 ADD MSTORE PUSH1 0x64 ADD PUSH2 0x59D JUMP JUMPDEST PUSH1 0x6 DUP1 DUP3 ADD DUP1 SLOAD PUSH2 0xFF00 NOT AND PUSH2 0x100 OR SWAP1 SSTORE PUSH1 0x0 DUP7 DUP2 MSTORE PUSH1 0x20 SWAP2 SWAP1 SWAP2 MSTORE PUSH1 0x40 SWAP1 KECCAK256 SLOAD DUP5 ISZERO PUSH2 0x927 JUMPI PUSH1 0x6 DUP3 ADD DUP1 SLOAD PUSH1 0xFF NOT AND PUSH1 0x4 SWAP1 DUP2 OR SWAP1 SWAP2 SSTORE DUP3 ADD SLOAD PUSH1 0x0 SWAP1 PUSH2 0x746 SWAP1 DUP4 SWAP1 PUSH2 0x1FA7 JUMP JUMPDEST PUSH1 0x2 DUP5 ADD SLOAD SWAP1 SWAP2 POP PUSH2 0x785 SWAP1 PUSH1 0x1 PUSH1 0x1 PUSH1 0xA0 SHL SUB PUSH32 0x0 DUP2 AND SWAP2 AND DUP4 PUSH2 0x1B09 JUMP JUMPDEST PUSH1 0x2 DUP4 ADD SLOAD PUSH1 0x40 MLOAD PUSH4 0x4E44D071 PUSH1 0xE1 SHL DUP2 MSTORE PUSH1 0x1 PUSH1 0x1 PUSH1 0xA0 SHL SUB SWAP2 DUP3 AND PUSH1 0x4 DUP3 ADD MSTORE PUSH1 0x0 SWAP2 PUSH32 0x0 AND SWAP1 PUSH4 0x9C89A0E2 SWAP1 PUSH1 0x24 ADD PUSH1 0x20 PUSH1 0x40 MLOAD DUP1 DUP4 SUB DUP2 DUP7 GAS STATICCALL ISZERO DUP1 ISZERO PUSH2 0x7F3 JUMPI RETURNDATASIZE PUSH1 0x0 DUP1 RETURNDATACOPY RETURNDATASIZE PUSH1 0x0 REVERT JUMPDEST POP POP POP POP PUSH1 0x40 MLOAD RETURNDATASIZE PUSH1 0x1F NOT PUSH1 0x1F DUP3 ADD AND DUP3 ADD DUP1 PUSH1 0x40 MSTORE POP DUP2 ADD SWAP1 PUSH2 0x817 SWAP2 SWAP1 PUSH2 0x1FC0 JUMP JUMPDEST SWAP1 POP PUSH1 0x0 PUSH2 0x826 DUP3 PUSH1 0x5 PUSH2 0x1FA7 JUMP JUMPDEST SWAP1 POP PUSH1 0x64 DUP2 GT ISZERO PUSH2 0x835 JUMPI POP PUSH1 0x64 JUMPDEST PUSH1 0x2 DUP6 ADD SLOAD PUSH1 0x40 MLOAD PUSH4 0xBDD6F7A7 PUSH1 0xE0 SHL DUP2 MSTORE PUSH1 0x1 PUSH1 0x1 PUSH1 0xA0 SHL SUB SWAP2 DUP3 AND PUSH1 0x4 DUP3 ADD MSTORE PUSH1 0x24 DUP2 ADD DUP4 SWAP1 MSTORE PUSH1 0x60 PUSH1 0x44 DUP3 ADD MSTORE PUSH1 0xE PUSH1 0x64 DUP3 ADD MSTORE PUSH14 0x15185CDAC818DBDB5C1B195D1959 PUSH1 0x92 SHL PUSH1 0x84 DUP3 ADD MSTORE PUSH32 0x0 SWAP1 SWAP2 AND SWAP1 PUSH4 0xBDD6F7A7 SWAP1 PUSH1 0xA4 ADD PUSH1 0x0 PUSH1 0x40 MLOAD DUP1 DUP4 SUB DUP2 PUSH1 0x0 DUP8 DUP1 EXTCODESIZE ISZERO DUP1 ISZERO PUSH2 0x8CB JUMPI PUSH1 0x0 DUP1 REVERT JUMPDEST POP GAS CALL ISZERO DUP1 ISZERO PUSH2 0x8DF JUMPI RETURNDATASIZE PUSH1 0x0 DUP1 RETURNDATACOPY RETURNDATASIZE PUSH1 0x0 REVERT JUMPDEST POP POP PUSH1 0x40 DUP1 MLOAD PUSH1 0x1 DUP2 MSTORE PUSH1 0x20 DUP2 ADD DUP8 SWAP1 MSTORE DUP13 SWAP4 POP PUSH32 0xB5503BB8C034CB719B271A0CB88AEEDCDC29408A5DBCE32FC630086A3DDEDD3C SWAP3 POP ADD PUSH1 0x40 MLOAD DUP1 SWAP2 SUB SWAP1 LOG2 POP POP POP PUSH2 0xB7D JUMP JUMPDEST PUSH1 0x6 DUP3 ADD DUP1 SLOAD PUSH1 0xFF NOT AND PUSH1 0x5 OR SWAP1 SSTORE PUSH2 0x98A PUSH32 0x0 PUSH1 0x1 PUSH1 0x1 PUSH1 0xA0 SHL SUB AND PUSH32 0x0 DUP4 PUSH2 0x1B09 JUMP JUMPDEST PUSH1 0x1 DUP3 DUP2 ADD SLOAD PUSH1 0x0 SWAP1 DUP2 MSTORE PUSH1 0x4 PUSH1 0x20 DUP2 SWAP1 MSTORE PUSH1 0x40 SWAP1 SWAP2 KECCAK256 SWAP2 DUP3 ADD SLOAD SWAP1 DUP5 ADD SLOAD PUSH2 0x9E1 SWAP2 PUSH1 0x1 PUSH1 0x1 PUSH1 0xA0 SHL SUB PUSH32 0x0 DUP2 AND SWAP3 SWAP2 AND SWAP1 PUSH2 0x1B09 JUMP JUMPDEST PUSH1 0x2 DUP4 ADD SLOAD PUSH1 0x40 MLOAD PUSH4 0x4E44D071 PUSH1 0xE1 SHL DUP2 MSTORE PUSH1 0x1 PUSH1 0x1 PUSH1 0xA0 SHL SUB SWAP2 DUP3 AND PUSH1 0x4 DUP3 ADD MSTORE PUSH1 0x0 SWAP2 PUSH32 0x0 AND SWAP1 PUSH4 0x9C89A0E2 SWAP1 PUSH1 0x24 ADD PUSH1 0x20 PUSH1 0x40 MLOAD DUP1 DUP4 SUB DUP2 DUP7 GAS STATICCALL ISZERO DUP1 ISZERO PUSH2 0xA4F JUMPI RETURNDATASIZE PUSH1 0x0 DUP1 RETURNDATACOPY RETURNDATASIZE PUSH1 0x0 REVERT JUMPDEST POP POP POP POP PUSH1 0x40 MLOAD RETURNDATASIZE PUSH1 0x1F NOT PUSH1 0x1F DUP3 ADD AND DUP3 ADD DUP1 PUSH1 0x40 MSTORE POP DUP2 ADD SWAP1 PUSH2 0xA73 SWAP2 SWAP1 PUSH2 0x1FC0 JUMP JUMPDEST SWAP1 POP PUSH1 0x0 PUSH1 0xF DUP3 LT ISZERO PUSH2 0xA87 JUMPI PUSH1 0x0 PUSH2 0xA92 JUMP JUMPDEST PUSH2 0xA92 PUSH1 0xF DUP4 PUSH2 0x1FD9 JUMP JUMPDEST PUSH1 0x2 DUP7 ADD SLOAD PUSH1 0x40 MLOAD PUSH4 0xBDD6F7A7 PUSH1 0xE0 SHL DUP2 MSTORE PUSH1 0x1 PUSH1 0x1 PUSH1 0xA0 SHL SUB SWAP2 DUP3 AND PUSH1 0x4 DUP3 ADD MSTORE PUSH1 0x24 DUP2 ADD DUP4 SWAP1 MSTORE PUSH1 0x60 PUSH1 0x44 DUP3 ADD MSTORE PUSH1 0xB PUSH1 0x64 DUP3 ADD MSTORE PUSH11 0x15185CDAC819985A5B1959 PUSH1 0xAA SHL PUSH1 0x84 DUP3 ADD MSTORE SWAP2 SWAP3 POP PUSH32 0x0 AND SWAP1 PUSH4 0xBDD6F7A7 SWAP1 PUSH1 0xA4 ADD PUSH1 0x0 PUSH1 0x40 MLOAD DUP1 DUP4 SUB DUP2 PUSH1 0x0 DUP8 DUP1 EXTCODESIZE ISZERO DUP1 ISZERO PUSH2 0xB26 JUMPI PUSH1 0x0 DUP1 REVERT JUMPDEST POP GAS CALL ISZERO DUP1 ISZERO PUSH2 0xB3A JUMPI RETURNDATASIZE PUSH1 0x0 DUP1 RETURNDATACOPY RETURNDATASIZE PUSH1 0x0 REVERT JUMPDEST POP POP PUSH1 0x40 DUP1 MLOAD PUSH1 0x0 DUP1 DUP3 MSTORE PUSH1 0x20 DUP3 ADD MSTORE DUP13 SWAP4 POP PUSH32 0xB5503BB8C034CB719B271A0CB88AEEDCDC29408A5DBCE32FC630086A3DDEDD3C SWAP3 POP ADD PUSH1 0x40 MLOAD DUP1 SWAP2 SUB SWAP1 LOG2 POP POP POP JUMPDEST POP PUSH1 0x0 DUP6 DUP2 MSTORE PUSH1 0x6 PUSH1 0x20 MSTORE PUSH1 0x40 DUP2 KECCAK256 DUP2 SWAP1 SSTORE PUSH1 0x4 SWAP1 SWAP2 ADD SSTORE POP PUSH2 0xBA2 SWAP1 POP PUSH1 0x1 PUSH1 0x0 SSTORE JUMP JUMPDEST POP POP JUMP JUMPDEST PUSH1 0x0 DUP2 DUP2 MSTORE PUSH1 0x5 PUSH1 0x20 MSTORE PUSH1 0x40 SWAP1 KECCAK256 PUSH1 0x1 PUSH1 0x6 DUP3 ADD SLOAD PUSH1 0xFF AND PUSH1 0x5 DUP2 GT ISZERO PUSH2 0xBCF JUMPI PUSH2 0xBCF PUSH2 0x1CB8 JUMP JUMPDEST EQ PUSH2 0xC09 JUMPI PUSH1 0x40 MLOAD PUSH3 0x461BCD PUSH1 0xE5 SHL DUP2 MSTORE PUSH1 0x20 PUSH1 0x4 DUP3 ADD MSTORE PUSH1 0xA PUSH1 0x24 DUP3 ADD MSTORE PUSH10 0x139BDD08189BDB991959 PUSH1 0xB2 SHL PUSH1 0x44 DUP3 ADD MSTORE PUSH1 0x64 ADD PUSH2 0x59D JUMP JUMPDEST PUSH1 0x2 DUP2 ADD SLOAD PUSH1 0x1 PUSH1 0x1 PUSH1 0xA0 SHL SUB AND CALLER EQ PUSH2 0xC35 JUMPI PUSH1 0x40 MLOAD PUSH3 0x461BCD PUSH1 0xE5 SHL DUP2 MSTORE PUSH1 0x4 ADD PUSH2 0x59D SWAP1 PUSH2 0x1FEC JUMP JUMPDEST PUSH1 0x6 ADD DUP1 SLOAD PUSH1 0xFF NOT AND PUSH1 0x2 OR SWAP1 SSTORE POP JUMP JUMPDEST PUSH2 0xC4E PUSH2 0x1ADF JUMP JUMPDEST PUSH1 0x0 DUP2 DUP2 MSTORE PUSH1 0x5 PUSH1 0x20 MSTORE PUSH1 0x40 SWAP1 KECCAK256 PUSH1 0x3 PUSH1 0x6 DUP3 ADD SLOAD PUSH1 0xFF AND PUSH1 0x5 DUP2 GT ISZERO PUSH2 0xC77 JUMPI PUSH2 0xC77 PUSH2 0x1CB8 JUMP JUMPDEST EQ PUSH2 0xCB4 JUMPI PUSH1 0x40 MLOAD PUSH3 0x461BCD PUSH1 0xE5 SHL DUP2 MSTORE PUSH1 0x20 PUSH1 0x4 DUP3 ADD MSTORE PUSH1 0xD PUSH1 0x24 DUP3 ADD MSTORE PUSH13 0x139BDD0818DBDB5C1B195D1959 PUSH1 0x9A SHL PUSH1 0x44 DUP3 ADD MSTORE PUSH1 0x64 ADD PUSH2 0x59D JUMP JUMPDEST PUSH1 0x6 DUP2 ADD SLOAD PUSH2 0x100 SWAP1 DIV PUSH1 0xFF AND ISZERO PUSH2 0xD00 JUMPI PUSH1 0x40 MLOAD PUSH3 0x461BCD PUSH1 0xE5 SHL DUP2 MSTORE PUSH1 0x20 PUSH1 0x4 DUP3 ADD MSTORE PUSH1 0xF PUSH1 0x24 DUP3 ADD MSTORE PUSH15 0x105B1C9958591E481CD95D1D1B1959 PUSH1 0x8A SHL PUSH1 0x44 DUP3 ADD MSTORE PUSH1 0x64 ADD PUSH2 0x59D JUMP JUMPDEST PUSH3 0x93A80 DUP2 PUSH1 0x8 ADD SLOAD PUSH2 0xD13 SWAP2 SWAP1 PUSH2 0x1FA7 JUMP JUMPDEST TIMESTAMP LT ISZERO PUSH2 0xD50 JUMPI PUSH1 0x40 MLOAD PUSH3 0x461BCD PUSH1 0xE5 SHL DUP2 MSTORE PUSH1 0x20 PUSH1 0x4 DUP3 ADD MSTORE PUSH1 0xB PUSH1 0x24 DUP3 ADD MSTORE PUSH11 0x139BDD08195E1C1A5C9959 PUSH1 0xAA SHL PUSH1 0x44 DUP3 ADD MSTORE PUSH1 0x64 ADD PUSH2 0x59D JUMP JUMPDEST PUSH1 0x6 DUP2 DUP2 ADD DUP1 SLOAD PUSH2 0xFFFF NOT AND PUSH2 0x105 OR SWAP1 SSTORE PUSH1 0x0 DUP4 DUP2 MSTORE PUSH1 0x20 SWAP2 SWAP1 SWAP2 MSTORE PUSH1 0x40 SWAP1 KECCAK256 SLOAD PUSH1 0x2 DUP3 ADD SLOAD PUSH2 0xDAE SWAP1 PUSH1 0x1 PUSH1 0x1 PUSH1 0xA0 SHL SUB PUSH32 0x0 DUP2 AND SWAP2 AND DUP4 PUSH2 0x1B09 JUMP JUMPDEST PUSH1 0x1 DUP3 DUP2 ADD SLOAD PUSH1 0x0 SWAP1 DUP2 MSTORE PUSH1 0x4 PUSH1 0x20 DUP2 SWAP1 MSTORE PUSH1 0x40 SWAP1 SWAP2 KECCAK256 SWAP2 DUP3 ADD SLOAD SWAP1 DUP5 ADD SLOAD PUSH2 0xE05 SWAP2 PUSH1 0x1 PUSH1 0x1 PUSH1 0xA0 SHL SUB PUSH32 0x0 DUP2 AND SWAP3 SWAP2 AND SWAP1 PUSH2 0x1B09 JUMP JUMPDEST PUSH1 0x0 DUP5 DUP2 MSTORE PUSH1 0x6 PUSH1 0x20 MSTORE PUSH1 0x40 DUP1 DUP3 KECCAK256 DUP3 SWAP1 SSTORE PUSH1 0x4 DUP6 ADD DUP3 SWAP1 SSTORE MLOAD DUP6 SWAP2 PUSH32 0x7C2ECD5E2B7188AC57F3A370681639CB447C9CBFBBBACE0C070ADEA6C73EAA54 SWAP2 LOG2 POP POP POP PUSH2 0xE51 PUSH1 0x1 PUSH1 0x0 SSTORE JUMP JUMPDEST POP JUMP JUMPDEST PUSH2 0xE5C PUSH2 0x1ADF JUMP JUMPDEST PUSH1 0x0 DUP2 DUP2 MSTORE PUSH1 0x5 PUSH1 0x20 MSTORE PUSH1 0x40 DUP2 KECCAK256 SWAP1 PUSH1 0x6 DUP3 ADD SLOAD PUSH1 0xFF AND PUSH1 0x5 DUP2 GT ISZERO PUSH2 0xE84 JUMPI PUSH2 0xE84 PUSH2 0x1CB8 JUMP JUMPDEST EQ PUSH2 0xEBC JUMPI PUSH1 0x40 MLOAD PUSH3 0x461BCD PUSH1 0xE5 SHL DUP2 MSTORE PUSH1 0x20 PUSH1 0x4 DUP3 ADD MSTORE PUSH1 0x8 PUSH1 0x24 DUP3 ADD MSTORE PUSH8 0x2737BA1037B832B7 PUSH1 0xC1 SHL PUSH1 0x44 DUP3 ADD MSTORE PUSH1 0x64 ADD PUSH2 0x59D JUMP JUMPDEST PUSH1 0x2 DUP2 ADD SLOAD PUSH1 0x1 PUSH1 0x1 PUSH1 0xA0 SHL SUB AND CALLER EQ PUSH2 0xEE8 JUMPI PUSH1 0x40 MLOAD PUSH3 0x461BCD PUSH1 0xE5 SHL DUP2 MSTORE PUSH1 0x4 ADD PUSH2 0x59D SWAP1 PUSH2 0x1FEC JUMP JUMPDEST PUSH1 0x5 DUP2 ADD SLOAD PUSH2 0xF25 SWAP1 PUSH1 0x1 PUSH1 0x1 PUSH1 0xA0 SHL SUB PUSH32 0x0 AND SWAP1 CALLER SWAP1 ADDRESS SWAP1 PUSH2 0x1B6D JUMP JUMPDEST PUSH1 0x5 DUP2 ADD SLOAD PUSH1 0x0 DUP4 DUP2 MSTORE PUSH1 0x6 PUSH1 0x20 DUP2 DUP2 MSTORE PUSH1 0x40 SWAP3 DUP4 SWAP1 KECCAK256 DUP5 SWAP1 SSTORE SWAP1 DUP5 ADD DUP1 SLOAD PUSH1 0xFF NOT AND PUSH1 0x1 OR SWAP1 SSTORE SWAP1 MLOAD SWAP2 DUP3 MSTORE CALLER SWAP2 DUP5 SWAP2 PUSH32 0x3F700E483BF4492660028538534D4577A894D4D355068EE29433AB3FC23AB47 SWAP2 ADD PUSH1 0x40 MLOAD DUP1 SWAP2 SUB SWAP1 LOG3 POP PUSH2 0xE51 PUSH1 0x1 PUSH1 0x0 SSTORE JUMP JUMPDEST PUSH1 0x7 SLOAD PUSH1 0x1 PUSH1 0x1 PUSH1 0xA0 SHL SUB AND CALLER EQ PUSH2 0xFD2 JUMPI PUSH1 0x40 MLOAD PUSH3 0x461BCD PUSH1 0xE5 SHL DUP2 MSTORE PUSH1 0x20 PUSH1 0x4 DUP3 ADD MSTORE PUSH1 0x9 PUSH1 0x24 DUP3 ADD MSTORE PUSH9 0x2737BA1037BBB732B9 PUSH1 0xB9 SHL PUSH1 0x44 DUP3 ADD MSTORE PUSH1 0x64 ADD PUSH2 0x59D JUMP JUMPDEST PUSH2 0x5AE PUSH2 0x1BAC JUMP JUMPDEST CALLER PUSH1 0x1 PUSH1 0x1 PUSH1 0xA0 SHL SUB PUSH32 0x0 AND EQ PUSH2 0x1041 JUMPI PUSH1 0x40 MLOAD PUSH3 0x461BCD PUSH1 0xE5 SHL DUP2 MSTORE PUSH1 0x20 PUSH1 0x4 DUP3 ADD MSTORE PUSH1 0xC PUSH1 0x24 DUP3 ADD MSTORE PUSH12 0x27B7363C9021A620ABA3A2A9 PUSH1 0xA1 SHL PUSH1 0x44 DUP3 ADD MSTORE PUSH1 0x64 ADD PUSH2 0x59D JUMP JUMPDEST PUSH1 0x0 DUP4 DUP2 MSTORE PUSH1 0x4 PUSH1 0x20 MSTORE PUSH1 0x40 DUP2 KECCAK256 SWAP1 PUSH1 0x5 DUP3 ADD SLOAD PUSH1 0xFF AND PUSH1 0x3 DUP2 GT ISZERO PUSH2 0x1069 JUMPI PUSH2 0x1069 PUSH2 0x1CB8 JUMP JUMPDEST EQ PUSH2 0x1086 JUMPI PUSH1 0x40 MLOAD PUSH3 0x461BCD PUSH1 0xE5 SHL DUP2 MSTORE PUSH1 0x4 ADD PUSH2 0x59D SWAP1 PUSH2 0x2010 JUMP JUMPDEST PUSH1 0x5 DUP2 ADD DUP1 SLOAD PUSH1 0xFF NOT AND PUSH1 0x2 OR SWAP1 SSTORE PUSH1 0x0 PUSH1 0x64 PUSH2 0x10AD PUSH1 0x32 PUSH9 0x56BC75E2D63100000 PUSH2 0x2035 JUMP JUMPDEST PUSH2 0x10B7 SWAP2 SWAP1 PUSH2 0x204C JUMP JUMPDEST SWAP1 POP PUSH1 0x0 PUSH2 0x10CE DUP3 PUSH9 0x56BC75E2D63100000 PUSH2 0x1FD9 JUMP JUMPDEST SWAP1 POP PUSH2 0x1106 PUSH1 0x1 PUSH1 0x1 PUSH1 0xA0 SHL SUB PUSH32 0x0 AND PUSH2 0xDEAD DUP5 PUSH2 0x1B09 JUMP JUMPDEST PUSH2 0x115A PUSH1 0x1 PUSH1 0x1 PUSH1 0xA0 SHL SUB PUSH32 0x0 AND PUSH32 0x0 DUP4 PUSH2 0x1B09 JUMP JUMPDEST PUSH1 0x1 DUP4 ADD SLOAD PUSH1 0x3 DUP5 ADD SLOAD PUSH2 0x119C SWAP2 PUSH1 0x1 PUSH1 0x1 PUSH1 0xA0 SHL SUB PUSH32 0x0 DUP2 AND SWAP3 SWAP2 AND SWAP1 PUSH2 0x1B09 JUMP JUMPDEST DUP6 PUSH32 0x2B6AC80B08A4A1405DE820EDE499FFA80FCB06A40B14D1D767682F51A84D552 DUP7 DUP7 DUP6 DUP6 PUSH1 0x40 MLOAD PUSH2 0x11D2 SWAP5 SWAP4 SWAP3 SWAP2 SWAP1 PUSH2 0x206E JUMP JUMPDEST PUSH1 0x40 MLOAD DUP1 SWAP2 SUB SWAP1 LOG2 POP POP POP POP POP POP JUMP JUMPDEST PUSH1 0x0 PUSH2 0x11EC PUSH2 0x1BE7 JUMP JUMPDEST DUP4 PUSH2 0x122B JUMPI PUSH1 0x40 MLOAD PUSH3 0x461BCD PUSH1 0xE5 SHL DUP2 MSTORE PUSH1 0x20 PUSH1 0x4 DUP3 ADD MSTORE PUSH1 0xF PUSH1 0x24 DUP3 ADD MSTORE PUSH15 0x456D707479206F626A656374697665 PUSH1 0x88 SHL PUSH1 0x44 DUP3 ADD MSTORE PUSH1 0x64 ADD PUSH2 0x59D JUMP JUMPDEST PUSH2 0x3E8 DUP5 GT ISZERO PUSH2 0x1272 JUMPI PUSH1 0x40 MLOAD PUSH3 0x461BCD PUSH1 0xE5 SHL DUP2 MSTORE PUSH1 0x20 PUSH1 0x4 DUP3 ADD MSTORE PUSH1 0x12 PUSH1 0x24 DUP3 ADD MSTORE PUSH18 0x4F626A65637469766520746F6F206C6F6E67 PUSH1 0x70 SHL PUSH1 0x44 DUP3 ADD MSTORE PUSH1 0x64 ADD PUSH2 0x59D JUMP JUMPDEST TIMESTAMP DUP3 GT PUSH2 0x12B0 JUMPI PUSH1 0x40 MLOAD PUSH3 0x461BCD PUSH1 0xE5 SHL DUP2 MSTORE PUSH1 0x20 PUSH1 0x4 DUP3 ADD MSTORE PUSH1 0xC PUSH1 0x24 DUP3 ADD MSTORE PUSH12 0x42616420646561646C696E65 PUSH1 0xA0 SHL PUSH1 0x44 DUP3 ADD MSTORE PUSH1 0x64 ADD PUSH2 0x59D JUMP JUMPDEST PUSH1 0x0 DUP4 GT PUSH2 0x12F2 JUMPI PUSH1 0x40 MLOAD PUSH3 0x461BCD PUSH1 0xE5 SHL DUP2 MSTORE PUSH1 0x20 PUSH1 0x4 DUP3 ADD MSTORE PUSH1 0xF PUSH1 0x24 DUP3 ADD MSTORE PUSH15 0x115CD8DC9BDDC81C995C5D5A5C9959 PUSH1 0x8A SHL PUSH1 0x44 DUP3 ADD MSTORE PUSH1 0x64 ADD PUSH2 0x59D JUMP JUMPDEST PUSH10 0xD3C21BCECCEDA1000000 DUP4 GT ISZERO PUSH2 0x133F JUMPI PUSH1 0x40 MLOAD PUSH3 0x461BCD PUSH1 0xE5 SHL DUP2 MSTORE PUSH1 0x20 PUSH1 0x4 DUP3 ADD MSTORE PUSH1 0x10 PUSH1 0x24 DUP3 ADD MSTORE PUSH16 0x457363726F7720746F6F206C61726765 PUSH1 0x80 SHL PUSH1 0x44 DUP3 ADD MSTORE PUSH1 0x64 ADD PUSH2 0x59D JUMP JUMPDEST PUSH2 0x1389 CALLER ADDRESS PUSH2 0x1357 PUSH9 0x56BC75E2D63100000 DUP8 PUSH2 0x1FA7 JUMP JUMPDEST PUSH1 0x1 PUSH1 0x1 PUSH1 0xA0 SHL SUB PUSH32 0x0 AND SWAP3 SWAP2 SWAP1 PUSH2 0x1B6D JUMP JUMPDEST PUSH1 0x0 PUSH1 0x2 PUSH1 0x0 DUP2 SLOAD PUSH2 0x139A SWAP1 PUSH2 0x20AE JUMP JUMPDEST SWAP2 SWAP1 POP DUP2 SWAP1 SSTORE SWAP1 POP PUSH1 0x40 MLOAD DUP1 PUSH1 0xE0 ADD PUSH1 0x40 MSTORE DUP1 DUP3 DUP2 MSTORE PUSH1 0x20 ADD CALLER PUSH1 0x1 PUSH1 0x1 PUSH1 0xA0 SHL SUB AND DUP2 MSTORE PUSH1 0x20 ADD DUP8 DUP8 DUP1 DUP1 PUSH1 0x1F ADD PUSH1 0x20 DUP1 SWAP2 DIV MUL PUSH1 0x20 ADD PUSH1 0x40 MLOAD SWAP1 DUP2 ADD PUSH1 0x40 MSTORE DUP1 SWAP4 SWAP3 SWAP2 SWAP1 DUP2 DUP2 MSTORE PUSH1 0x20 ADD DUP4 DUP4 DUP1 DUP3 DUP5 CALLDATACOPY PUSH1 0x0 SWAP3 ADD DUP3 SWAP1 MSTORE POP SWAP4 DUP6 MSTORE POP POP POP PUSH1 0x20 DUP3 ADD DUP8 SWAP1 MSTORE PUSH1 0x40 DUP3 ADD DUP7 SWAP1 MSTORE PUSH1 0x60 SWAP1 SWAP2 ADD SWAP1 DUP2 MSTORE TIMESTAMP PUSH1 0x20 SWAP2 DUP3 ADD MSTORE PUSH1 0x0 DUP4 DUP2 MSTORE PUSH1 0x4 DUP3 MSTORE PUSH1 0x40 SWAP1 DUP2 SWAP1 KECCAK256 DUP4 MLOAD DUP2 SSTORE SWAP2 DUP4 ADD MLOAD PUSH1 0x1 DUP4 ADD DUP1 SLOAD PUSH1 0x1 PUSH1 0x1 PUSH1 0xA0 SHL SUB NOT AND PUSH1 0x1 PUSH1 0x1 PUSH1 0xA0 SHL SUB SWAP1 SWAP3 AND SWAP2 SWAP1 SWAP2 OR SWAP1 SSTORE DUP3 ADD MLOAD PUSH1 0x2 DUP3 ADD SWAP1 PUSH2 0x1461 SWAP1 DUP3 PUSH2 0x212B JUMP JUMPDEST POP PUSH1 0x60 DUP3 ADD MLOAD DUP2 PUSH1 0x3 ADD SSTORE PUSH1 0x80 DUP3 ADD MLOAD DUP2 PUSH1 0x4 ADD SSTORE PUSH1 0xA0 DUP3 ADD MLOAD DUP2 PUSH1 0x5 ADD PUSH1 0x0 PUSH2 0x100 EXP DUP2 SLOAD DUP2 PUSH1 0xFF MUL NOT AND SWAP1 DUP4 PUSH1 0x3 DUP2 GT ISZERO PUSH2 0x14A0 JUMPI PUSH2 0x14A0 PUSH2 0x1CB8 JUMP JUMPDEST MUL OR SWAP1 SSTORE POP PUSH1 0xC0 SWAP2 SWAP1 SWAP2 ADD MLOAD PUSH1 0x6 SWAP1 SWAP2 ADD SSTORE PUSH1 0x40 DUP1 MLOAD DUP6 DUP2 MSTORE PUSH1 0x20 DUP2 ADD DUP6 SWAP1 MSTORE CALLER SWAP2 DUP4 SWAP2 PUSH32 0x57A1FAACE4A7840FC17CABC57657D23725E308616DEBC3F77726A2183F2670F5 SWAP2 ADD PUSH1 0x40 MLOAD DUP1 SWAP2 SUB SWAP1 LOG3 SWAP6 SWAP5 POP POP POP POP POP JUMP JUMPDEST PUSH1 0x0 DUP2 DUP2 MSTORE PUSH1 0x5 PUSH1 0x20 MSTORE PUSH1 0x40 SWAP1 KECCAK256 PUSH1 0x2 PUSH1 0x6 DUP3 ADD SLOAD PUSH1 0xFF AND PUSH1 0x5 DUP2 GT ISZERO PUSH2 0x1521 JUMPI PUSH2 0x1521 PUSH2 0x1CB8 JUMP JUMPDEST EQ PUSH2 0x155C JUMPI PUSH1 0x40 MLOAD PUSH3 0x461BCD PUSH1 0xE5 SHL DUP2 MSTORE PUSH1 0x20 PUSH1 0x4 DUP3 ADD MSTORE PUSH1 0xB PUSH1 0x24 DUP3 ADD MSTORE PUSH11 0x4E6F742072756E6E696E67 PUSH1 0xA8 SHL PUSH1 0x44 DUP3 ADD MSTORE PUSH1 0x64 ADD PUSH2 0x59D JUMP JUMPDEST PUSH1 0x2 DUP2 ADD SLOAD PUSH1 0x1 PUSH1 0x1 PUSH1 0xA0 SHL SUB AND CALLER EQ PUSH2 0x1588 JUMPI PUSH1 0x40 MLOAD PUSH3 0x461BCD PUSH1 0xE5 SHL DUP2 MSTORE PUSH1 0x4 ADD PUSH2 0x59D SWAP1 PUSH2 0x1FEC JUMP JUMPDEST PUSH1 0x6 DUP2 ADD DUP1 SLOAD PUSH1 0xFF NOT AND PUSH1 0x3 OR SWAP1 SSTORE TIMESTAMP PUSH1 0x8 SWAP1 SWAP2 ADD SSTORE POP JUMP JUMPDEST PUSH1 0x0 DUP2 DUP2 MSTORE PUSH1 0x4 PUSH1 0x20 MSTORE PUSH1 0x40 DUP2 KECCAK256 SWAP1 PUSH1 0x5 DUP3 ADD SLOAD PUSH1 0xFF AND PUSH1 0x3 DUP2 GT ISZERO PUSH2 0x15C9 JUMPI PUSH2 0x15C9 PUSH2 0x1CB8 JUMP JUMPDEST EQ PUSH2 0x15E6 JUMPI PUSH1 0x40 MLOAD PUSH3 0x461BCD PUSH1 0xE5 SHL DUP2 MSTORE PUSH1 0x4 ADD PUSH2 0x59D SWAP1 PUSH2 0x2010 JUMP JUMPDEST DUP1 PUSH1 0x4 ADD SLOAD TIMESTAMP LT ISZERO PUSH2 0x1628 JUMPI PUSH1 0x40 MLOAD PUSH3 0x461BCD PUSH1 0xE5 SHL DUP2 MSTORE PUSH1 0x20 PUSH1 0x4 DUP3 ADD MSTORE PUSH1 0xB PUSH1 0x24 DUP3 ADD MSTORE PUSH11 0x139BDD08195E1C1A5C9959 PUSH1 0xAA SHL PUSH1 0x44 DUP3 ADD MSTORE PUSH1 0x64 ADD PUSH2 0x59D JUMP JUMPDEST PUSH1 0x5 DUP2 ADD DUP1 SLOAD PUSH1 0xFF NOT AND PUSH1 0x3 SWAP1 DUP2 OR SWAP1 SWAP2 SSTORE PUSH1 0x1 DUP3 ADD SLOAD SWAP1 DUP3 ADD SLOAD PUSH2 0x1696 SWAP2 PUSH1 0x1 PUSH1 0x1 PUSH1 0xA0 SHL SUB AND SWAP1 PUSH2 0x1665 SWAP1 PUSH9 0x56BC75E2D63100000 SWAP1 PUSH2 0x1FA7 JUMP JUMPDEST PUSH1 0x1 PUSH1 0x1 PUSH1 0xA0 SHL SUB PUSH32 0x0 AND SWAP2 SWAP1 PUSH2 0x1B09 JUMP JUMPDEST PUSH1 0x40 MLOAD DUP3 SWAP1 PUSH32 0x88E53C486703527139DFC8D97A1E559D9BD93D3F9D52CDA4E06564111E7A2643 SWAP1 PUSH1 0x0 SWAP1 LOG2 POP POP JUMP JUMPDEST PUSH1 0x0 CALLER PUSH1 0x1 PUSH1 0x1 PUSH1 0xA0 SHL SUB PUSH32 0x0 AND EQ PUSH2 0x172E JUMPI PUSH1 0x40 MLOAD PUSH3 0x461BCD PUSH1 0xE5 SHL DUP2 MSTORE PUSH1 0x20 PUSH1 0x4 DUP3 ADD MSTORE PUSH1 0xC PUSH1 0x24 DUP3 ADD MSTORE PUSH12 0x27B7363C9021A620ABA3A2A9 PUSH1 0xA1 SHL PUSH1 0x44 DUP3 ADD MSTORE PUSH1 0x64 ADD PUSH2 0x59D JUMP JUMPDEST PUSH2 0x1736 PUSH2 0x1BE7 JUMP JUMPDEST PUSH1 0x0 DUP6 DUP2 MSTORE PUSH1 0x4 PUSH1 0x20 MSTORE PUSH1 0x40 DUP2 KECCAK256 SWAP1 PUSH1 0x5 DUP3 ADD SLOAD PUSH1 0xFF AND PUSH1 0x3 DUP2 GT ISZERO PUSH2 0x175E JUMPI PUSH2 0x175E PUSH2 0x1CB8 JUMP JUMPDEST EQ PUSH2 0x177B JUMPI PUSH1 0x40 MLOAD PUSH3 0x461BCD PUSH1 0xE5 SHL DUP2 MSTORE PUSH1 0x4 ADD PUSH2 0x59D SWAP1 PUSH2 0x2010 JUMP JUMPDEST DUP1 PUSH1 0x4 ADD SLOAD TIMESTAMP LT PUSH2 0x17B8 JUMPI PUSH1 0x40 MLOAD PUSH3 0x461BCD PUSH1 0xE5 SHL DUP2 MSTORE PUSH1 0x20 PUSH1 0x4 DUP3 ADD MSTORE PUSH1 0x7 PUSH1 0x24 DUP3 ADD MSTORE PUSH7 0x115E1C1A5C9959 PUSH1 0xCA SHL PUSH1 0x44 DUP3 ADD MSTORE PUSH1 0x64 ADD PUSH2 0x59D JUMP JUMPDEST PUSH1 0x1 PUSH1 0x1 PUSH1 0xA0 SHL SUB DUP6 AND PUSH2 0x17FF JUMPI PUSH1 0x40 MLOAD PUSH3 0x461BCD PUSH1 0xE5 SHL DUP2 MSTORE PUSH1 0x20 PUSH1 0x4 DUP3 ADD MSTORE PUSH1 0xE PUSH1 0x24 DUP3 ADD MSTORE PUSH14 0x24B73B30B634B2103BB7B935B2B9 PUSH1 0x91 SHL PUSH1 0x44 DUP3 ADD MSTORE PUSH1 0x64 ADD PUSH2 0x59D JUMP JUMPDEST PUSH1 0x1 PUSH1 0x1 PUSH1 0xA0 SHL SUB DUP5 AND PUSH2 0x1848 JUMPI PUSH1 0x40 MLOAD PUSH3 0x461BCD PUSH1 0xE5 SHL DUP2 MSTORE PUSH1 0x20 PUSH1 0x4 DUP3 ADD MSTORE PUSH1 0x10 PUSH1 0x24 DUP3 ADD MSTORE PUSH16 0x24B73B30B634B2103B32B934B334B2B9 PUSH1 0x81 SHL PUSH1 0x44 DUP3 ADD MSTORE PUSH1 0x64 ADD PUSH2 0x59D JUMP JUMPDEST PUSH8 0xDE0B6B3A7640000 DUP4 LT ISZERO PUSH2 0x1891 JUMPI PUSH1 0x40 MLOAD PUSH3 0x461BCD PUSH1 0xE5 SHL DUP2 MSTORE PUSH1 0x20 PUSH1 0x4 DUP3 ADD MSTORE PUSH1 0xE PUSH1 0x24 DUP3 ADD MSTORE PUSH14 0x109BDB99081D1BDBC81CDB585B1B PUSH1 0x92 SHL PUSH1 0x44 DUP3 ADD MSTORE PUSH1 0x64 ADD PUSH2 0x59D JUMP JUMPDEST PUSH1 0x5 DUP2 ADD DUP1 SLOAD PUSH1 0xFF NOT AND PUSH1 0x1 SWAP1 DUP2 OR SWAP1 SWAP2 SSTORE DUP2 ADD SLOAD PUSH2 0x18E7 SWAP1 PUSH32 0x0 PUSH1 0x1 PUSH1 0x1 PUSH1 0xA0 SHL SUB SWAP1 DUP2 AND SWAP2 AND PUSH9 0x56BC75E2D63100000 PUSH2 0x1B09 JUMP JUMPDEST PUSH1 0x0 PUSH1 0x3 PUSH1 0x0 DUP2 SLOAD PUSH2 0x18F8 SWAP1 PUSH2 0x20AE JUMP JUMPDEST SWAP2 SWAP1 POP DUP2 SWAP1 SSTORE SWAP1 POP PUSH1 0x40 MLOAD DUP1 PUSH2 0x140 ADD PUSH1 0x40 MSTORE DUP1 DUP3 DUP2 MSTORE PUSH1 0x20 ADD DUP9 DUP2 MSTORE PUSH1 0x20 ADD DUP8 PUSH1 0x1 PUSH1 0x1 PUSH1 0xA0 SHL SUB AND DUP2 MSTORE PUSH1 0x20 ADD DUP7 PUSH1 0x1 PUSH1 0x1 PUSH1 0xA0 SHL SUB AND DUP2 MSTORE PUSH1 0x20 ADD DUP4 PUSH1 0x3 ADD SLOAD DUP2 MSTORE PUSH1 0x20 ADD DUP6 DUP2 MSTORE PUSH1 0x20 ADD PUSH1 0x0 PUSH1 0x5 DUP2 GT ISZERO PUSH2 0x1959 JUMPI PUSH2 0x1959 PUSH2 0x1CB8 JUMP JUMPDEST DUP2 MSTORE PUSH1 0x0 PUSH1 0x20 DUP1 DUP4 ADD DUP3 SWAP1 MSTORE TIMESTAMP PUSH1 0x40 DUP1 DUP6 ADD SWAP2 SWAP1 SWAP2 MSTORE PUSH1 0x60 SWAP4 DUP5 ADD DUP4 SWAP1 MSTORE DUP6 DUP4 MSTORE PUSH1 0x5 DUP1 DUP4 MSTORE SWAP3 DUP2 SWAP1 KECCAK256 DUP6 MLOAD DUP2 SSTORE SWAP2 DUP6 ADD MLOAD PUSH1 0x1 DUP1 DUP5 ADD SWAP2 SWAP1 SWAP2 SSTORE SWAP1 DUP6 ADD MLOAD PUSH1 0x2 DUP4 ADD DUP1 SLOAD PUSH1 0x1 PUSH1 0x1 PUSH1 0xA0 SHL SUB NOT SWAP1 DUP2 AND PUSH1 0x1 PUSH1 0x1 PUSH1 0xA0 SHL SUB SWAP4 DUP5 AND OR SWAP1 SWAP2 SSTORE SWAP5 DUP7 ADD MLOAD PUSH1 0x3 DUP5 ADD DUP1 SLOAD SWAP1 SWAP7 AND SWAP2 AND OR SWAP1 SWAP4 SSTORE PUSH1 0x80 DUP5 ADD MLOAD PUSH1 0x4 DUP3 ADD SSTORE PUSH1 0xA0 DUP5 ADD MLOAD DUP2 DUP4 ADD SSTORE PUSH1 0xC0 DUP5 ADD MLOAD PUSH1 0x6 DUP3 ADD DUP1 SLOAD SWAP3 SWAP5 SWAP2 SWAP4 SWAP1 SWAP3 PUSH1 0xFF NOT AND SWAP2 SWAP1 DUP5 SWAP1 DUP2 GT ISZERO PUSH2 0x1A07 JUMPI PUSH2 0x1A07 PUSH2 0x1CB8 JUMP JUMPDEST MUL OR SWAP1 SSTORE POP PUSH1 0xE0 DUP3 ADD MLOAD PUSH1 0x6 DUP3 ADD DUP1 SLOAD PUSH2 0xFF00 NOT AND PUSH2 0x100 SWAP3 ISZERO ISZERO DUP4 MUL OR SWAP1 SSTORE DUP3 ADD MLOAD PUSH1 0x7 DUP3 ADD SSTORE PUSH2 0x120 SWAP1 SWAP2 ADD MLOAD PUSH1 0x8 SWAP1 SWAP2 ADD SSTORE PUSH1 0x40 DUP1 MLOAD PUSH1 0x1 PUSH1 0x1 PUSH1 0xA0 SHL SUB DUP9 DUP2 AND DUP3 MSTORE DUP8 AND PUSH1 0x20 DUP3 ADD MSTORE DUP3 SWAP2 DUP10 SWAP2 PUSH32 0xC871951ED5E4AB863F8D91AF56AF516212C52A36A82694B32BE47292E4F0E2AE SWAP2 ADD PUSH1 0x40 MLOAD DUP1 SWAP2 SUB SWAP1 LOG3 SWAP7 SWAP6 POP POP POP POP POP POP JUMP JUMPDEST PUSH2 0x1A95 PUSH2 0x1C0B JUMP JUMPDEST PUSH1 0x1 DUP1 SLOAD PUSH1 0xFF NOT AND SWAP1 SSTORE PUSH32 0x5DB9EE0A495BF2E6FF9C91A7834C1BA4FDD244A5E8AA4E537BD38AEAE4B073AA CALLER JUMPDEST PUSH1 0x40 MLOAD PUSH1 0x1 PUSH1 0x1 PUSH1 0xA0 SHL SUB SWAP1 SWAP2 AND DUP2 MSTORE PUSH1 0x20 ADD PUSH1 0x40 MLOAD DUP1 SWAP2 SUB SWAP1 LOG1 JUMP JUMPDEST PUSH1 0x2 PUSH1 0x0 SLOAD SUB PUSH2 0x1B02 JUMPI PUSH1 0x40 MLOAD PUSH4 0x3EE5AEB5 PUSH1 0xE0 SHL DUP2 MSTORE PUSH1 0x4 ADD PUSH1 0x40 MLOAD DUP1 SWAP2 SUB SWAP1 REVERT JUMPDEST PUSH1 0x2 PUSH1 0x0 SSTORE JUMP JUMPDEST PUSH1 0x40 MLOAD PUSH1 0x1 PUSH1 0x1 PUSH1 0xA0 SHL SUB DUP4 DUP2 AND PUSH1 0x24 DUP4 ADD MSTORE PUSH1 0x44 DUP3 ADD DUP4 SWAP1 MSTORE PUSH2 0x1B68 SWAP2 DUP6 SWAP2 DUP3 AND SWAP1 PUSH4 0xA9059CBB SWAP1 PUSH1 0x64 ADD JUMPDEST PUSH1 0x40 MLOAD PUSH1 0x20 DUP2 DUP4 SUB SUB DUP2 MSTORE SWAP1 PUSH1 0x40 MSTORE SWAP2 POP PUSH1 0xE0 SHL PUSH1 0x20 DUP3 ADD DUP1 MLOAD PUSH1 0x1 PUSH1 0x1 PUSH1 0xE0 SHL SUB DUP4 DUP2 DUP4 AND OR DUP4 MSTORE POP POP POP POP PUSH2 0x1C2E JUMP JUMPDEST POP POP POP JUMP JUMPDEST PUSH1 0x40 MLOAD PUSH1 0x1 PUSH1 0x1 PUSH1 0xA0 SHL SUB DUP5 DUP2 AND PUSH1 0x24 DUP4 ADD MSTORE DUP4 DUP2 AND PUSH1 0x44 DUP4 ADD MSTORE PUSH1 0x64 DUP3 ADD DUP4 SWAP1 MSTORE PUSH2 0x1BA6 SWAP2 DUP7 SWAP2 DUP3 AND SWAP1 PUSH4 0x23B872DD SWAP1 PUSH1 0x84 ADD PUSH2 0x1B36 JUMP JUMPDEST POP POP POP POP JUMP JUMPDEST PUSH2 0x1BB4 PUSH2 0x1BE7 JUMP JUMPDEST PUSH1 0x1 DUP1 SLOAD PUSH1 0xFF NOT AND DUP2 OR SWAP1 SSTORE PUSH32 0x62E78CEA01BEE320CD4E420270B5EA74000D11B0C9F74754EBDBFC544B05A258 CALLER PUSH2 0x1AC2 JUMP JUMPDEST PUSH1 0x1 SLOAD PUSH1 0xFF AND ISZERO PUSH2 0x5AE JUMPI PUSH1 0x40 MLOAD PUSH4 0xD93C0665 PUSH1 0xE0 SHL DUP2 MSTORE PUSH1 0x4 ADD PUSH1 0x40 MLOAD DUP1 SWAP2 SUB SWAP1 REVERT JUMPDEST PUSH1 0x1 SLOAD PUSH1 0xFF AND PUSH2 0x5AE JUMPI PUSH1 0x40 MLOAD PUSH4 0x8DFC202B PUSH1 0xE0 SHL DUP2 MSTORE PUSH1 0x4 ADD PUSH1 0x40 MLOAD DUP1 SWAP2 SUB SWAP1 REVERT JUMPDEST PUSH1 0x0 DUP1 PUSH1 0x20 PUSH1 0x0 DUP5 MLOAD PUSH1 0x20 DUP7 ADD PUSH1 0x0 DUP9 GAS CALL DUP1 PUSH2 0x1C51 JUMPI PUSH1 0x40 MLOAD RETURNDATASIZE PUSH1 0x0 DUP3 RETURNDATACOPY RETURNDATASIZE DUP2 REVERT JUMPDEST POP POP PUSH1 0x0 MLOAD RETURNDATASIZE SWAP2 POP DUP2 ISZERO PUSH2 0x1C69 JUMPI DUP1 PUSH1 0x1 EQ ISZERO PUSH2 0x1C76 JUMP JUMPDEST PUSH1 0x1 PUSH1 0x1 PUSH1 0xA0 SHL SUB DUP5 AND EXTCODESIZE ISZERO JUMPDEST ISZERO PUSH2 0x1BA6 JUMPI PUSH1 0x40 MLOAD PUSH4 0x5274AFE7 PUSH1 0xE0 SHL DUP2 MSTORE PUSH1 0x1 PUSH1 0x1 PUSH1 0xA0 SHL SUB DUP6 AND PUSH1 0x4 DUP3 ADD MSTORE PUSH1 0x24 ADD PUSH2 0x59D JUMP JUMPDEST PUSH1 0x0 PUSH1 0x20 DUP3 DUP5 SUB SLT ISZERO PUSH2 0x1CB1 JUMPI PUSH1 0x0 DUP1 REVERT JUMPDEST POP CALLDATALOAD SWAP2 SWAP1 POP JUMP JUMPDEST PUSH4 0x4E487B71 PUSH1 0xE0 SHL PUSH1 0x0 MSTORE PUSH1 0x21 PUSH1 0x4 MSTORE PUSH1 0x24 PUSH1 0x0 REVERT JUMPDEST PUSH1 0x4 DUP2 LT PUSH2 0x1CDE JUMPI PUSH2 0x1CDE PUSH2 0x1CB8 JUMP JUMPDEST SWAP1 MSTORE JUMP JUMPDEST DUP8 DUP2 MSTORE PUSH1 0x0 PUSH1 0x20 PUSH1 0x1 DUP1 PUSH1 0xA0 SHL SUB DUP10 AND DUP2 DUP5 ADD MSTORE PUSH1 0xE0 PUSH1 0x40 DUP5 ADD MSTORE DUP8 MLOAD DUP1 PUSH1 0xE0 DUP6 ADD MSTORE PUSH1 0x0 JUMPDEST DUP2 DUP2 LT ISZERO PUSH2 0x1D25 JUMPI DUP10 DUP2 ADD DUP4 ADD MLOAD DUP6 DUP3 ADD PUSH2 0x100 ADD MSTORE DUP3 ADD PUSH2 0x1D08 JUMP JUMPDEST POP PUSH2 0x100 SWAP2 POP PUSH1 0x0 DUP3 DUP3 DUP7 ADD ADD MSTORE DUP2 PUSH1 0x1F NOT PUSH1 0x1F DUP4 ADD AND DUP6 ADD ADD SWAP3 POP POP POP DUP6 PUSH1 0x60 DUP4 ADD MSTORE DUP5 PUSH1 0x80 DUP4 ADD MSTORE PUSH2 0x1D5C PUSH1 0xA0 DUP4 ADD DUP6 PUSH2 0x1CCE JUMP JUMPDEST DUP3 PUSH1 0xC0 DUP4 ADD MSTORE SWAP9 SWAP8 POP POP POP POP POP POP POP POP JUMP JUMPDEST PUSH1 0x0 DUP1 PUSH1 0x40 DUP4 DUP6 SUB SLT ISZERO PUSH2 0x1D81 JUMPI PUSH1 0x0 DUP1 REVERT JUMPDEST DUP3 CALLDATALOAD SWAP2 POP PUSH1 0x20 DUP4 ADD CALLDATALOAD DUP1 ISZERO ISZERO DUP2 EQ PUSH2 0x1D98 JUMPI PUSH1 0x0 DUP1 REVERT JUMPDEST DUP1 SWAP2 POP POP SWAP3 POP SWAP3 SWAP1 POP JUMP JUMPDEST DUP11 DUP2 MSTORE PUSH1 0x20 DUP2 ADD DUP11 SWAP1 MSTORE PUSH1 0x1 PUSH1 0x1 PUSH1 0xA0 SHL SUB DUP10 DUP2 AND PUSH1 0x40 DUP4 ADD MSTORE DUP9 AND PUSH1 0x60 DUP3 ADD MSTORE PUSH1 0x80 DUP2 ADD DUP8 SWAP1 MSTORE PUSH1 0xA0 DUP2 ADD DUP7 SWAP1 MSTORE PUSH2 0x140 DUP2 ADD PUSH1 0x6 DUP7 LT PUSH2 0x1DE7 JUMPI PUSH2 0x1DE7 PUSH2 0x1CB8 JUMP JUMPDEST PUSH1 0xC0 DUP3 ADD SWAP6 SWAP1 SWAP6 MSTORE SWAP3 ISZERO ISZERO PUSH1 0xE0 DUP5 ADD MSTORE PUSH2 0x100 DUP4 ADD SWAP2 SWAP1 SWAP2 MSTORE PUSH2 0x120 SWAP1 SWAP2 ADD MSTORE SWAP7 SWAP6 POP POP POP POP POP POP JUMP JUMPDEST PUSH1 0x0 DUP1 DUP4 PUSH1 0x1F DUP5 ADD SLT PUSH2 0x1E23 JUMPI PUSH1 0x0 DUP1 REVERT JUMPDEST POP DUP2 CALLDATALOAD PUSH8 0xFFFFFFFFFFFFFFFF DUP2 GT ISZERO PUSH2 0x1E3B JUMPI PUSH1 0x0 DUP1 REVERT JUMPDEST PUSH1 0x20 DUP4 ADD SWAP2 POP DUP4 PUSH1 0x20 DUP3 DUP6 ADD ADD GT ISZERO PUSH2 0x1E53 JUMPI PUSH1 0x0 DUP1 REVERT JUMPDEST SWAP3 POP SWAP3 SWAP1 POP JUMP JUMPDEST PUSH1 0x0 DUP1 PUSH1 0x0 PUSH1 0x40 DUP5 DUP7 SUB SLT ISZERO PUSH2 0x1E6F JUMPI PUSH1 0x0 DUP1 REVERT JUMPDEST DUP4 CALLDATALOAD SWAP3 POP PUSH1 0x20 DUP5 ADD CALLDATALOAD PUSH8 0xFFFFFFFFFFFFFFFF DUP2 GT ISZERO PUSH2 0x1E8D JUMPI PUSH1 0x0 DUP1 REVERT JUMPDEST PUSH2 0x1E99 DUP7 DUP3 DUP8 ADD PUSH2 0x1E11 JUMP JUMPDEST SWAP5 SWAP8 SWAP1 SWAP7 POP SWAP4 SWAP5 POP POP POP POP JUMP JUMPDEST PUSH1 0x0 DUP1 PUSH1 0x0 DUP1 PUSH1 0x60 DUP6 DUP8 SUB SLT ISZERO PUSH2 0x1EBC JUMPI PUSH1 0x0 DUP1 REVERT JUMPDEST DUP5 CALLDATALOAD PUSH8 0xFFFFFFFFFFFFFFFF DUP2 GT ISZERO PUSH2 0x1ED3 JUMPI PUSH1 0x0 DUP1 REVERT JUMPDEST PUSH2 0x1EDF DUP8 DUP3 DUP9 ADD PUSH2 0x1E11 JUMP JUMPDEST SWAP1 SWAP9 SWAP1 SWAP8 POP PUSH1 0x20 DUP8 ADD CALLDATALOAD SWAP7 PUSH1 0x40 ADD CALLDATALOAD SWAP6 POP SWAP4 POP POP POP POP JUMP JUMPDEST DUP1 CALLDATALOAD PUSH1 0x1 PUSH1 0x1 PUSH1 0xA0 SHL SUB DUP2 AND DUP2 EQ PUSH2 0x1F0E JUMPI PUSH1 0x0 DUP1 REVERT JUMPDEST SWAP2 SWAP1 POP JUMP JUMPDEST PUSH1 0x0 DUP1 PUSH1 0x0 DUP1 PUSH1 0x80 DUP6 DUP8 SUB SLT ISZERO PUSH2 0x1F29 JUMPI PUSH1 0x0 DUP1 REVERT JUMPDEST DUP5 CALLDATALOAD SWAP4 POP PUSH2 0x1F39 PUSH1 0x20 DUP7 ADD PUSH2 0x1EF7 JUMP JUMPDEST SWAP3 POP PUSH2 0x1F47 PUSH1 0x40 DUP7 ADD PUSH2 0x1EF7 JUMP JUMPDEST SWAP4 SWAP7 SWAP3 SWAP6 POP SWAP3 SWAP4 PUSH1 0x60 ADD CALLDATALOAD SWAP3 POP POP JUMP JUMPDEST PUSH1 0x1 DUP2 DUP2 SHR SWAP1 DUP3 AND DUP1 PUSH2 0x1F6B JUMPI PUSH1 0x7F DUP3 AND SWAP2 POP JUMPDEST PUSH1 0x20 DUP3 LT DUP2 SUB PUSH2 0x1F8B JUMPI PUSH4 0x4E487B71 PUSH1 0xE0 SHL PUSH1 0x0 MSTORE PUSH1 0x22 PUSH1 0x4 MSTORE PUSH1 0x24 PUSH1 0x0 REVERT JUMPDEST POP SWAP2 SWAP1 POP JUMP JUMPDEST PUSH4 0x4E487B71 PUSH1 0xE0 SHL PUSH1 0x0 MSTORE PUSH1 0x11 PUSH1 0x4 MSTORE PUSH1 0x24 PUSH1 0x0 REVERT JUMPDEST DUP1 DUP3 ADD DUP1 DUP3 GT ISZERO PUSH2 0x1FBA JUMPI PUSH2 0x1FBA PUSH2 0x1F91 JUMP JUMPDEST SWAP3 SWAP2 POP POP JUMP JUMPDEST PUSH1 0x0 PUSH1 0x20 DUP3 DUP5 SUB SLT ISZERO PUSH2 0x1FD2 JUMPI PUSH1 0x0 DUP1 REVERT JUMPDEST POP MLOAD SWAP2 SWAP1 POP JUMP JUMPDEST DUP2 DUP2 SUB DUP2 DUP2 GT ISZERO PUSH2 0x1FBA JUMPI PUSH2 0x1FBA PUSH2 0x1F91 JUMP JUMPDEST PUSH1 0x20 DUP1 DUP3 MSTORE PUSH1 0xA SWAP1 DUP3 ADD MSTORE PUSH10 0x2737BA103BB7B935B2B9 PUSH1 0xB1 SHL PUSH1 0x40 DUP3 ADD MSTORE PUSH1 0x60 ADD SWAP1 JUMP JUMPDEST PUSH1 0x20 DUP1 DUP3 MSTORE PUSH1 0xB SWAP1 DUP3 ADD MSTORE PUSH11 0x4E6F742070656E64696E67 PUSH1 0xA8 SHL PUSH1 0x40 DUP3 ADD MSTORE PUSH1 0x60 ADD SWAP1 JUMP JUMPDEST DUP1 DUP3 MUL DUP2 ISZERO DUP3 DUP3 DIV DUP5 EQ OR PUSH2 0x1FBA JUMPI PUSH2 0x1FBA PUSH2 0x1F91 JUMP JUMPDEST PUSH1 0x0 DUP3 PUSH2 0x2069 JUMPI PUSH4 0x4E487B71 PUSH1 0xE0 SHL PUSH1 0x0 MSTORE PUSH1 0x12 PUSH1 0x4 MSTORE PUSH1 0x24 PUSH1 0x0 REVERT JUMPDEST POP DIV SWAP1 JUMP JUMPDEST PUSH1 0x60 DUP2 MSTORE DUP4 PUSH1 0x60 DUP3 ADD MSTORE DUP4 DUP6 PUSH1 0x80 DUP4 ADD CALLDATACOPY PUSH1 0x0 PUSH1 0x80 DUP6 DUP4 ADD ADD MSTORE PUSH1 0x0 PUSH1 0x80 PUSH1 0x1F NOT PUSH1 0x1F DUP8 ADD AND DUP4 ADD ADD SWAP1 POP DUP4 PUSH1 0x20 DUP4 ADD MSTORE DUP3 PUSH1 0x40 DUP4 ADD MSTORE SWAP6 SWAP5 POP POP POP POP POP JUMP JUMPDEST PUSH1 0x0 PUSH1 0x1 DUP3 ADD PUSH2 0x20C0 JUMPI PUSH2 0x20C0 PUSH2 0x1F91 JUMP JUMPDEST POP PUSH1 0x1 ADD SWAP1 JUMP JUMPDEST PUSH4 0x4E487B71 PUSH1 0xE0 SHL PUSH1 0x0 MSTORE PUSH1 0x41 PUSH1 0x4 MSTORE PUSH1 0x24 PUSH1 0x0 REVERT JUMPDEST PUSH1 0x1F DUP3 GT ISZERO PUSH2 0x1B68 JUMPI PUSH1 0x0 DUP2 DUP2 MSTORE PUSH1 0x20 DUP2 KECCAK256 PUSH1 0x1F DUP6 ADD PUSH1 0x5 SHR DUP2 ADD PUSH1 0x20 DUP7 LT ISZERO PUSH2 0x2104 JUMPI POP DUP1 JUMPDEST PUSH1 0x1F DUP6 ADD PUSH1 0x5 SHR DUP3 ADD SWAP2 POP JUMPDEST DUP2 DUP2 LT ISZERO PUSH2 0x2123 JUMPI DUP3 DUP2 SSTORE PUSH1 0x1 ADD PUSH2 0x2110 JUMP JUMPDEST POP POP POP POP POP POP JUMP JUMPDEST DUP2 MLOAD PUSH8 0xFFFFFFFFFFFFFFFF DUP2 GT ISZERO PUSH2 0x2145 JUMPI PUSH2 0x2145 PUSH2 0x20C7 JUMP JUMPDEST PUSH2 0x2159 DUP2 PUSH2 0x2153 DUP5 SLOAD PUSH2 0x1F57 JUMP JUMPDEST DUP5 PUSH2 0x20DD JUMP JUMPDEST PUSH1 0x20 DUP1 PUSH1 0x1F DUP4 GT PUSH1 0x1 DUP2 EQ PUSH2 0x218E JUMPI PUSH1 0x0 DUP5 ISZERO PUSH2 0x2176 JUMPI POP DUP6 DUP4 ADD MLOAD JUMPDEST PUSH1 0x0 NOT PUSH1 0x3 DUP7 SWAP1 SHL SHR NOT AND PUSH1 0x1 DUP6 SWAP1 SHL OR DUP6 SSTORE PUSH2 0x2123 JUMP JUMPDEST PUSH1 0x0 DUP6 DUP2 MSTORE PUSH1 0x20 DUP2 KECCAK256 PUSH1 0x1F NOT DUP7 AND SWAP2 JUMPDEST DUP3 DUP2 LT ISZERO PUSH2 0x21BD JUMPI DUP9 DUP7 ADD MLOAD DUP3 SSTORE SWAP5 DUP5 ADD SWAP5 PUSH1 0x1 SWAP1 SWAP2 ADD SWAP1 DUP5 ADD PUSH2 0x219E JUMP JUMPDEST POP DUP6 DUP3 LT ISZERO PUSH2 0x21DB JUMPI DUP8 DUP6 ADD MLOAD PUSH1 0x0 NOT PUSH1 0x3 DUP9 SWAP1 SHL PUSH1 0xF8 AND SHR NOT AND DUP2 SSTORE JUMPDEST POP POP POP POP POP PUSH1 0x1 SWAP1 DUP2 SHL ADD SWAP1 SSTORE POP JUMP INVALID LOG2 PUSH5 0x6970667358 0x22 SLT KECCAK256 0xF9 PUSH26 0x67A507F0455067B2C6DBB919706DB4F75952CF9817B6934D2A8C SSTORE 0xE5 0xCE 0xCA PUSH5 0x736F6C6343 STOP ADDMOD EQ STOP CALLER "},"methodIdentifiers":{"BOND_BURN_PERCENT()":"0c53627f","BURN_ADDRESS()":"fccc2813","CLGR()":"480bacd1","MAX_ESCROW()":"c7895646","MAX_OBJECTIVE_LENGTH()":"922509b7","MIN_WORKER_BOND()":"a639a574","PROPOSAL_BOND()":"7e3681bd","TASK_EXPIRY_DURATION()":"9f26af12","acceptProposal(uint256,address,address,uint256)":"ef9b8e9b","clawger()":"3a04bdb8","expireProposal(uint256)":"e1b526b0","expireTask(uint256)":"62ecc47a","lockedWorkerBond(uint256)":"e008779d","owner()":"8da5cb5b","pause()":"8456cb59","paused()":"5c975abb","postWorkerBond(uint256)":"6517a7a1","proposalCounter()":"0c0512e9","proposals(uint256)":"013cf08b","registry()":"7b103999","rejectProposal(uint256,string)":"952a5be7","startTask(uint256)":"5f944326","submitProposal(string,uint256,uint256)":"a6b39cdd","submitWork(uint256)":"c4c11523","taskCounter()":"58671730","tasks(uint256)":"8d977672","unpause()":"3f4ba83a","verifyTask(uint256,bool)":"4b46e63e"}}}}}